{
	"data": {
		"bytecode": {
			"linkReferences": {},
			"object": "611069610026600b82828239805160001a60731461001957fe5b30600052607381538281f3fe73000000000000000000000000000000000000000030146080604052600436106101b35760003560e01c80638f2399d111610103578063c3b9c2ca116100a1578063d325c1201161007b578063d325c120146105c7578063e3e44a4e14610629578063ec05c53a1461067a578063f32fda4c1461048f576101b3565b8063c3b9c2ca14610568578063c9621e7c146105c7578063d0959375146105fd576101b3565b8063a97ffbe2116100dd578063a97ffbe214610504578063ac0f927614610220578063b9ff4f8414610521578063bc3e06001461054b576101b3565b80638f2399d1146104195780639e53fb981461048f578063a7453093146104b2576101b3565b806346948470116101705780636a2d796b1161014a5780636a2d796b1461037b578063740757c5146103b65780638268c4ec146103d9578063846d4c8c146103f6576101b3565b806346948470146103055780634e5d4842146103225780635cebb31814610345576101b3565b80630553bf35146101b857806305c391fc146101d757806308a18df31461022057806312e2656d1461025657806321f5cd031461028d5780633b228bcf146102e2575b600080fd5b6101d5600480360360208110156101ce57600080fd5b5035610697565b005b610203600480360360608110156101ed57600080fd5b5080359060ff60208201351690604001356106f1565b6040805160ff909316835290151560208301528051918290030190f35b81801561022c57600080fd5b506101d56004803603606081101561024357600080fd5b5080359060208101359060400135610745565b6102796004803603604081101561026c57600080fd5b508035906020013561076c565b604080519115158252519081900360200190f35b81801561029957600080fd5b506102cc600480360360808110156102b057600080fd5b5080359060ff6020820135169060408101359060600135610782565b6040805160ff9092168252519081900360200190f35b6101d5600480360360408110156102f857600080fd5b5080359060200135610888565b6101d56004803603602081101561031b57600080fd5b50356108d2565b6101d56004803603604081101561033857600080fd5b5080359060200135610935565b6103626004803603602081101561035b57600080fd5b5035610999565b6040805192835260208301919091528051918290030190f35b81801561038757600080fd5b506102cc6004803603606081101561039e57600080fd5b5080359060ff602082013581169160400135166109a5565b6101d5600480360360408110156103cc57600080fd5b5080359060200135610a79565b6101d5600480360360208110156103ef57600080fd5b5035610ac0565b6103626004803603604081101561040c57600080fd5b5080359060200135610b11565b61043f6004803603604081101561042f57600080fd5b508035906020013560ff16610b42565b60408051602080825283518183015283519192839290830191858101910280838360005b8381101561047b578181015183820152602001610463565b505050509050019250505060405180910390f35b6101d5600480360360408110156104a557600080fd5b5080359060200135610bbb565b6104cf600480360360208110156104c857600080fd5b5035610bfc565b6040805196875260208701959095529215158585015290151560608501521515608084015260a0830152519081900360c00190f35b6101d56004803603602081101561051a57600080fd5b5035610c30565b81801561052d57600080fd5b506101d56004803603602081101561054457600080fd5b5035610c87565b6101d56004803603602081101561056157600080fd5b5035610c9b565b81801561057457600080fd5b506101d5600480360361010081101561058c57600080fd5b5080359060208101359060408101359060608101359060808101359060a081013515159060c081013515159060e0013563ffffffff16610cff565b8180156105d357600080fd5b506101d5600480360360608110156105ea57600080fd5b5080359060208101359060400135610e5c565b6101d56004803603604081101561061357600080fd5b50803590602001356001600160a01b0316610e80565b6106466004803603602081101561063f57600080fd5b5035610f36565b60408051958652602086019490945263ffffffff928316858501529116606084015215156080830152519081900360a00190f35b6101d56004803603602081101561069057600080fd5b5035610f71565b8081600101116106ee576040805162461bcd60e51b815260206004820152601860248201527f4c696d69742052656163686564202d204f766572666c6f770000000000000000604482015290519081900360640190fd5b50565b600080835b60ff81161561073c5760ff811660009081526020879052604090205484141561072157915060019050805b61073560ff8216600163ffffffff610fd516565b90506106f6565b50935093915050565b61074f8183610935565b50600090815260209190915260409020805460ff19166001179055565b6000908152602091909152604090205460ff1690565b60008060ff85166107a257506004850154600160601b900460ff166107bf565b60ff8516600114156107bf57506004850154600160601b900460ff165b6107d360ff8216600163ffffffff610ff016565b915060ff8516610851576107e561101a565b50604080518082018252858152602080820186815260ff8616600081815260058c01845285812094518555915160019485015560048b01805460ff60601b1916600160601b90920291909117905587815260068a0190915291909120805460ff1916909117905561087f565b60ff85166001141561087f576040805180820190915284815260200183905260028601849055600386018390555b50949350505050565b808211156108ce576040805162461bcd60e51b815260206004820152600e60248201526d125d195b48139bdd08119bdd5b9960921b604482015290519081900360640190fd5b5050565b60048101546301000000900463ffffffff166106ee576040805162461bcd60e51b815260206004820152601b60248201527f4974656d205374616d70696e67204e6f7420496e697469617465640000000000604482015290519081900360640190fd5b60008181526020839052604090205460ff16156108ce576040805162461bcd60e51b815260206004820152601c60248201527f45494e20696e20626c61636b6c697374202f2077686974656c69737400000000604482015290519081900360640190fd5b80546001909101549091565b600060ff8316610a425760048401546109c990600160601b900460ff166001610fd5565b60ff838116600081815260058801602081815260408084208054855260068c018352818520805460ff1916905560048c018054600160601b90819004891687529490935290842094909352835483556001938401549390920192909255805460ff60601b19169284169091029190911790559050610a72565b60ff831660011415610a725760408051808201909152600080825260209091018190526002850181905560038501555b9392505050565b815481146108ce576040805162461bcd60e51b815260206004820152600f60248201526e27b7363c902334b6329027bbb732b960891b604482015290519081900360640190fd5b600481015460ff1615156001146106ee576040805162461bcd60e51b815260206004820152601060248201526f4974656d206973206e6f742046696c6560801b604482015290519081900360640190fd5b818160018101610b3757610b2c82600163ffffffff61100816565b915060009050610b3b565b6001015b9250929050565b60606000825b60ff811615610bb35760ff808216600090815260208790526040902054845190918591908516908110610b7757fe5b6020908102919091010152610b9660ff8316600163ffffffff610ff016565b9150610bac60ff8216600163ffffffff610fd516565b9050610b48565b505092915050565b808214156108ce576040805162461bcd60e51b815260206004820152600960248201526853616d652045494e7360b81b604482015290519081900360640190fd5b80546001820154600490920154909260ff808316926101008104821692620100008204831692600160601b90920490911690565b8060018203106106ee576040805162461bcd60e51b815260206004820152601960248201527f4c696d69742052656163686564202d20556e646572666c6f7700000000000000604482015290519081900360640190fd5b600401805462ff0000191662010000179055565b6004810154600160381b900463ffffffff16156106ee576040805162461bcd60e51b815260206004820152601a60248201527f4974656d205374616d70696e6720697320436f6d706c65746564000000000000604482015290519081900360640190fd5b604080516101608101825261012081019687526101408101959095529484528451808601865260008082526020808301829052808701928352941515868801908152931515606087019081526080870182815263ffffffff94851660a0890190815260c0890184815260e08a01858152610100808c018781529e87529e8a528b86209c86529b895299909320975180518955870151600189015592518051600289015590950151600387015592516004909501805494519151935196519751985160ff19959095169515159590951761ff0019169015159098029790971762ff0000191662010000911515919091021766ffffffff0000001916630100000093871693909302929092176affffffff000000000000001916600160381b93909516929092029390931760ff60581b1916600160581b921515929092029190911760ff60601b1916600160601b60ff90931692909202919091179055565b610e668183610935565b50600090815260209190915260409020805460ff19169055565b806001600160a01b0316635b5aed3a836040518263ffffffff1660e01b81526004018082815260200191505060206040518083038186803b158015610ec457600080fd5b505afa158015610ed8573d6000803e3d6000fd5b505050506040513d6020811015610eee57600080fd5b505115156001146108ce576040805162461bcd60e51b815260206004820152600d60248201526c115253881b9bdd08119bdd5b99609a1b604482015290519081900360640190fd5b6002810154600382015460049092015490926301000000820463ffffffff90811692600160381b810490911691600160581b90910460ff1690565b60048101546301000000900463ffffffff16156106ee576040805162461bcd60e51b815260206004820152601760248201527f4974656d205374616d70696e6720496e69746961746564000000000000000000604482015290519081900360640190fd5b60008260ff168260ff161115610fea57600080fd5b50900390565b600082820160ff8085169082161015610a7257600080fd5b600082820183811015610a7257600080fd5b60405180604001604052806000815260200160008152509056fea265627a7a72315820d6cc329614b32b81334003e90345cf9355b52b1dfc401f899c9a85a55a01fc7764736f6c63430005110032",
			"opcodes": "PUSH2 0x1069 PUSH2 0x26 PUSH1 0xB DUP3 DUP3 DUP3 CODECOPY DUP1 MLOAD PUSH1 0x0 BYTE PUSH1 0x73 EQ PUSH2 0x19 JUMPI INVALID JUMPDEST ADDRESS PUSH1 0x0 MSTORE PUSH1 0x73 DUP2 MSTORE8 DUP3 DUP2 RETURN INVALID PUSH20 0x0 ADDRESS EQ PUSH1 0x80 PUSH1 0x40 MSTORE PUSH1 0x4 CALLDATASIZE LT PUSH2 0x1B3 JUMPI PUSH1 0x0 CALLDATALOAD PUSH1 0xE0 SHR DUP1 PUSH4 0x8F2399D1 GT PUSH2 0x103 JUMPI DUP1 PUSH4 0xC3B9C2CA GT PUSH2 0xA1 JUMPI DUP1 PUSH4 0xD325C120 GT PUSH2 0x7B JUMPI DUP1 PUSH4 0xD325C120 EQ PUSH2 0x5C7 JUMPI DUP1 PUSH4 0xE3E44A4E EQ PUSH2 0x629 JUMPI DUP1 PUSH4 0xEC05C53A EQ PUSH2 0x67A JUMPI DUP1 PUSH4 0xF32FDA4C EQ PUSH2 0x48F JUMPI PUSH2 0x1B3 JUMP JUMPDEST DUP1 PUSH4 0xC3B9C2CA EQ PUSH2 0x568 JUMPI DUP1 PUSH4 0xC9621E7C EQ PUSH2 0x5C7 JUMPI DUP1 PUSH4 0xD0959375 EQ PUSH2 0x5FD JUMPI PUSH2 0x1B3 JUMP JUMPDEST DUP1 PUSH4 0xA97FFBE2 GT PUSH2 0xDD JUMPI DUP1 PUSH4 0xA97FFBE2 EQ PUSH2 0x504 JUMPI DUP1 PUSH4 0xAC0F9276 EQ PUSH2 0x220 JUMPI DUP1 PUSH4 0xB9FF4F84 EQ PUSH2 0x521 JUMPI DUP1 PUSH4 0xBC3E0600 EQ PUSH2 0x54B JUMPI PUSH2 0x1B3 JUMP JUMPDEST DUP1 PUSH4 0x8F2399D1 EQ PUSH2 0x419 JUMPI DUP1 PUSH4 0x9E53FB98 EQ PUSH2 0x48F JUMPI DUP1 PUSH4 0xA7453093 EQ PUSH2 0x4B2 JUMPI PUSH2 0x1B3 JUMP JUMPDEST DUP1 PUSH4 0x46948470 GT PUSH2 0x170 JUMPI DUP1 PUSH4 0x6A2D796B GT PUSH2 0x14A JUMPI DUP1 PUSH4 0x6A2D796B EQ PUSH2 0x37B JUMPI DUP1 PUSH4 0x740757C5 EQ PUSH2 0x3B6 JUMPI DUP1 PUSH4 0x8268C4EC EQ PUSH2 0x3D9 JUMPI DUP1 PUSH4 0x846D4C8C EQ PUSH2 0x3F6 JUMPI PUSH2 0x1B3 JUMP JUMPDEST DUP1 PUSH4 0x46948470 EQ PUSH2 0x305 JUMPI DUP1 PUSH4 0x4E5D4842 EQ PUSH2 0x322 JUMPI DUP1 PUSH4 0x5CEBB318 EQ PUSH2 0x345 JUMPI PUSH2 0x1B3 JUMP JUMPDEST DUP1 PUSH4 0x553BF35 EQ PUSH2 0x1B8 JUMPI DUP1 PUSH4 0x5C391FC EQ PUSH2 0x1D7 JUMPI DUP1 PUSH4 0x8A18DF3 EQ PUSH2 0x220 JUMPI DUP1 PUSH4 0x12E2656D EQ PUSH2 0x256 JUMPI DUP1 PUSH4 0x21F5CD03 EQ PUSH2 0x28D JUMPI DUP1 PUSH4 0x3B228BCF EQ PUSH2 0x2E2 JUMPI JUMPDEST PUSH1 0x0 DUP1 REVERT JUMPDEST PUSH2 0x1D5 PUSH1 0x4 DUP1 CALLDATASIZE SUB PUSH1 0x20 DUP2 LT ISZERO PUSH2 0x1CE JUMPI PUSH1 0x0 DUP1 REVERT JUMPDEST POP CALLDATALOAD PUSH2 0x697 JUMP JUMPDEST STOP JUMPDEST PUSH2 0x203 PUSH1 0x4 DUP1 CALLDATASIZE SUB PUSH1 0x60 DUP2 LT ISZERO PUSH2 0x1ED JUMPI PUSH1 0x0 DUP1 REVERT JUMPDEST POP DUP1 CALLDATALOAD SWAP1 PUSH1 0xFF PUSH1 0x20 DUP3 ADD CALLDATALOAD AND SWAP1 PUSH1 0x40 ADD CALLDATALOAD PUSH2 0x6F1 JUMP JUMPDEST PUSH1 0x40 DUP1 MLOAD PUSH1 0xFF SWAP1 SWAP4 AND DUP4 MSTORE SWAP1 ISZERO ISZERO PUSH1 0x20 DUP4 ADD MSTORE DUP1 MLOAD SWAP2 DUP3 SWAP1 SUB ADD SWAP1 RETURN JUMPDEST DUP2 DUP1 ISZERO PUSH2 0x22C JUMPI PUSH1 0x0 DUP1 REVERT JUMPDEST POP PUSH2 0x1D5 PUSH1 0x4 DUP1 CALLDATASIZE SUB PUSH1 0x60 DUP2 LT ISZERO PUSH2 0x243 JUMPI PUSH1 0x0 DUP1 REVERT JUMPDEST POP DUP1 CALLDATALOAD SWAP1 PUSH1 0x20 DUP2 ADD CALLDATALOAD SWAP1 PUSH1 0x40 ADD CALLDATALOAD PUSH2 0x745 JUMP JUMPDEST PUSH2 0x279 PUSH1 0x4 DUP1 CALLDATASIZE SUB PUSH1 0x40 DUP2 LT ISZERO PUSH2 0x26C JUMPI PUSH1 0x0 DUP1 REVERT JUMPDEST POP DUP1 CALLDATALOAD SWAP1 PUSH1 0x20 ADD CALLDATALOAD PUSH2 0x76C JUMP JUMPDEST PUSH1 0x40 DUP1 MLOAD SWAP2 ISZERO ISZERO DUP3 MSTORE MLOAD SWAP1 DUP2 SWAP1 SUB PUSH1 0x20 ADD SWAP1 RETURN JUMPDEST DUP2 DUP1 ISZERO PUSH2 0x299 JUMPI PUSH1 0x0 DUP1 REVERT JUMPDEST POP PUSH2 0x2CC PUSH1 0x4 DUP1 CALLDATASIZE SUB PUSH1 0x80 DUP2 LT ISZERO PUSH2 0x2B0 JUMPI PUSH1 0x0 DUP1 REVERT JUMPDEST POP DUP1 CALLDATALOAD SWAP1 PUSH1 0xFF PUSH1 0x20 DUP3 ADD CALLDATALOAD AND SWAP1 PUSH1 0x40 DUP2 ADD CALLDATALOAD SWAP1 PUSH1 0x60 ADD CALLDATALOAD PUSH2 0x782 JUMP JUMPDEST PUSH1 0x40 DUP1 MLOAD PUSH1 0xFF SWAP1 SWAP3 AND DUP3 MSTORE MLOAD SWAP1 DUP2 SWAP1 SUB PUSH1 0x20 ADD SWAP1 RETURN JUMPDEST PUSH2 0x1D5 PUSH1 0x4 DUP1 CALLDATASIZE SUB PUSH1 0x40 DUP2 LT ISZERO PUSH2 0x2F8 JUMPI PUSH1 0x0 DUP1 REVERT JUMPDEST POP DUP1 CALLDATALOAD SWAP1 PUSH1 0x20 ADD CALLDATALOAD PUSH2 0x888 JUMP JUMPDEST PUSH2 0x1D5 PUSH1 0x4 DUP1 CALLDATASIZE SUB PUSH1 0x20 DUP2 LT ISZERO PUSH2 0x31B JUMPI PUSH1 0x0 DUP1 REVERT JUMPDEST POP CALLDATALOAD PUSH2 0x8D2 JUMP JUMPDEST PUSH2 0x1D5 PUSH1 0x4 DUP1 CALLDATASIZE SUB PUSH1 0x40 DUP2 LT ISZERO PUSH2 0x338 JUMPI PUSH1 0x0 DUP1 REVERT JUMPDEST POP DUP1 CALLDATALOAD SWAP1 PUSH1 0x20 ADD CALLDATALOAD PUSH2 0x935 JUMP JUMPDEST PUSH2 0x362 PUSH1 0x4 DUP1 CALLDATASIZE SUB PUSH1 0x20 DUP2 LT ISZERO PUSH2 0x35B JUMPI PUSH1 0x0 DUP1 REVERT JUMPDEST POP CALLDATALOAD PUSH2 0x999 JUMP JUMPDEST PUSH1 0x40 DUP1 MLOAD SWAP3 DUP4 MSTORE PUSH1 0x20 DUP4 ADD SWAP2 SWAP1 SWAP2 MSTORE DUP1 MLOAD SWAP2 DUP3 SWAP1 SUB ADD SWAP1 RETURN JUMPDEST DUP2 DUP1 ISZERO PUSH2 0x387 JUMPI PUSH1 0x0 DUP1 REVERT JUMPDEST POP PUSH2 0x2CC PUSH1 0x4 DUP1 CALLDATASIZE SUB PUSH1 0x60 DUP2 LT ISZERO PUSH2 0x39E JUMPI PUSH1 0x0 DUP1 REVERT JUMPDEST POP DUP1 CALLDATALOAD SWAP1 PUSH1 0xFF PUSH1 0x20 DUP3 ADD CALLDATALOAD DUP2 AND SWAP2 PUSH1 0x40 ADD CALLDATALOAD AND PUSH2 0x9A5 JUMP JUMPDEST PUSH2 0x1D5 PUSH1 0x4 DUP1 CALLDATASIZE SUB PUSH1 0x40 DUP2 LT ISZERO PUSH2 0x3CC JUMPI PUSH1 0x0 DUP1 REVERT JUMPDEST POP DUP1 CALLDATALOAD SWAP1 PUSH1 0x20 ADD CALLDATALOAD PUSH2 0xA79 JUMP JUMPDEST PUSH2 0x1D5 PUSH1 0x4 DUP1 CALLDATASIZE SUB PUSH1 0x20 DUP2 LT ISZERO PUSH2 0x3EF JUMPI PUSH1 0x0 DUP1 REVERT JUMPDEST POP CALLDATALOAD PUSH2 0xAC0 JUMP JUMPDEST PUSH2 0x362 PUSH1 0x4 DUP1 CALLDATASIZE SUB PUSH1 0x40 DUP2 LT ISZERO PUSH2 0x40C JUMPI PUSH1 0x0 DUP1 REVERT JUMPDEST POP DUP1 CALLDATALOAD SWAP1 PUSH1 0x20 ADD CALLDATALOAD PUSH2 0xB11 JUMP JUMPDEST PUSH2 0x43F PUSH1 0x4 DUP1 CALLDATASIZE SUB PUSH1 0x40 DUP2 LT ISZERO PUSH2 0x42F JUMPI PUSH1 0x0 DUP1 REVERT JUMPDEST POP DUP1 CALLDATALOAD SWAP1 PUSH1 0x20 ADD CALLDATALOAD PUSH1 0xFF AND PUSH2 0xB42 JUMP JUMPDEST PUSH1 0x40 DUP1 MLOAD PUSH1 0x20 DUP1 DUP3 MSTORE DUP4 MLOAD DUP2 DUP4 ADD MSTORE DUP4 MLOAD SWAP2 SWAP3 DUP4 SWAP3 SWAP1 DUP4 ADD SWAP2 DUP6 DUP2 ADD SWAP2 MUL DUP1 DUP4 DUP4 PUSH1 0x0 JUMPDEST DUP4 DUP2 LT ISZERO PUSH2 0x47B JUMPI DUP2 DUP2 ADD MLOAD DUP4 DUP3 ADD MSTORE PUSH1 0x20 ADD PUSH2 0x463 JUMP JUMPDEST POP POP POP POP SWAP1 POP ADD SWAP3 POP POP POP PUSH1 0x40 MLOAD DUP1 SWAP2 SUB SWAP1 RETURN JUMPDEST PUSH2 0x1D5 PUSH1 0x4 DUP1 CALLDATASIZE SUB PUSH1 0x40 DUP2 LT ISZERO PUSH2 0x4A5 JUMPI PUSH1 0x0 DUP1 REVERT JUMPDEST POP DUP1 CALLDATALOAD SWAP1 PUSH1 0x20 ADD CALLDATALOAD PUSH2 0xBBB JUMP JUMPDEST PUSH2 0x4CF PUSH1 0x4 DUP1 CALLDATASIZE SUB PUSH1 0x20 DUP2 LT ISZERO PUSH2 0x4C8 JUMPI PUSH1 0x0 DUP1 REVERT JUMPDEST POP CALLDATALOAD PUSH2 0xBFC JUMP JUMPDEST PUSH1 0x40 DUP1 MLOAD SWAP7 DUP8 MSTORE PUSH1 0x20 DUP8 ADD SWAP6 SWAP1 SWAP6 MSTORE SWAP3 ISZERO ISZERO DUP6 DUP6 ADD MSTORE SWAP1 ISZERO ISZERO PUSH1 0x60 DUP6 ADD MSTORE ISZERO ISZERO PUSH1 0x80 DUP5 ADD MSTORE PUSH1 0xA0 DUP4 ADD MSTORE MLOAD SWAP1 DUP2 SWAP1 SUB PUSH1 0xC0 ADD SWAP1 RETURN JUMPDEST PUSH2 0x1D5 PUSH1 0x4 DUP1 CALLDATASIZE SUB PUSH1 0x20 DUP2 LT ISZERO PUSH2 0x51A JUMPI PUSH1 0x0 DUP1 REVERT JUMPDEST POP CALLDATALOAD PUSH2 0xC30 JUMP JUMPDEST DUP2 DUP1 ISZERO PUSH2 0x52D JUMPI PUSH1 0x0 DUP1 REVERT JUMPDEST POP PUSH2 0x1D5 PUSH1 0x4 DUP1 CALLDATASIZE SUB PUSH1 0x20 DUP2 LT ISZERO PUSH2 0x544 JUMPI PUSH1 0x0 DUP1 REVERT JUMPDEST POP CALLDATALOAD PUSH2 0xC87 JUMP JUMPDEST PUSH2 0x1D5 PUSH1 0x4 DUP1 CALLDATASIZE SUB PUSH1 0x20 DUP2 LT ISZERO PUSH2 0x561 JUMPI PUSH1 0x0 DUP1 REVERT JUMPDEST POP CALLDATALOAD PUSH2 0xC9B JUMP JUMPDEST DUP2 DUP1 ISZERO PUSH2 0x574 JUMPI PUSH1 0x0 DUP1 REVERT JUMPDEST POP PUSH2 0x1D5 PUSH1 0x4 DUP1 CALLDATASIZE SUB PUSH2 0x100 DUP2 LT ISZERO PUSH2 0x58C JUMPI PUSH1 0x0 DUP1 REVERT JUMPDEST POP DUP1 CALLDATALOAD SWAP1 PUSH1 0x20 DUP2 ADD CALLDATALOAD SWAP1 PUSH1 0x40 DUP2 ADD CALLDATALOAD SWAP1 PUSH1 0x60 DUP2 ADD CALLDATALOAD SWAP1 PUSH1 0x80 DUP2 ADD CALLDATALOAD SWAP1 PUSH1 0xA0 DUP2 ADD CALLDATALOAD ISZERO ISZERO SWAP1 PUSH1 0xC0 DUP2 ADD CALLDATALOAD ISZERO ISZERO SWAP1 PUSH1 0xE0 ADD CALLDATALOAD PUSH4 0xFFFFFFFF AND PUSH2 0xCFF JUMP JUMPDEST DUP2 DUP1 ISZERO PUSH2 0x5D3 JUMPI PUSH1 0x0 DUP1 REVERT JUMPDEST POP PUSH2 0x1D5 PUSH1 0x4 DUP1 CALLDATASIZE SUB PUSH1 0x60 DUP2 LT ISZERO PUSH2 0x5EA JUMPI PUSH1 0x0 DUP1 REVERT JUMPDEST POP DUP1 CALLDATALOAD SWAP1 PUSH1 0x20 DUP2 ADD CALLDATALOAD SWAP1 PUSH1 0x40 ADD CALLDATALOAD PUSH2 0xE5C JUMP JUMPDEST PUSH2 0x1D5 PUSH1 0x4 DUP1 CALLDATASIZE SUB PUSH1 0x40 DUP2 LT ISZERO PUSH2 0x613 JUMPI PUSH1 0x0 DUP1 REVERT JUMPDEST POP DUP1 CALLDATALOAD SWAP1 PUSH1 0x20 ADD CALLDATALOAD PUSH1 0x1 PUSH1 0x1 PUSH1 0xA0 SHL SUB AND PUSH2 0xE80 JUMP JUMPDEST PUSH2 0x646 PUSH1 0x4 DUP1 CALLDATASIZE SUB PUSH1 0x20 DUP2 LT ISZERO PUSH2 0x63F JUMPI PUSH1 0x0 DUP1 REVERT JUMPDEST POP CALLDATALOAD PUSH2 0xF36 JUMP JUMPDEST PUSH1 0x40 DUP1 MLOAD SWAP6 DUP7 MSTORE PUSH1 0x20 DUP7 ADD SWAP5 SWAP1 SWAP5 MSTORE PUSH4 0xFFFFFFFF SWAP3 DUP4 AND DUP6 DUP6 ADD MSTORE SWAP2 AND PUSH1 0x60 DUP5 ADD MSTORE ISZERO ISZERO PUSH1 0x80 DUP4 ADD MSTORE MLOAD SWAP1 DUP2 SWAP1 SUB PUSH1 0xA0 ADD SWAP1 RETURN JUMPDEST PUSH2 0x1D5 PUSH1 0x4 DUP1 CALLDATASIZE SUB PUSH1 0x20 DUP2 LT ISZERO PUSH2 0x690 JUMPI PUSH1 0x0 DUP1 REVERT JUMPDEST POP CALLDATALOAD PUSH2 0xF71 JUMP JUMPDEST DUP1 DUP2 PUSH1 0x1 ADD GT PUSH2 0x6EE JUMPI PUSH1 0x40 DUP1 MLOAD PUSH3 0x461BCD PUSH1 0xE5 SHL DUP2 MSTORE PUSH1 0x20 PUSH1 0x4 DUP3 ADD MSTORE PUSH1 0x18 PUSH1 0x24 DUP3 ADD MSTORE PUSH32 0x4C696D69742052656163686564202D204F766572666C6F770000000000000000 PUSH1 0x44 DUP3 ADD MSTORE SWAP1 MLOAD SWAP1 DUP2 SWAP1 SUB PUSH1 0x64 ADD SWAP1 REVERT JUMPDEST POP JUMP JUMPDEST PUSH1 0x0 DUP1 DUP4 JUMPDEST PUSH1 0xFF DUP2 AND ISZERO PUSH2 0x73C JUMPI PUSH1 0xFF DUP2 AND PUSH1 0x0 SWAP1 DUP2 MSTORE PUSH1 0x20 DUP8 SWAP1 MSTORE PUSH1 0x40 SWAP1 KECCAK256 SLOAD DUP5 EQ ISZERO PUSH2 0x721 JUMPI SWAP2 POP PUSH1 0x1 SWAP1 POP DUP1 JUMPDEST PUSH2 0x735 PUSH1 0xFF DUP3 AND PUSH1 0x1 PUSH4 0xFFFFFFFF PUSH2 0xFD5 AND JUMP JUMPDEST SWAP1 POP PUSH2 0x6F6 JUMP JUMPDEST POP SWAP4 POP SWAP4 SWAP2 POP POP JUMP JUMPDEST PUSH2 0x74F DUP2 DUP4 PUSH2 0x935 JUMP JUMPDEST POP PUSH1 0x0 SWAP1 DUP2 MSTORE PUSH1 0x20 SWAP2 SWAP1 SWAP2 MSTORE PUSH1 0x40 SWAP1 KECCAK256 DUP1 SLOAD PUSH1 0xFF NOT AND PUSH1 0x1 OR SWAP1 SSTORE JUMP JUMPDEST PUSH1 0x0 SWAP1 DUP2 MSTORE PUSH1 0x20 SWAP2 SWAP1 SWAP2 MSTORE PUSH1 0x40 SWAP1 KECCAK256 SLOAD PUSH1 0xFF AND SWAP1 JUMP JUMPDEST PUSH1 0x0 DUP1 PUSH1 0xFF DUP6 AND PUSH2 0x7A2 JUMPI POP PUSH1 0x4 DUP6 ADD SLOAD PUSH1 0x1 PUSH1 0x60 SHL SWAP1 DIV PUSH1 0xFF AND PUSH2 0x7BF JUMP JUMPDEST PUSH1 0xFF DUP6 AND PUSH1 0x1 EQ ISZERO PUSH2 0x7BF JUMPI POP PUSH1 0x4 DUP6 ADD SLOAD PUSH1 0x1 PUSH1 0x60 SHL SWAP1 DIV PUSH1 0xFF AND JUMPDEST PUSH2 0x7D3 PUSH1 0xFF DUP3 AND PUSH1 0x1 PUSH4 0xFFFFFFFF PUSH2 0xFF0 AND JUMP JUMPDEST SWAP2 POP PUSH1 0xFF DUP6 AND PUSH2 0x851 JUMPI PUSH2 0x7E5 PUSH2 0x101A JUMP JUMPDEST POP PUSH1 0x40 DUP1 MLOAD DUP1 DUP3 ADD DUP3 MSTORE DUP6 DUP2 MSTORE PUSH1 0x20 DUP1 DUP3 ADD DUP7 DUP2 MSTORE PUSH1 0xFF DUP7 AND PUSH1 0x0 DUP2 DUP2 MSTORE PUSH1 0x5 DUP13 ADD DUP5 MSTORE DUP6 DUP2 KECCAK256 SWAP5 MLOAD DUP6 SSTORE SWAP2 MLOAD PUSH1 0x1 SWAP5 DUP6 ADD SSTORE PUSH1 0x4 DUP12 ADD DUP1 SLOAD PUSH1 0xFF PUSH1 0x60 SHL NOT AND PUSH1 0x1 PUSH1 0x60 SHL SWAP1 SWAP3 MUL SWAP2 SWAP1 SWAP2 OR SWAP1 SSTORE DUP8 DUP2 MSTORE PUSH1 0x6 DUP11 ADD SWAP1 SWAP2 MSTORE SWAP2 SWAP1 SWAP2 KECCAK256 DUP1 SLOAD PUSH1 0xFF NOT AND SWAP1 SWAP2 OR SWAP1 SSTORE PUSH2 0x87F JUMP JUMPDEST PUSH1 0xFF DUP6 AND PUSH1 0x1 EQ ISZERO PUSH2 0x87F JUMPI PUSH1 0x40 DUP1 MLOAD DUP1 DUP3 ADD SWAP1 SWAP2 MSTORE DUP5 DUP2 MSTORE PUSH1 0x20 ADD DUP4 SWAP1 MSTORE PUSH1 0x2 DUP7 ADD DUP5 SWAP1 SSTORE PUSH1 0x3 DUP7 ADD DUP4 SWAP1 SSTORE JUMPDEST POP SWAP5 SWAP4 POP POP POP POP JUMP JUMPDEST DUP1 DUP3 GT ISZERO PUSH2 0x8CE JUMPI PUSH1 0x40 DUP1 MLOAD PUSH3 0x461BCD PUSH1 0xE5 SHL DUP2 MSTORE PUSH1 0x20 PUSH1 0x4 DUP3 ADD MSTORE PUSH1 0xE PUSH1 0x24 DUP3 ADD MSTORE PUSH14 0x125D195B48139BDD08119BDD5B99 PUSH1 0x92 SHL PUSH1 0x44 DUP3 ADD MSTORE SWAP1 MLOAD SWAP1 DUP2 SWAP1 SUB PUSH1 0x64 ADD SWAP1 REVERT JUMPDEST POP POP JUMP JUMPDEST PUSH1 0x4 DUP2 ADD SLOAD PUSH4 0x1000000 SWAP1 DIV PUSH4 0xFFFFFFFF AND PUSH2 0x6EE JUMPI PUSH1 0x40 DUP1 MLOAD PUSH3 0x461BCD PUSH1 0xE5 SHL DUP2 MSTORE PUSH1 0x20 PUSH1 0x4 DUP3 ADD MSTORE PUSH1 0x1B PUSH1 0x24 DUP3 ADD MSTORE PUSH32 0x4974656D205374616D70696E67204E6F7420496E697469617465640000000000 PUSH1 0x44 DUP3 ADD MSTORE SWAP1 MLOAD SWAP1 DUP2 SWAP1 SUB PUSH1 0x64 ADD SWAP1 REVERT JUMPDEST PUSH1 0x0 DUP2 DUP2 MSTORE PUSH1 0x20 DUP4 SWAP1 MSTORE PUSH1 0x40 SWAP1 KECCAK256 SLOAD PUSH1 0xFF AND ISZERO PUSH2 0x8CE JUMPI PUSH1 0x40 DUP1 MLOAD PUSH3 0x461BCD PUSH1 0xE5 SHL DUP2 MSTORE PUSH1 0x20 PUSH1 0x4 DUP3 ADD MSTORE PUSH1 0x1C PUSH1 0x24 DUP3 ADD MSTORE PUSH32 0x45494E20696E20626C61636B6C697374202F2077686974656C69737400000000 PUSH1 0x44 DUP3 ADD MSTORE SWAP1 MLOAD SWAP1 DUP2 SWAP1 SUB PUSH1 0x64 ADD SWAP1 REVERT JUMPDEST DUP1 SLOAD PUSH1 0x1 SWAP1 SWAP2 ADD SLOAD SWAP1 SWAP2 JUMP JUMPDEST PUSH1 0x0 PUSH1 0xFF DUP4 AND PUSH2 0xA42 JUMPI PUSH1 0x4 DUP5 ADD SLOAD PUSH2 0x9C9 SWAP1 PUSH1 0x1 PUSH1 0x60 SHL SWAP1 DIV PUSH1 0xFF AND PUSH1 0x1 PUSH2 0xFD5 JUMP JUMPDEST PUSH1 0xFF DUP4 DUP2 AND PUSH1 0x0 DUP2 DUP2 MSTORE PUSH1 0x5 DUP9 ADD PUSH1 0x20 DUP2 DUP2 MSTORE PUSH1 0x40 DUP1 DUP5 KECCAK256 DUP1 SLOAD DUP6 MSTORE PUSH1 0x6 DUP13 ADD DUP4 MSTORE DUP2 DUP6 KECCAK256 DUP1 SLOAD PUSH1 0xFF NOT AND SWAP1 SSTORE PUSH1 0x4 DUP13 ADD DUP1 SLOAD PUSH1 0x1 PUSH1 0x60 SHL SWAP1 DUP2 SWAP1 DIV DUP10 AND DUP8 MSTORE SWAP5 SWAP1 SWAP4 MSTORE SWAP1 DUP5 KECCAK256 SWAP5 SWAP1 SWAP4 MSTORE DUP4 SLOAD DUP4 SSTORE PUSH1 0x1 SWAP4 DUP5 ADD SLOAD SWAP4 SWAP1 SWAP3 ADD SWAP3 SWAP1 SWAP3 SSTORE DUP1 SLOAD PUSH1 0xFF PUSH1 0x60 SHL NOT AND SWAP3 DUP5 AND SWAP1 SWAP2 MUL SWAP2 SWAP1 SWAP2 OR SWAP1 SSTORE SWAP1 POP PUSH2 0xA72 JUMP JUMPDEST PUSH1 0xFF DUP4 AND PUSH1 0x1 EQ ISZERO PUSH2 0xA72 JUMPI PUSH1 0x40 DUP1 MLOAD DUP1 DUP3 ADD SWAP1 SWAP2 MSTORE PUSH1 0x0 DUP1 DUP3 MSTORE PUSH1 0x20 SWAP1 SWAP2 ADD DUP2 SWAP1 MSTORE PUSH1 0x2 DUP6 ADD DUP2 SWAP1 SSTORE PUSH1 0x3 DUP6 ADD SSTORE JUMPDEST SWAP4 SWAP3 POP POP POP JUMP JUMPDEST DUP2 SLOAD DUP2 EQ PUSH2 0x8CE JUMPI PUSH1 0x40 DUP1 MLOAD PUSH3 0x461BCD PUSH1 0xE5 SHL DUP2 MSTORE PUSH1 0x20 PUSH1 0x4 DUP3 ADD MSTORE PUSH1 0xF PUSH1 0x24 DUP3 ADD MSTORE PUSH15 0x27B7363C902334B6329027BBB732B9 PUSH1 0x89 SHL PUSH1 0x44 DUP3 ADD MSTORE SWAP1 MLOAD SWAP1 DUP2 SWAP1 SUB PUSH1 0x64 ADD SWAP1 REVERT JUMPDEST PUSH1 0x4 DUP2 ADD SLOAD PUSH1 0xFF AND ISZERO ISZERO PUSH1 0x1 EQ PUSH2 0x6EE JUMPI PUSH1 0x40 DUP1 MLOAD PUSH3 0x461BCD PUSH1 0xE5 SHL DUP2 MSTORE PUSH1 0x20 PUSH1 0x4 DUP3 ADD MSTORE PUSH1 0x10 PUSH1 0x24 DUP3 ADD MSTORE PUSH16 0x4974656D206973206E6F742046696C65 PUSH1 0x80 SHL PUSH1 0x44 DUP3 ADD MSTORE SWAP1 MLOAD SWAP1 DUP2 SWAP1 SUB PUSH1 0x64 ADD SWAP1 REVERT JUMPDEST DUP2 DUP2 PUSH1 0x1 DUP2 ADD PUSH2 0xB37 JUMPI PUSH2 0xB2C DUP3 PUSH1 0x1 PUSH4 0xFFFFFFFF PUSH2 0x1008 AND JUMP JUMPDEST SWAP2 POP PUSH1 0x0 SWAP1 POP PUSH2 0xB3B JUMP JUMPDEST PUSH1 0x1 ADD JUMPDEST SWAP3 POP SWAP3 SWAP1 POP JUMP JUMPDEST PUSH1 0x60 PUSH1 0x0 DUP3 JUMPDEST PUSH1 0xFF DUP2 AND ISZERO PUSH2 0xBB3 JUMPI PUSH1 0xFF DUP1 DUP3 AND PUSH1 0x0 SWAP1 DUP2 MSTORE PUSH1 0x20 DUP8 SWAP1 MSTORE PUSH1 0x40 SWAP1 KECCAK256 SLOAD DUP5 MLOAD SWAP1 SWAP2 DUP6 SWAP2 SWAP1 DUP6 AND SWAP1 DUP2 LT PUSH2 0xB77 JUMPI INVALID JUMPDEST PUSH1 0x20 SWAP1 DUP2 MUL SWAP2 SWAP1 SWAP2 ADD ADD MSTORE PUSH2 0xB96 PUSH1 0xFF DUP4 AND PUSH1 0x1 PUSH4 0xFFFFFFFF PUSH2 0xFF0 AND JUMP JUMPDEST SWAP2 POP PUSH2 0xBAC PUSH1 0xFF DUP3 AND PUSH1 0x1 PUSH4 0xFFFFFFFF PUSH2 0xFD5 AND JUMP JUMPDEST SWAP1 POP PUSH2 0xB48 JUMP JUMPDEST POP POP SWAP3 SWAP2 POP POP JUMP JUMPDEST DUP1 DUP3 EQ ISZERO PUSH2 0x8CE JUMPI PUSH1 0x40 DUP1 MLOAD PUSH3 0x461BCD PUSH1 0xE5 SHL DUP2 MSTORE PUSH1 0x20 PUSH1 0x4 DUP3 ADD MSTORE PUSH1 0x9 PUSH1 0x24 DUP3 ADD MSTORE PUSH9 0x53616D652045494E73 PUSH1 0xB8 SHL PUSH1 0x44 DUP3 ADD MSTORE SWAP1 MLOAD SWAP1 DUP2 SWAP1 SUB PUSH1 0x64 ADD SWAP1 REVERT JUMPDEST DUP1 SLOAD PUSH1 0x1 DUP3 ADD SLOAD PUSH1 0x4 SWAP1 SWAP3 ADD SLOAD SWAP1 SWAP3 PUSH1 0xFF DUP1 DUP4 AND SWAP3 PUSH2 0x100 DUP2 DIV DUP3 AND SWAP3 PUSH3 0x10000 DUP3 DIV DUP4 AND SWAP3 PUSH1 0x1 PUSH1 0x60 SHL SWAP1 SWAP3 DIV SWAP1 SWAP2 AND SWAP1 JUMP JUMPDEST DUP1 PUSH1 0x1 DUP3 SUB LT PUSH2 0x6EE JUMPI PUSH1 0x40 DUP1 MLOAD PUSH3 0x461BCD PUSH1 0xE5 SHL DUP2 MSTORE PUSH1 0x20 PUSH1 0x4 DUP3 ADD MSTORE PUSH1 0x19 PUSH1 0x24 DUP3 ADD MSTORE PUSH32 0x4C696D69742052656163686564202D20556E646572666C6F7700000000000000 PUSH1 0x44 DUP3 ADD MSTORE SWAP1 MLOAD SWAP1 DUP2 SWAP1 SUB PUSH1 0x64 ADD SWAP1 REVERT JUMPDEST PUSH1 0x4 ADD DUP1 SLOAD PUSH3 0xFF0000 NOT AND PUSH3 0x10000 OR SWAP1 SSTORE JUMP JUMPDEST PUSH1 0x4 DUP2 ADD SLOAD PUSH1 0x1 PUSH1 0x38 SHL SWAP1 DIV PUSH4 0xFFFFFFFF AND ISZERO PUSH2 0x6EE JUMPI PUSH1 0x40 DUP1 MLOAD PUSH3 0x461BCD PUSH1 0xE5 SHL DUP2 MSTORE PUSH1 0x20 PUSH1 0x4 DUP3 ADD MSTORE PUSH1 0x1A PUSH1 0x24 DUP3 ADD MSTORE PUSH32 0x4974656D205374616D70696E6720697320436F6D706C65746564000000000000 PUSH1 0x44 DUP3 ADD MSTORE SWAP1 MLOAD SWAP1 DUP2 SWAP1 SUB PUSH1 0x64 ADD SWAP1 REVERT JUMPDEST PUSH1 0x40 DUP1 MLOAD PUSH2 0x160 DUP2 ADD DUP3 MSTORE PUSH2 0x120 DUP2 ADD SWAP7 DUP8 MSTORE PUSH2 0x140 DUP2 ADD SWAP6 SWAP1 SWAP6 MSTORE SWAP5 DUP5 MSTORE DUP5 MLOAD DUP1 DUP7 ADD DUP7 MSTORE PUSH1 0x0 DUP1 DUP3 MSTORE PUSH1 0x20 DUP1 DUP4 ADD DUP3 SWAP1 MSTORE DUP1 DUP8 ADD SWAP3 DUP4 MSTORE SWAP5 ISZERO ISZERO DUP7 DUP9 ADD SWAP1 DUP2 MSTORE SWAP4 ISZERO ISZERO PUSH1 0x60 DUP8 ADD SWAP1 DUP2 MSTORE PUSH1 0x80 DUP8 ADD DUP3 DUP2 MSTORE PUSH4 0xFFFFFFFF SWAP5 DUP6 AND PUSH1 0xA0 DUP10 ADD SWAP1 DUP2 MSTORE PUSH1 0xC0 DUP10 ADD DUP5 DUP2 MSTORE PUSH1 0xE0 DUP11 ADD DUP6 DUP2 MSTORE PUSH2 0x100 DUP1 DUP13 ADD DUP8 DUP2 MSTORE SWAP15 DUP8 MSTORE SWAP15 DUP11 MSTORE DUP12 DUP7 KECCAK256 SWAP13 DUP7 MSTORE SWAP12 DUP10 MSTORE SWAP10 SWAP1 SWAP4 KECCAK256 SWAP8 MLOAD DUP1 MLOAD DUP10 SSTORE DUP8 ADD MLOAD PUSH1 0x1 DUP10 ADD SSTORE SWAP3 MLOAD DUP1 MLOAD PUSH1 0x2 DUP10 ADD SSTORE SWAP1 SWAP6 ADD MLOAD PUSH1 0x3 DUP8 ADD SSTORE SWAP3 MLOAD PUSH1 0x4 SWAP1 SWAP6 ADD DUP1 SLOAD SWAP5 MLOAD SWAP2 MLOAD SWAP4 MLOAD SWAP7 MLOAD SWAP8 MLOAD SWAP9 MLOAD PUSH1 0xFF NOT SWAP6 SWAP1 SWAP6 AND SWAP6 ISZERO ISZERO SWAP6 SWAP1 SWAP6 OR PUSH2 0xFF00 NOT AND SWAP1 ISZERO ISZERO SWAP1 SWAP9 MUL SWAP8 SWAP1 SWAP8 OR PUSH3 0xFF0000 NOT AND PUSH3 0x10000 SWAP2 ISZERO ISZERO SWAP2 SWAP1 SWAP2 MUL OR PUSH7 0xFFFFFFFF000000 NOT AND PUSH4 0x1000000 SWAP4 DUP8 AND SWAP4 SWAP1 SWAP4 MUL SWAP3 SWAP1 SWAP3 OR PUSH11 0xFFFFFFFF00000000000000 NOT AND PUSH1 0x1 PUSH1 0x38 SHL SWAP4 SWAP1 SWAP6 AND SWAP3 SWAP1 SWAP3 MUL SWAP4 SWAP1 SWAP4 OR PUSH1 0xFF PUSH1 0x58 SHL NOT AND PUSH1 0x1 PUSH1 0x58 SHL SWAP3 ISZERO ISZERO SWAP3 SWAP1 SWAP3 MUL SWAP2 SWAP1 SWAP2 OR PUSH1 0xFF PUSH1 0x60 SHL NOT AND PUSH1 0x1 PUSH1 0x60 SHL PUSH1 0xFF SWAP1 SWAP4 AND SWAP3 SWAP1 SWAP3 MUL SWAP2 SWAP1 SWAP2 OR SWAP1 SSTORE JUMP JUMPDEST PUSH2 0xE66 DUP2 DUP4 PUSH2 0x935 JUMP JUMPDEST POP PUSH1 0x0 SWAP1 DUP2 MSTORE PUSH1 0x20 SWAP2 SWAP1 SWAP2 MSTORE PUSH1 0x40 SWAP1 KECCAK256 DUP1 SLOAD PUSH1 0xFF NOT AND SWAP1 SSTORE JUMP JUMPDEST DUP1 PUSH1 0x1 PUSH1 0x1 PUSH1 0xA0 SHL SUB AND PUSH4 0x5B5AED3A DUP4 PUSH1 0x40 MLOAD DUP3 PUSH4 0xFFFFFFFF AND PUSH1 0xE0 SHL DUP2 MSTORE PUSH1 0x4 ADD DUP1 DUP3 DUP2 MSTORE PUSH1 0x20 ADD SWAP2 POP POP PUSH1 0x20 PUSH1 0x40 MLOAD DUP1 DUP4 SUB DUP2 DUP7 DUP1 EXTCODESIZE ISZERO DUP1 ISZERO PUSH2 0xEC4 JUMPI PUSH1 0x0 DUP1 REVERT JUMPDEST POP GAS STATICCALL ISZERO DUP1 ISZERO PUSH2 0xED8 JUMPI RETURNDATASIZE PUSH1 0x0 DUP1 RETURNDATACOPY RETURNDATASIZE PUSH1 0x0 REVERT JUMPDEST POP POP POP POP PUSH1 0x40 MLOAD RETURNDATASIZE PUSH1 0x20 DUP2 LT ISZERO PUSH2 0xEEE JUMPI PUSH1 0x0 DUP1 REVERT JUMPDEST POP MLOAD ISZERO ISZERO PUSH1 0x1 EQ PUSH2 0x8CE JUMPI PUSH1 0x40 DUP1 MLOAD PUSH3 0x461BCD PUSH1 0xE5 SHL DUP2 MSTORE PUSH1 0x20 PUSH1 0x4 DUP3 ADD MSTORE PUSH1 0xD PUSH1 0x24 DUP3 ADD MSTORE PUSH13 0x115253881B9BDD08119BDD5B99 PUSH1 0x9A SHL PUSH1 0x44 DUP3 ADD MSTORE SWAP1 MLOAD SWAP1 DUP2 SWAP1 SUB PUSH1 0x64 ADD SWAP1 REVERT JUMPDEST PUSH1 0x2 DUP2 ADD SLOAD PUSH1 0x3 DUP3 ADD SLOAD PUSH1 0x4 SWAP1 SWAP3 ADD SLOAD SWAP1 SWAP3 PUSH4 0x1000000 DUP3 DIV PUSH4 0xFFFFFFFF SWAP1 DUP2 AND SWAP3 PUSH1 0x1 PUSH1 0x38 SHL DUP2 DIV SWAP1 SWAP2 AND SWAP2 PUSH1 0x1 PUSH1 0x58 SHL SWAP1 SWAP2 DIV PUSH1 0xFF AND SWAP1 JUMP JUMPDEST PUSH1 0x4 DUP2 ADD SLOAD PUSH4 0x1000000 SWAP1 DIV PUSH4 0xFFFFFFFF AND ISZERO PUSH2 0x6EE JUMPI PUSH1 0x40 DUP1 MLOAD PUSH3 0x461BCD PUSH1 0xE5 SHL DUP2 MSTORE PUSH1 0x20 PUSH1 0x4 DUP3 ADD MSTORE PUSH1 0x17 PUSH1 0x24 DUP3 ADD MSTORE PUSH32 0x4974656D205374616D70696E6720496E69746961746564000000000000000000 PUSH1 0x44 DUP3 ADD MSTORE SWAP1 MLOAD SWAP1 DUP2 SWAP1 SUB PUSH1 0x64 ADD SWAP1 REVERT JUMPDEST PUSH1 0x0 DUP3 PUSH1 0xFF AND DUP3 PUSH1 0xFF AND GT ISZERO PUSH2 0xFEA JUMPI PUSH1 0x0 DUP1 REVERT JUMPDEST POP SWAP1 SUB SWAP1 JUMP JUMPDEST PUSH1 0x0 DUP3 DUP3 ADD PUSH1 0xFF DUP1 DUP6 AND SWAP1 DUP3 AND LT ISZERO PUSH2 0xA72 JUMPI PUSH1 0x0 DUP1 REVERT JUMPDEST PUSH1 0x0 DUP3 DUP3 ADD DUP4 DUP2 LT ISZERO PUSH2 0xA72 JUMPI PUSH1 0x0 DUP1 REVERT JUMPDEST PUSH1 0x40 MLOAD DUP1 PUSH1 0x40 ADD PUSH1 0x40 MSTORE DUP1 PUSH1 0x0 DUP2 MSTORE PUSH1 0x20 ADD PUSH1 0x0 DUP2 MSTORE POP SWAP1 JUMP INVALID LOG2 PUSH6 0x627A7A723158 KECCAK256 0xD6 0xCC ORIGIN SWAP7 EQ 0xB3 0x2B DUP2 CALLER BLOCKHASH SUB 0xE9 SUB GASLIMIT 0xCF SWAP4 SSTORE 0xB5 0x2B SAR 0xFC BLOCKHASH 0x1F DUP10 SWAP13 SWAP11 DUP6 0xA5 GAS ADD 0xFC PUSH24 0x64736F6C6343000511003200000000000000000000000000 "
		},
		"gasEstimates": {
			"creation": {
				"codeDepositCost": "840200",
				"executionCost": "902",
				"totalCost": "841102"
			},
			"external": {
				"addItemToGlobalItems(mapping(uint256 => mapping(uint256 => IceGlobal.Association)) storage,uint256,uint256,uint256,uint256,bool,bool,uint32)": "72120",
				"addToBlacklist(mapping(uint256 => bool) storage,uint256,mapping(uint256 => bool) storage)": "22119",
				"addToGlobalItemsMapping(IceGlobal.Association storage,uint8,uint256,uint256)": "infinite",
				"addToWhitelist(mapping(uint256 => bool) storage,uint256,mapping(uint256 => bool) storage)": "22120",
				"condCheckOverflow(uint256)": "324",
				"condCheckUnderflow(uint256)": "345",
				"condEINExists(uint256,IdentityRegistryInterface)": "infinite",
				"condItemIsFile(IceGlobal.Association storage)": "1207",
				"condItemOwner(IceGlobal.Association storage,uint256)": "1182",
				"condNotInList(mapping(uint256 => bool) storage,uint256)": "1249",
				"condStampedItem(IceGlobal.Association storage)": "1157",
				"condUncompleteStamping(IceGlobal.Association storage)": "1231",
				"condUniqueEIN(uint256,uint256)": "428",
				"condUnstampedItem(IceGlobal.Association storage)": "1202",
				"condValidEIN(uint256,uint256)": "386",
				"condValidItem(uint256,uint256)": "452",
				"deleteGlobalRecord(IceGlobal.Association storage)": "21111",
				"findItemOwnerInGlobalItems(mapping(uint8 => IceGlobal.ItemOwner) storage,uint8,uint256)": "infinite",
				"getGlobalIndexesViaRecord(IceGlobal.GlobalRecord storage)": "1953",
				"getGlobalItems(IceGlobal.Association storage)": "2933",
				"getGlobalItemsStampingInfo(IceGlobal.Association storage)": "2897",
				"getHistoralEINsForGlobalItems(mapping(uint8 => IceGlobal.ItemOwner) storage,uint8)": "infinite",
				"isUserInList(mapping(uint256 => bool) storage,uint256)": "1213",
				"removeFromBlacklist(mapping(uint256 => bool) storage,uint256,mapping(uint256 => bool) storage)": "22090",
				"removeFromGlobalItemsMapping(IceGlobal.Association storage,uint8,uint8)": "86501",
				"removeFromWhitelist(mapping(uint256 => bool) storage,uint256,mapping(uint256 => bool) storage)": "22113",
				"reserveGlobalItemSlot(uint256,uint256)": "infinite"
			},
			"internal": {
				"getGlobalItemViaRecord(struct IceGlobal.GlobalRecord storage pointer,mapping(uint256 => mapping(uint256 => struct IceGlobal.Association storage ref)))": "infinite"
			}
		},
		"methodIdentifiers": {
			"addItemToGlobalItems(mapping(uint256 => mapping(uint256 => IceGlobal.Association)) storage,uint256,uint256,uint256,uint256,bool,bool,uint32)": "c3b9c2ca",
			"addToBlacklist(mapping(uint256 => bool) storage,uint256,mapping(uint256 => bool) storage)": "ac0f9276",
			"addToGlobalItemsMapping(IceGlobal.Association storage,uint8,uint256,uint256)": "21f5cd03",
			"addToWhitelist(mapping(uint256 => bool) storage,uint256,mapping(uint256 => bool) storage)": "08a18df3",
			"condCheckOverflow(uint256)": "0553bf35",
			"condCheckUnderflow(uint256)": "a97ffbe2",
			"condEINExists(uint256,IdentityRegistryInterface)": "d0959375",
			"condItemIsFile(IceGlobal.Association storage)": "8268c4ec",
			"condItemOwner(IceGlobal.Association storage,uint256)": "740757c5",
			"condNotInList(mapping(uint256 => bool) storage,uint256)": "4e5d4842",
			"condStampedItem(IceGlobal.Association storage)": "46948470",
			"condUncompleteStamping(IceGlobal.Association storage)": "bc3e0600",
			"condUniqueEIN(uint256,uint256)": "f32fda4c",
			"condUnstampedItem(IceGlobal.Association storage)": "ec05c53a",
			"condValidEIN(uint256,uint256)": "9e53fb98",
			"condValidItem(uint256,uint256)": "3b228bcf",
			"deleteGlobalRecord(IceGlobal.Association storage)": "b9ff4f84",
			"findItemOwnerInGlobalItems(mapping(uint8 => IceGlobal.ItemOwner) storage,uint8,uint256)": "05c391fc",
			"getGlobalIndexesViaRecord(IceGlobal.GlobalRecord storage)": "5cebb318",
			"getGlobalItems(IceGlobal.Association storage)": "a7453093",
			"getGlobalItemsStampingInfo(IceGlobal.Association storage)": "e3e44a4e",
			"getHistoralEINsForGlobalItems(mapping(uint8 => IceGlobal.ItemOwner) storage,uint8)": "8f2399d1",
			"isUserInList(mapping(uint256 => bool) storage,uint256)": "12e2656d",
			"removeFromBlacklist(mapping(uint256 => bool) storage,uint256,mapping(uint256 => bool) storage)": "d325c120",
			"removeFromGlobalItemsMapping(IceGlobal.Association storage,uint8,uint8)": "6a2d796b",
			"removeFromWhitelist(mapping(uint256 => bool) storage,uint256,mapping(uint256 => bool) storage)": "c9621e7c",
			"reserveGlobalItemSlot(uint256,uint256)": "846d4c8c"
		}
	},
	"abi": [
		{
			"constant": true,
			"inputs": [
				{
					"internalType": "uint256",
					"name": "index",
					"type": "uint256"
				}
			],
			"name": "condCheckOverflow",
			"outputs": [],
			"payable": false,
			"stateMutability": "view",
			"type": "function"
		},
		{
			"constant": true,
			"inputs": [
				{
					"internalType": "uint256",
					"name": "index",
					"type": "uint256"
				}
			],
			"name": "condCheckUnderflow",
			"outputs": [],
			"payable": false,
			"stateMutability": "view",
			"type": "function"
		},
		{
			"constant": true,
			"inputs": [
				{
					"internalType": "uint256",
					"name": "_ein",
					"type": "uint256"
				},
				{
					"internalType": "contract IdentityRegistryInterface",
					"name": "_identityRegistry",
					"type": "IdentityRegistryInterface"
				}
			],
			"name": "condEINExists",
			"outputs": [],
			"payable": false,
			"stateMutability": "view",
			"type": "function"
		},
		{
			"constant": true,
			"inputs": [
				{
					"internalType": "uint256",
					"name": "_ein1",
					"type": "uint256"
				},
				{
					"internalType": "uint256",
					"name": "_ein2",
					"type": "uint256"
				}
			],
			"name": "condUniqueEIN",
			"outputs": [],
			"payable": false,
			"stateMutability": "view",
			"type": "function"
		},
		{
			"constant": true,
			"inputs": [
				{
					"internalType": "uint256",
					"name": "_ein1",
					"type": "uint256"
				},
				{
					"internalType": "uint256",
					"name": "_ein2",
					"type": "uint256"
				}
			],
			"name": "condValidEIN",
			"outputs": [],
			"payable": false,
			"stateMutability": "view",
			"type": "function"
		},
		{
			"constant": true,
			"inputs": [
				{
					"internalType": "uint256",
					"name": "_itemIndex",
					"type": "uint256"
				},
				{
					"internalType": "uint256",
					"name": "_itemCount",
					"type": "uint256"
				}
			],
			"name": "condValidItem",
			"outputs": [],
			"payable": false,
			"stateMutability": "view",
			"type": "function"
		},
		{
			"constant": true,
			"inputs": [
				{
					"internalType": "uint256",
					"name": "index1",
					"type": "uint256"
				},
				{
					"internalType": "uint256",
					"name": "index2",
					"type": "uint256"
				}
			],
			"name": "reserveGlobalItemSlot",
			"outputs": [
				{
					"internalType": "uint256",
					"name": "globalIndex1",
					"type": "uint256"
				},
				{
					"internalType": "uint256",
					"name": "globalIndex2",
					"type": "uint256"
				}
			],
			"payable": false,
			"stateMutability": "view",
			"type": "function"
		}
	]
}