{
	"data": {
		"bytecode": {
			"linkReferences": {
				"Ice_flat.sol": {
					"IceFMSAdv": [
						{
							"length": 20,
							"start": 5067
						},
						{
							"length": 20,
							"start": 9901
						}
					],
					"IceGlobal": [
						{
							"length": 20,
							"start": 3333
						},
						{
							"length": 20,
							"start": 4261
						},
						{
							"length": 20,
							"start": 4888
						},
						{
							"length": 20,
							"start": 5152
						},
						{
							"length": 20,
							"start": 5674
						},
						{
							"length": 20,
							"start": 5757
						},
						{
							"length": 20,
							"start": 5912
						},
						{
							"length": 20,
							"start": 6033
						},
						{
							"length": 20,
							"start": 6225
						},
						{
							"length": 20,
							"start": 6372
						},
						{
							"length": 20,
							"start": 6871
						},
						{
							"length": 20,
							"start": 7010
						},
						{
							"length": 20,
							"start": 7144
						},
						{
							"length": 20,
							"start": 7343
						},
						{
							"length": 20,
							"start": 7423
						},
						{
							"length": 20,
							"start": 7989
						},
						{
							"length": 20,
							"start": 9295
						},
						{
							"length": 20,
							"start": 9985
						},
						{
							"length": 20,
							"start": 10707
						},
						{
							"length": 20,
							"start": 10811
						},
						{
							"length": 20,
							"start": 11282
						},
						{
							"length": 20,
							"start": 11922
						},
						{
							"length": 20,
							"start": 12174
						}
					],
					"IceSort": [
						{
							"length": 20,
							"start": 3612
						},
						{
							"length": 20,
							"start": 4695
						},
						{
							"length": 20,
							"start": 5385
						},
						{
							"length": 20,
							"start": 6770
						},
						{
							"length": 20,
							"start": 7574
						},
						{
							"length": 20,
							"start": 8749
						},
						{
							"length": 20,
							"start": 9636
						},
						{
							"length": 20,
							"start": 10565
						},
						{
							"length": 20,
							"start": 11075
						},
						{
							"length": 20,
							"start": 11764
						},
						{
							"length": 20,
							"start": 12462
						}
					]
				}
			},
			"object": "613373610026600b82828239805160001a60731461001957fe5b30600052607381538281f3fe73000000000000000000000000000000000000000030146080604052600436106101d95760003560e01c8063a1b8ebb91161010e578063c7bf45e6116100ac578063de6bf6951161007b578063de6bf69514610b37578063e730a13114610bf5578063f74506d314610c4a578063fcdf96a614610c86576101d9565b8063c7bf45e614610a0e578063cbe6daf414610a53578063cfb5192814610a70578063d3587cba14610b14576101d9565b8063bac97b40116100e8578063bac97b40146108ae578063bc5103a2146108f6578063be6d9f131461097e578063c693ba1e146109cc576101d9565b8063a1b8ebb914610826578063a28f7d3c1461086e578063a31b1e2a14610891576101d9565b80636557ed991161017b5780638289d66c116101555780638289d66c1461068a5780639201de55146106e25780639e521be414610774578063a162dd3d146107bc576101d9565b80636557ed99146105c257806369e39b90146106115780637670e3ea1461066d576101d9565b80633b8b92bf116101b75780633b8b92bf1461032a5780633edbc2cd1461039757806340cea0c2146104d85780634519a00c14610580576101d9565b806305bd3922146101de5780632118d33b1461026e578063331d6ab9146102c3575b600080fd5b8180156101ea57600080fd5b5061026c6004803603608081101561020157600080fd5b81359160208101359160408201359190810190608081016060820135600160201b81111561022e57600080fd5b82018360208201111561024057600080fd5b803590602001918460018302840111600160201b8311171561026157600080fd5b509092509050610cb6565b005b81801561027a57600080fd5b5061026c600480360361010081101561029257600080fd5b5080359060208101359060408101359060608101359060808101359060a08101359060c08101359060e00135610d47565b8180156102cf57600080fd5b5061031860048036036101008110156102e757600080fd5b5080359060208101359060408101359060608101359060808101359060a08101359060c08101359060e00135610d82565b60408051918252519081900360200190f35b81801561033657600080fd5b5061026c600480360361010081101561034e57600080fd5b5080359060ff602082013581169160408101359160608201359169ffffffffffffffffffff196080820135169160a082013581169160c08101359091169060e001351515610e65565b6103b4600480360360208110156103ad57600080fd5b5035610f73565b6040805160ff808b1682526060820188905269ffffffffffffffffffff198716608083015285811660a0830152841660c082015282151560e082015261010060208083018281528b51928401929092528a5192939192918401916101208501918c019080838360005b8381101561043557818101518382015260200161041d565b50505050905090810190601f1680156104625780820380516001836020036101000a031916815260200191505b5083810382528951815289516020918201918b019080838360005b8381101561049557818101518382015260200161047d565b50505050905090810190601f1680156104c25780820380516001836020036101000a031916815260200191505b509a505050505050505050505060405180910390f35b610501600480360360608110156104ee57600080fd5b5080359060208101359060400135611078565b6040518083815260200180602001828103825283818151815260200191508051906020019080838360005b8381101561054457818101518382015260200161052c565b50505050905090810190601f1680156105715780820380516001836020036101000a031916815260200191505b50935050505060405180910390f35b81801561058c57600080fd5b50610318600480360360a08110156105a357600080fd5b50803590602081013590604081013590606081013590608001356111b0565b8180156105ce57600080fd5b506105f8600480360360608110156105e557600080fd5b50803590602081013590604001356111e2565b6040805192835260208301919091528051918290030190f35b81801561061d57600080fd5b50610318600480360361012081101561063557600080fd5b5080359060208101359060408101359060608101359060808101359060a08101359060c08101359060e08101359061010001356112a3565b61026c6004803603602081101561068357600080fd5b5035611594565b61026c60048036036101208110156106a157600080fd5b5080359060208101359060408101359060608101359060808101359060a08101359060c08101359060e08101359061010001356001600160a01b03166115dc565b6106ff600480360360208110156106f857600080fd5b5035611919565b6040805160208082528351818301528351919283929083019185019080838360005b83811015610739578181015183820152602001610721565b50505050905090810190601f1680156107665780820380516001836020036101000a031916815260200191505b509250505060405180910390f35b81801561078057600080fd5b50610318600480360360c081101561079757600080fd5b5080359060208101359060408101359060608101359060808101359060a00135611a1e565b8180156107c857600080fd5b5061026c60048036036101608110156107e057600080fd5b5080359060208101359060408101359060608101359060808101359060a08101359060c08101359060e08101359061010081013590610120810135906101400135611c5a565b81801561083257600080fd5b5061026c600480360360c081101561084957600080fd5b5080359060208101359060408101359060608101359060808101359060a00135611e58565b61026c6004803603604081101561088457600080fd5b5080359060200135611e66565b61026c600480360360208110156108a757600080fd5b5035611ec2565b8180156108ba57600080fd5b50610318600480360360c08110156108d157600080fd5b5080359060208101359060408101359060608101359060808101359060a00135611f0b565b81801561090257600080fd5b5061026c6004803603608081101561091957600080fd5b81359190810190604081016020820135600160201b81111561093a57600080fd5b82018360208201111561094c57600080fd5b803590602001918460018302840111600160201b8311171561096d57600080fd5b919350915080359060200135612285565b81801561098a57600080fd5b5061026c600480360360e08110156109a157600080fd5b5080359060208101359060408101359060608101359060808101359060a08101359060c001356122a9565b6109e9600480360360208110156109e257600080fd5b50356122c1565b6040805163ffffffff9094168452602084019290925282820152519081900360600190f35b610a2b60048036036020811015610a2457600080fd5b50356122e2565b6040805194855260208501939093528383019190915215156060830152519081900360800190f35b61026c60048036036020811015610a6957600080fd5b503561230b565b61031860048036036020811015610a8657600080fd5b810190602081018135600160201b811115610aa057600080fd5b820183602082011115610ab257600080fd5b803590602001918460018302840111600160201b83111715610ad357600080fd5b91908080601f01602080910402602001604051908101604052809392919081815260200183838082843760009201919091525092955061236c945050505050565b61031860048036036040811015610b2a57600080fd5b5080359060200135612392565b818015610b4357600080fd5b50610bd76004803603610100811015610b5b57600080fd5b813591602081013591810190606081016040820135600160201b811115610b8157600080fd5b820183602082011115610b9357600080fd5b803590602001918460018302840111600160201b83111715610bb457600080fd5b9193509150803590602081013590604081013590606081013590608001356123a7565b60408051938452602084019290925282820152519081900360600190f35b818015610c0157600080fd5b5061026c6004803603610100811015610c1957600080fd5b5080359060208101359060408101359060608101359060808101359060a08101359060c08101359060e00135612409565b818015610c5657600080fd5b5061026c60048036036080811015610c6d57600080fd5b50803590602081013590604081013590606001356124e9565b818015610c9257600080fd5b5061026c60048036036040811015610ca957600080fd5b5080359060200135612530565b610cbf84611594565b60408051633b228bcf60e01b81526004810186905260248101859052905173__$a4fabbd5d1f021843fb834cb5dc60e32b4$__91633b228bcf916044808301926000929190829003018186803b158015610d1857600080fd5b505af4158015610d2c573d6000803e3d6000fd5b50610d3f9250505060028601838361310a565b505050505050565b6000878152602089815260408083208884529091529020610d689087611e66565b610d7888888888888888886125ed565b5050505050505050565b6000610d8f8888866111e2565b60088b015560078a015533600090815260068a0160209081526040808320859055828052600b8c0182528083208690558882528083206001015481516309da9d5760e01b8152600481018b905260248101919091526044810189905260648101939093525173__$d1c647871cc6a913c0a5c2a7847805f18f$__926309da9d57926084808301939192829003018186803b158015610e2c57600080fd5b505af4158015610e40573d6000803e3d6000fd5b505050506040513d6020811015610e5657600080fd5b50519998505050505050505050565b60408051610140810182528781526020810187905269ffffffffffffffffffff19861691810191909152901515606082018190526000608083015260ff97881660a08301819052600160c084015293881660e083018190529290971661010082018190524263ffffffff166101209092018290526003890196909655600488019490945560059096018054600160c81b6001600160b01b031990911660509490941c9390931760ff60b01b1916600160b01b9096029590951761ffff60b81b1916600160c01b9091021760ff60c81b19161760ff60d01b1916600160d01b9094029390931760ff60d81b1916600160d81b909102176001600160e01b0316600160e01b909202919091179055565b6005810154600280830180546040805160206101006001851615026000190190931694909404601f8101839004830285018301909152808452600160c01b90940460ff1693606093849360009384938493849384939192909183018282801561101d5780601f10610ff25761010080835404028352916020019161101d565b820191906000526020600020905b81548152906001019060200180831161100057829003601f168201915b505050505096506110348960030160000154611919565b60048a01546005909a0154989a979990989097605082901b975060ff600160d01b830481169750600160d81b830481169650600160b01b9092049091169350915050565b600060608373__$a4fabbd5d1f021843fb834cb5dc60e32b4$__633b228bcf9091856040518363ffffffff1660e01b8152600401808381526020018281526020019250505060006040518083038186803b1580156110d557600080fd5b505af41580156110e9573d6000803e3d6000fd5b50505050839150836000141561111a5750604080518082019091526004815263149bdbdd60e21b60208201526111a8565b600285810180546040805160206001841615610100026000190190931694909404601f8101839004830285018301909152808452908301828280156111a05780601f10611175576101008083540402835291602001916111a0565b820191906000526020600020905b81548152906001019060200180831161118357829003601f168201915b505050505090505b935093915050565b60006111c0848760080154612530565b6111cb8383876111e2565b600888018190556007909701555093949350505050565b600480840154600080805260038601602081815260408084206001015481516309da9d5760e01b815296870193909352602486019290925260448501849052606485018690529051919384939273__$d1c647871cc6a913c0a5c2a7847805f18f$__926309da9d579260848082019391829003018186803b15801561126657600080fd5b505af415801561127a573d6000803e3d6000fd5b505050506040513d602081101561129057600080fd5b5051600490960186905550929492505050565b600087815260208a9052604081206112ba90611ec2565b6112c388611594565b600089815260208790526040808220548151633b228bcf60e01b8152600481018c90526024810191909152905173__$a4fabbd5d1f021843fb834cb5dc60e32b4$__92633b228bcf9260448082019391829003018186803b15801561132757600080fd5b505af415801561133b573d6000803e3d6000fd5b50505060008a815260208881526040808320548c8452918e9052822090935090915061136d908463ffffffff61263116565b60408051639d3527c760e01b815260048101899052602481018d9052604481018390526064810188905260848101879052905191925073__$f38770a1dfdb49ff53a7f1e3d00ca3edd6$__91639d3527c79160a480820192600092909190829003018186803b1580156113df57600080fd5b505af41580156113f3573d6000803e3d6000fd5b505050508073__$a4fabbd5d1f021843fb834cb5dc60e32b4$__63b9ff4f8490916040518263ffffffff1660e01b81526004018082815260200191505060006040518083038186803b15801561144857600080fd5b505af415801561145c573d6000803e3d6000fd5b505050600083815260208d905260408082208c8352912081548155600180830154818301556002808401805494955092936114ac9382860193909290821615610100026000190190911604613188565b5060049182015490820155604080516324f6211960e11b81529182018a9052602482018b905260448201849052600060648301525173__$d1c647871cc6a913c0a5c2a7847805f18f$__916349ec4232916084808301926020929190829003018186803b15801561151c57600080fd5b505af4158015611530573d6000803e3d6000fd5b505050506040513d602081101561154657600080fd5b505160008b815260208981526040808320939093558482528d9052908120818155600181018290559061157c60028301826131fd565b60048201600090555050509998505050505050505050565b600081116115d9576040805162461bcd60e51b815260206004820152600d60248201526c5265736572766564204974656d60981b604482015290519081900360640190fd5b50565b6040805163d095937560e01b8152600481018990526001600160a01b0383166024820152905173__$a4fabbd5d1f021843fb834cb5dc60e32b4$__9163d0959375916044808301926000929190829003018186803b15801561163d57600080fd5b505af4158015611651573d6000803e3d6000fd5b5050505073__$a4fabbd5d1f021843fb834cb5dc60e32b4$__63f32fda4c89896040518363ffffffff1660e01b8152600401808381526020018281526020019250505060006040518083038186803b1580156116ac57600080fd5b505af41580156116c0573d6000803e3d6000fd5b505050600089815260208790526040808220548151633b228bcf60e01b8152600481018b90526024810191909152905173__$a4fabbd5d1f021843fb834cb5dc60e32b4$__9350633b228bcf92604480840193919291829003018186803b15801561172a57600080fd5b505af415801561173e573d6000803e3d6000fd5b505050600089815260208b815260408083208a8452909152902061176991508363ffffffff61263116565b73__$a4fabbd5d1f021843fb834cb5dc60e32b4$__63ec05c53a90916040518263ffffffff1660e01b81526004018082815260200191505060006040518083038186803b1580156117b957600080fd5b505af41580156117cd573d6000803e3d6000fd5b505050600089815260208b815260408083208a845290915290206117f1915061230b565b6000888152602085815260408083208c83528184208a855283528184206007015484529091529020611829908363ffffffff61263116565b73__$a4fabbd5d1f021843fb834cb5dc60e32b4$__63ec05c53a90916040518263ffffffff1660e01b81526004018082815260200191505060006040518083038186803b15801561187957600080fd5b505af415801561188d573d6000803e3d6000fd5b505050600088815260208590526040808220815163272ea42160e11b81526004810191909152602481018c9052905173__$a4fabbd5d1f021843fb834cb5dc60e32b4$__9350634e5d484292604480840193919291829003018186803b1580156118f657600080fd5b505af415801561190a573d6000803e3d6000fd5b50505050505050505050505050565b6040805160208082528183019092526060918291906020820181803883390190505090506000805b6020811015611997576008810260020a85026001600160f81b031981161561198e578084848151811061197057fe5b60200101906001600160f81b031916908160001a9053506001909201915b50600101611941565b506060816040519080825280601f01601f1916602001820160405280156119c5576020820181803883390190505b50905060005b82811015611a15578381815181106119df57fe5b602001015160f81c60f81b8282815181106119f657fe5b60200101906001600160f81b031916908160001a9053506001016119cb565b50949350505050565b6000828152602084905260408082208151634dcc1ceb60e11b8152600481019190915260248101859052905173__$d1c647871cc6a913c0a5c2a7847805f18f$__91639b9839d69160448083019286929190829003018186803b158015611a8457600080fd5b505af4158015611a98573d6000803e3d6000fd5b50611aaf925089915084905063ffffffff61263116565b73__$a4fabbd5d1f021843fb834cb5dc60e32b4$__63ec05c53a90916040518263ffffffff1660e01b81526004018082815260200191505060006040518083038186803b158015611aff57600080fd5b505af4158015611b13573d6000803e3d6000fd5b50505060078801546000908152602087905260409020611b3a91508363ffffffff61263116565b73__$a4fabbd5d1f021843fb834cb5dc60e32b4$__63ec05c53a90916040518263ffffffff1660e01b81526004018082815260200191505060006040518083038186803b158015611b8a57600080fd5b505af4158015611b9e573d6000803e3d6000fd5b5050506000848152602087905260409020611bc091508363ffffffff61263116565b73__$a4fabbd5d1f021843fb834cb5dc60e32b4$__63ec05c53a90916040518263ffffffff1660e01b81526004018082815260200191505060006040518083038186803b158015611c1057600080fd5b505af4158015611c24573d6000803e3d6000fd5b50505060078801546000908152602087905260408082208683529120611c4f925089918991876111b0565b979650505050505050565b60008a815260208790526040808220548151633b228bcf60e01b8152600481018d90526024810191909152905173__$a4fabbd5d1f021843fb834cb5dc60e32b4$__92633b228bcf9260448082019391829003018186803b158015611cbe57600080fd5b505af4158015611cd2573d6000803e3d6000fd5b505050508773__$a4fabbd5d1f021843fb834cb5dc60e32b4$__63ec05c53a90916040518263ffffffff1660e01b81526004018082815260200191505060006040518083038186803b158015611d2757600080fd5b505af4158015611d3b573d6000803e3d6000fd5b50505060008a815260208d90526040808220600801548151634dcc1ceb60e11b8152600481018990526024810191909152905173__$d1c647871cc6a913c0a5c2a7847805f18f$__9350639b9839d692604480840193919291829003018186803b158015611da857600080fd5b505af4158015611dbc573d6000803e3d6000fd5b50505060008a815260208d905260409020611dd7915061230b565b611de48a89858585612652565b600089815260208c9052604081208181556001810182905590611e0a60028301826131fd565b506000600382018190556004820181905560058201819055600782018190556008820181905560098201819055600a90910155611e4b8b8b8b8a8a8a61273d565b5050505050505050505050565b610d3f86868686868661299b565b80826009015414611ebe576040805162461bcd60e51b815260206004820152601d60248201527f46696c65206e6f74206d61726b656420666f72205472616e7366657273000000604482015290519081900360640190fd5b5050565b6004810154156115d9576040805162461bcd60e51b815260206004820152600f60248201526e47726f7570206861732046696c657360881b604482015290519081900360640190fd5b600073__$a4fabbd5d1f021843fb834cb5dc60e32b4$__63a97ffbe2836000898152602001908152602001600020546040518263ffffffff1660e01b81526004018082815260200191505060006040518083038186803b158015611f6e57600080fd5b505af4158015611f82573d6000803e3d6000fd5b5050506000868152602084905260409020549050611fa781600163ffffffff612b9b16565b600088815260208a8152604080832089845282528083208a84528c835281842085855290925290912081548155600180830154818301556002808401805495975093949293612009938286019391929181161561010002600019011604613188565b5060038281015490820155600480830154908201556005808301805482840180546001600160b01b0319166001600160b01b0390921691909117808255825460ff60b01b19909116600160b01b9182900460ff908116151590920217808355835460ff60b81b19909116600160b81b918290048316151590910217808355835460ff60c01b19909116600160c01b91829004831690910217808355835460ff60c81b19909116600160c81b918290048316820217808455845460ff60d01b19909116600160d01b91829004841690910217808455845460ff60d81b19909116600160d81b9182900484169091021780845593546001600160e01b03909416600160e01b9485900463ffffffff90811690950217909255600780870154908601556008808701549086015560098087015490860155600a95860154959094019490945560008a815260208d81526040808320898452909152812090920154919361217b93920490911690600190612bb416565b600088815260208b81526040808320878452825280832060ff8516808552600b820184528285208d90556005909101805462ff00ff60b81b1916600160c81b9092029190911790558a83528882528083208380528083528184206001015482516309da9d5760e01b8152600481019290925260248201526044810187905260648101939093525192935073__$d1c647871cc6a913c0a5c2a7847805f18f$__926309da9d57926084808201939291829003018186803b15801561223d57600080fd5b505af4158015612251573d6000803e3d6000fd5b505050506040513d602081101561226757600080fd5b50516000978852602094909452505060409094205550909392505050565b61229360028601858561310a565b5060078501919091556008909301929092555050565b6122b887878787878787612bcc565b50505050505050565b60058101546007820154600890920154600160e01b90910463ffffffff1692565b60058101546009820154600a9092015460ff600160c81b83048116949192600160b81b90041690565b6005810154600160b81b900460ff16156115d9576040805162461bcd60e51b815260206004820181905260248201527f46696c6520616c7265616479206d61726b656420666f72205472616e73666572604482015290519081900360640190fd5b80516000908290819061238557506000915061238d9050565b602001519150505b919050565b6000908152600b909101602052604090205490565b60008060006123f48c8c8c8c8080601f0160208091040260200160405190810160405280939291908181526020018383808284376000920191909152508e92508d91508c90508b8b612e65565b919e909d50909b509950505050505050505050565b60408051633b228bcf60e01b81526004810187905260248101869052905173__$a4fabbd5d1f021843fb834cb5dc60e32b4$__91633b228bcf916044808301926000929190829003018186803b15801561246257600080fd5b505af4158015612476573d6000803e3d6000fd5b505050600088815260208481526040808320898452909152902061249c915086856111e2565b600089815260208b81526040808320888452909152808220600881019390935560079092019290925587825281206124d49083612631565b97885550505060019094019390935550505050565b600083815260208581526040808320848452909152902061250a9083611e66565b60009283526020938452604080842091845293525020600501805460ff60b81b19169055565b60048083015460008181526003850160208181526040928390206002015483516324f6211960e11b81529586019290925260248501869052604485018490526064850182905291519293909273__$d1c647871cc6a913c0a5c2a7847805f18f$__926349ec42329260848082019391829003018186803b1580156125b357600080fd5b505af41580156125c7573d6000803e3d6000fd5b505050506040513d60208110156125dd57600080fd5b5051600490940193909355505050565b600087815260208981526040808320888452909152902060058101805460ff60b81b19169055600a015461262689888388888888612bcc565b505050505050505050565b81546000908152602091825260408082206001909401548252929091522090565b60408051639d3527c760e01b81526004810185905260248101879052604481018690526064810184905260848101839052905173__$f38770a1dfdb49ff53a7f1e3d00ca3edd6$__91639d3527c79160a4808301926000929190829003018186803b1580156126c057600080fd5b505af41580156126d4573d6000803e3d6000fd5b505050508373__$a4fabbd5d1f021843fb834cb5dc60e32b4$__63b9ff4f8490916040518263ffffffff1660e01b81526004018082815260200191505060006040518083038186803b15801561272957600080fd5b505af4158015612626573d6000803e3d6000fd5b60008481526020879052604090206008015461275a908290612530565b6000858152602083815260408083205483529088905280822086835291208154815560018083015481830155600280840180546127aa938386019390821615610100026000190190911604613188565b5060038281015490820155600480830154818301556005808401805491840180546001600160b01b039093166001600160b01b031990931692909217808355815460ff600160b01b918290048116151590910260ff60b01b19909216919091178084558254600160b81b90819004831615150260ff60b81b19909116178084558254600160c01b9081900483160260ff60c01b19909116178084558254600160c81b9081900483160260ff60c81b19909116178084558254600160d01b9081900483160260ff60d01b19909116178084558254600160d81b9081900490921690910260ff60d81b1990911617808355905463ffffffff600160e01b9182900416026001600160e01b03909116179055600780840154908301556008808401549083015560098084015490830155600a9283015492909101919091556000868152602084815260408083205481516324f6211960e11b81529485018890526024850189905260448501526064840192909252905173__$d1c647871cc6a913c0a5c2a7847805f18f$__926349ec4232926084808301939192829003018186803b15801561295557600080fd5b505af4158015612969573d6000803e3d6000fd5b505050506040513d602081101561297f57600080fd5b5051600095865260209290925250604090932092909255505050565b6129ab868263ffffffff61263116565b73__$a4fabbd5d1f021843fb834cb5dc60e32b4$__63ec05c53a90916040518263ffffffff1660e01b81526004018082815260200191505060006040518083038186803b1580156129fb57600080fd5b505af4158015612a0f573d6000803e3d6000fd5b5050505073__$a4fabbd5d1f021843fb834cb5dc60e32b4$__630553bf35836000888152602001908152602001600020546040518263ffffffff1660e01b81526004018082815260200191505060006040518083038186803b158015612a7457600080fd5b505af4158015612a88573d6000803e3d6000fd5b505050600086815260208481526040808320805460058c01805460ff60b81b1916600160b81b17905560098c018b90556001908101600a8d018190558086528a85528386208d5481558d83015490830155858052898552838620909101548b8652888552915483516309da9d5760e01b8152600481018b9052602481019390935260448301526064820194909452905192935073__$d1c647871cc6a913c0a5c2a7847805f18f$__926309da9d5792608480840193919291829003018186803b158015612b5457600080fd5b505af4158015612b68573d6000803e3d6000fd5b505050506040513d6020811015612b7e57600080fd5b505160009687526020939093525050604090932092909255505050565b600082820183811015612bad57600080fd5b9392505050565b600082820160ff8085169082161015612bad57600080fd5b6000858152602085905260409020612bea908263ffffffff61263116565b73__$a4fabbd5d1f021843fb834cb5dc60e32b4$__638268c4ec90916040518263ffffffff1660e01b81526004018082815260200191505060006040518083038186803b158015612c3a57600080fd5b505af4158015612c4e573d6000803e3d6000fd5b50505050612c5a613241565b6000868152602086905260409020612c78908363ffffffff61263116565b60408051610160810182528254610120820190815260018401546101408301528152815180830183526002840154815260038401546020828101919091528083019190915260049093015460ff80821615158385015261010080830482161515606085015262010000830482161515608085015263ffffffff63010000008404811660a086015267010000000000000084041660c0850152600160581b83048216151560e0850152600160601b909204169082015260008a81529286905291205490915080612d80576040805162461bcd60e51b815260206004820152600f60248201526e125b99195e08139bdd08119bdd5b99608a1b604482015290519081900360640190fd5b6000818152602087815260408083208a84528184208154815560019182015491015580516324f6211960e11b815260048101899052602481018b90526044810185905260648101939093525173__$d1c647871cc6a913c0a5c2a7847805f18f$__926349ec4232926084808301939192829003018186803b158015612e0457600080fd5b505af4158015612e18573d6000803e3d6000fd5b505050506040513d6020811015612e2e57600080fd5b5051600098895260209485526040808a209190915582515189529884525087872090518301518752909152505050919020600a0155565b600080600073__$a4fabbd5d1f021843fb834cb5dc60e32b4$__63846d4c8c86866040518363ffffffff1660e01b81526004018083815260200182815260200192505050604080518083038186803b158015612ec057600080fd5b505af4158015612ed4573d6000803e3d6000fd5b505050506040513d6040811015612eea57600080fd5b50805160209182015160008d8152928a9052604090922054909450909250612f1990600163ffffffff612b9b16565b604080516361dce16560e11b8152600481018990526024810186905260448101859052606481018d905260848101839052600060a4820181905260c4820181905260e48201819052915192935073__$a4fabbd5d1f021843fb834cb5dc60e32b4$__9263c3b9c2ca9261010480840193919291829003018186803b158015612fa057600080fd5b505af4158015612fb4573d6000803e3d6000fd5b50505050604051806060016040528060405180604001604052808681526020018581525081526020018a815260200160008152508b6000838152602001908152602001600020600082015181600001600082015181600001556020820151816001015550506020820151816002019080519060200190613035929190613299565b50604091820151600491820155600080805260208b8152838220600101548e83528b82528483205485516309da9d5760e01b81529485018e9052602485019190915260448401526064830191909152915173__$d1c647871cc6a913c0a5c2a7847805f18f$__926309da9d579260848082019391829003018186803b1580156130bd57600080fd5b505af41580156130d1573d6000803e3d6000fd5b505050506040513d60208110156130e757600080fd5b505160009a8b526020979097526040909920959095559893975092945050505050565b828054600181600116156101000203166002900490600052602060002090601f016020900481019282601f1061314b5782800160ff19823516178555613178565b82800160010185558215613178579182015b8281111561317857823582559160200191906001019061315d565b50613184929150613307565b5090565b828054600181600116156101000203166002900490600052602060002090601f016020900481019282601f106131c15780548555613178565b8280016001018555821561317857600052602060002091601f016020900482015b828111156131785782548255916001019190600101906131e2565b50805460018160011615610100020316600290046000825580601f1061322357506115d9565b601f0160209004906000526020600020908101906115d99190613307565b604051806101200160405280613255613324565b8152602001613262613324565b815260006020820181905260408201819052606082018190526080820181905260a0820181905260c0820181905260e09091015290565b828054600181600116156101000203166002900490600052602060002090601f016020900481019282601f106132da57805160ff1916838001178555613178565b82800160010185558215613178579182015b828111156131785782518255916020019190600101906132ec565b61332191905b80821115613184576000815560010161330d565b90565b60405180604001604052806000815260200160008152509056fea265627a7a72315820dc4b05cf9e166df523faa4e331656ae7b9f9b22df965bfb3de0e602059d79f2864736f6c63430005110032",
			"opcodes": "PUSH2 0x3373 PUSH2 0x26 PUSH1 0xB DUP3 DUP3 DUP3 CODECOPY DUP1 MLOAD PUSH1 0x0 BYTE PUSH1 0x73 EQ PUSH2 0x19 JUMPI INVALID JUMPDEST ADDRESS PUSH1 0x0 MSTORE PUSH1 0x73 DUP2 MSTORE8 DUP3 DUP2 RETURN INVALID PUSH20 0x0 ADDRESS EQ PUSH1 0x80 PUSH1 0x40 MSTORE PUSH1 0x4 CALLDATASIZE LT PUSH2 0x1D9 JUMPI PUSH1 0x0 CALLDATALOAD PUSH1 0xE0 SHR DUP1 PUSH4 0xA1B8EBB9 GT PUSH2 0x10E JUMPI DUP1 PUSH4 0xC7BF45E6 GT PUSH2 0xAC JUMPI DUP1 PUSH4 0xDE6BF695 GT PUSH2 0x7B JUMPI DUP1 PUSH4 0xDE6BF695 EQ PUSH2 0xB37 JUMPI DUP1 PUSH4 0xE730A131 EQ PUSH2 0xBF5 JUMPI DUP1 PUSH4 0xF74506D3 EQ PUSH2 0xC4A JUMPI DUP1 PUSH4 0xFCDF96A6 EQ PUSH2 0xC86 JUMPI PUSH2 0x1D9 JUMP JUMPDEST DUP1 PUSH4 0xC7BF45E6 EQ PUSH2 0xA0E JUMPI DUP1 PUSH4 0xCBE6DAF4 EQ PUSH2 0xA53 JUMPI DUP1 PUSH4 0xCFB51928 EQ PUSH2 0xA70 JUMPI DUP1 PUSH4 0xD3587CBA EQ PUSH2 0xB14 JUMPI PUSH2 0x1D9 JUMP JUMPDEST DUP1 PUSH4 0xBAC97B40 GT PUSH2 0xE8 JUMPI DUP1 PUSH4 0xBAC97B40 EQ PUSH2 0x8AE JUMPI DUP1 PUSH4 0xBC5103A2 EQ PUSH2 0x8F6 JUMPI DUP1 PUSH4 0xBE6D9F13 EQ PUSH2 0x97E JUMPI DUP1 PUSH4 0xC693BA1E EQ PUSH2 0x9CC JUMPI PUSH2 0x1D9 JUMP JUMPDEST DUP1 PUSH4 0xA1B8EBB9 EQ PUSH2 0x826 JUMPI DUP1 PUSH4 0xA28F7D3C EQ PUSH2 0x86E JUMPI DUP1 PUSH4 0xA31B1E2A EQ PUSH2 0x891 JUMPI PUSH2 0x1D9 JUMP JUMPDEST DUP1 PUSH4 0x6557ED99 GT PUSH2 0x17B JUMPI DUP1 PUSH4 0x8289D66C GT PUSH2 0x155 JUMPI DUP1 PUSH4 0x8289D66C EQ PUSH2 0x68A JUMPI DUP1 PUSH4 0x9201DE55 EQ PUSH2 0x6E2 JUMPI DUP1 PUSH4 0x9E521BE4 EQ PUSH2 0x774 JUMPI DUP1 PUSH4 0xA162DD3D EQ PUSH2 0x7BC JUMPI PUSH2 0x1D9 JUMP JUMPDEST DUP1 PUSH4 0x6557ED99 EQ PUSH2 0x5C2 JUMPI DUP1 PUSH4 0x69E39B90 EQ PUSH2 0x611 JUMPI DUP1 PUSH4 0x7670E3EA EQ PUSH2 0x66D JUMPI PUSH2 0x1D9 JUMP JUMPDEST DUP1 PUSH4 0x3B8B92BF GT PUSH2 0x1B7 JUMPI DUP1 PUSH4 0x3B8B92BF EQ PUSH2 0x32A JUMPI DUP1 PUSH4 0x3EDBC2CD EQ PUSH2 0x397 JUMPI DUP1 PUSH4 0x40CEA0C2 EQ PUSH2 0x4D8 JUMPI DUP1 PUSH4 0x4519A00C EQ PUSH2 0x580 JUMPI PUSH2 0x1D9 JUMP JUMPDEST DUP1 PUSH4 0x5BD3922 EQ PUSH2 0x1DE JUMPI DUP1 PUSH4 0x2118D33B EQ PUSH2 0x26E JUMPI DUP1 PUSH4 0x331D6AB9 EQ PUSH2 0x2C3 JUMPI JUMPDEST PUSH1 0x0 DUP1 REVERT JUMPDEST DUP2 DUP1 ISZERO PUSH2 0x1EA JUMPI PUSH1 0x0 DUP1 REVERT JUMPDEST POP PUSH2 0x26C PUSH1 0x4 DUP1 CALLDATASIZE SUB PUSH1 0x80 DUP2 LT ISZERO PUSH2 0x201 JUMPI PUSH1 0x0 DUP1 REVERT JUMPDEST DUP2 CALLDATALOAD SWAP2 PUSH1 0x20 DUP2 ADD CALLDATALOAD SWAP2 PUSH1 0x40 DUP3 ADD CALLDATALOAD SWAP2 SWAP1 DUP2 ADD SWAP1 PUSH1 0x80 DUP2 ADD PUSH1 0x60 DUP3 ADD CALLDATALOAD PUSH1 0x1 PUSH1 0x20 SHL DUP2 GT ISZERO PUSH2 0x22E JUMPI PUSH1 0x0 DUP1 REVERT JUMPDEST DUP3 ADD DUP4 PUSH1 0x20 DUP3 ADD GT ISZERO PUSH2 0x240 JUMPI PUSH1 0x0 DUP1 REVERT JUMPDEST DUP1 CALLDATALOAD SWAP1 PUSH1 0x20 ADD SWAP2 DUP5 PUSH1 0x1 DUP4 MUL DUP5 ADD GT PUSH1 0x1 PUSH1 0x20 SHL DUP4 GT OR ISZERO PUSH2 0x261 JUMPI PUSH1 0x0 DUP1 REVERT JUMPDEST POP SWAP1 SWAP3 POP SWAP1 POP PUSH2 0xCB6 JUMP JUMPDEST STOP JUMPDEST DUP2 DUP1 ISZERO PUSH2 0x27A JUMPI PUSH1 0x0 DUP1 REVERT JUMPDEST POP PUSH2 0x26C PUSH1 0x4 DUP1 CALLDATASIZE SUB PUSH2 0x100 DUP2 LT ISZERO PUSH2 0x292 JUMPI PUSH1 0x0 DUP1 REVERT JUMPDEST POP DUP1 CALLDATALOAD SWAP1 PUSH1 0x20 DUP2 ADD CALLDATALOAD SWAP1 PUSH1 0x40 DUP2 ADD CALLDATALOAD SWAP1 PUSH1 0x60 DUP2 ADD CALLDATALOAD SWAP1 PUSH1 0x80 DUP2 ADD CALLDATALOAD SWAP1 PUSH1 0xA0 DUP2 ADD CALLDATALOAD SWAP1 PUSH1 0xC0 DUP2 ADD CALLDATALOAD SWAP1 PUSH1 0xE0 ADD CALLDATALOAD PUSH2 0xD47 JUMP JUMPDEST DUP2 DUP1 ISZERO PUSH2 0x2CF JUMPI PUSH1 0x0 DUP1 REVERT JUMPDEST POP PUSH2 0x318 PUSH1 0x4 DUP1 CALLDATASIZE SUB PUSH2 0x100 DUP2 LT ISZERO PUSH2 0x2E7 JUMPI PUSH1 0x0 DUP1 REVERT JUMPDEST POP DUP1 CALLDATALOAD SWAP1 PUSH1 0x20 DUP2 ADD CALLDATALOAD SWAP1 PUSH1 0x40 DUP2 ADD CALLDATALOAD SWAP1 PUSH1 0x60 DUP2 ADD CALLDATALOAD SWAP1 PUSH1 0x80 DUP2 ADD CALLDATALOAD SWAP1 PUSH1 0xA0 DUP2 ADD CALLDATALOAD SWAP1 PUSH1 0xC0 DUP2 ADD CALLDATALOAD SWAP1 PUSH1 0xE0 ADD CALLDATALOAD PUSH2 0xD82 JUMP JUMPDEST PUSH1 0x40 DUP1 MLOAD SWAP2 DUP3 MSTORE MLOAD SWAP1 DUP2 SWAP1 SUB PUSH1 0x20 ADD SWAP1 RETURN JUMPDEST DUP2 DUP1 ISZERO PUSH2 0x336 JUMPI PUSH1 0x0 DUP1 REVERT JUMPDEST POP PUSH2 0x26C PUSH1 0x4 DUP1 CALLDATASIZE SUB PUSH2 0x100 DUP2 LT ISZERO PUSH2 0x34E JUMPI PUSH1 0x0 DUP1 REVERT JUMPDEST POP DUP1 CALLDATALOAD SWAP1 PUSH1 0xFF PUSH1 0x20 DUP3 ADD CALLDATALOAD DUP2 AND SWAP2 PUSH1 0x40 DUP2 ADD CALLDATALOAD SWAP2 PUSH1 0x60 DUP3 ADD CALLDATALOAD SWAP2 PUSH10 0xFFFFFFFFFFFFFFFFFFFF NOT PUSH1 0x80 DUP3 ADD CALLDATALOAD AND SWAP2 PUSH1 0xA0 DUP3 ADD CALLDATALOAD DUP2 AND SWAP2 PUSH1 0xC0 DUP2 ADD CALLDATALOAD SWAP1 SWAP2 AND SWAP1 PUSH1 0xE0 ADD CALLDATALOAD ISZERO ISZERO PUSH2 0xE65 JUMP JUMPDEST PUSH2 0x3B4 PUSH1 0x4 DUP1 CALLDATASIZE SUB PUSH1 0x20 DUP2 LT ISZERO PUSH2 0x3AD JUMPI PUSH1 0x0 DUP1 REVERT JUMPDEST POP CALLDATALOAD PUSH2 0xF73 JUMP JUMPDEST PUSH1 0x40 DUP1 MLOAD PUSH1 0xFF DUP1 DUP12 AND DUP3 MSTORE PUSH1 0x60 DUP3 ADD DUP9 SWAP1 MSTORE PUSH10 0xFFFFFFFFFFFFFFFFFFFF NOT DUP8 AND PUSH1 0x80 DUP4 ADD MSTORE DUP6 DUP2 AND PUSH1 0xA0 DUP4 ADD MSTORE DUP5 AND PUSH1 0xC0 DUP3 ADD MSTORE DUP3 ISZERO ISZERO PUSH1 0xE0 DUP3 ADD MSTORE PUSH2 0x100 PUSH1 0x20 DUP1 DUP4 ADD DUP3 DUP2 MSTORE DUP12 MLOAD SWAP3 DUP5 ADD SWAP3 SWAP1 SWAP3 MSTORE DUP11 MLOAD SWAP3 SWAP4 SWAP2 SWAP3 SWAP2 DUP5 ADD SWAP2 PUSH2 0x120 DUP6 ADD SWAP2 DUP13 ADD SWAP1 DUP1 DUP4 DUP4 PUSH1 0x0 JUMPDEST DUP4 DUP2 LT ISZERO PUSH2 0x435 JUMPI DUP2 DUP2 ADD MLOAD DUP4 DUP3 ADD MSTORE PUSH1 0x20 ADD PUSH2 0x41D JUMP JUMPDEST POP POP POP POP SWAP1 POP SWAP1 DUP2 ADD SWAP1 PUSH1 0x1F AND DUP1 ISZERO PUSH2 0x462 JUMPI DUP1 DUP3 SUB DUP1 MLOAD PUSH1 0x1 DUP4 PUSH1 0x20 SUB PUSH2 0x100 EXP SUB NOT AND DUP2 MSTORE PUSH1 0x20 ADD SWAP2 POP JUMPDEST POP DUP4 DUP2 SUB DUP3 MSTORE DUP10 MLOAD DUP2 MSTORE DUP10 MLOAD PUSH1 0x20 SWAP2 DUP3 ADD SWAP2 DUP12 ADD SWAP1 DUP1 DUP4 DUP4 PUSH1 0x0 JUMPDEST DUP4 DUP2 LT ISZERO PUSH2 0x495 JUMPI DUP2 DUP2 ADD MLOAD DUP4 DUP3 ADD MSTORE PUSH1 0x20 ADD PUSH2 0x47D JUMP JUMPDEST POP POP POP POP SWAP1 POP SWAP1 DUP2 ADD SWAP1 PUSH1 0x1F AND DUP1 ISZERO PUSH2 0x4C2 JUMPI DUP1 DUP3 SUB DUP1 MLOAD PUSH1 0x1 DUP4 PUSH1 0x20 SUB PUSH2 0x100 EXP SUB NOT AND DUP2 MSTORE PUSH1 0x20 ADD SWAP2 POP JUMPDEST POP SWAP11 POP POP POP POP POP POP POP POP POP POP POP PUSH1 0x40 MLOAD DUP1 SWAP2 SUB SWAP1 RETURN JUMPDEST PUSH2 0x501 PUSH1 0x4 DUP1 CALLDATASIZE SUB PUSH1 0x60 DUP2 LT ISZERO PUSH2 0x4EE JUMPI PUSH1 0x0 DUP1 REVERT JUMPDEST POP DUP1 CALLDATALOAD SWAP1 PUSH1 0x20 DUP2 ADD CALLDATALOAD SWAP1 PUSH1 0x40 ADD CALLDATALOAD PUSH2 0x1078 JUMP JUMPDEST PUSH1 0x40 MLOAD DUP1 DUP4 DUP2 MSTORE PUSH1 0x20 ADD DUP1 PUSH1 0x20 ADD DUP3 DUP2 SUB DUP3 MSTORE DUP4 DUP2 DUP2 MLOAD DUP2 MSTORE PUSH1 0x20 ADD SWAP2 POP DUP1 MLOAD SWAP1 PUSH1 0x20 ADD SWAP1 DUP1 DUP4 DUP4 PUSH1 0x0 JUMPDEST DUP4 DUP2 LT ISZERO PUSH2 0x544 JUMPI DUP2 DUP2 ADD MLOAD DUP4 DUP3 ADD MSTORE PUSH1 0x20 ADD PUSH2 0x52C JUMP JUMPDEST POP POP POP POP SWAP1 POP SWAP1 DUP2 ADD SWAP1 PUSH1 0x1F AND DUP1 ISZERO PUSH2 0x571 JUMPI DUP1 DUP3 SUB DUP1 MLOAD PUSH1 0x1 DUP4 PUSH1 0x20 SUB PUSH2 0x100 EXP SUB NOT AND DUP2 MSTORE PUSH1 0x20 ADD SWAP2 POP JUMPDEST POP SWAP4 POP POP POP POP PUSH1 0x40 MLOAD DUP1 SWAP2 SUB SWAP1 RETURN JUMPDEST DUP2 DUP1 ISZERO PUSH2 0x58C JUMPI PUSH1 0x0 DUP1 REVERT JUMPDEST POP PUSH2 0x318 PUSH1 0x4 DUP1 CALLDATASIZE SUB PUSH1 0xA0 DUP2 LT ISZERO PUSH2 0x5A3 JUMPI PUSH1 0x0 DUP1 REVERT JUMPDEST POP DUP1 CALLDATALOAD SWAP1 PUSH1 0x20 DUP2 ADD CALLDATALOAD SWAP1 PUSH1 0x40 DUP2 ADD CALLDATALOAD SWAP1 PUSH1 0x60 DUP2 ADD CALLDATALOAD SWAP1 PUSH1 0x80 ADD CALLDATALOAD PUSH2 0x11B0 JUMP JUMPDEST DUP2 DUP1 ISZERO PUSH2 0x5CE JUMPI PUSH1 0x0 DUP1 REVERT JUMPDEST POP PUSH2 0x5F8 PUSH1 0x4 DUP1 CALLDATASIZE SUB PUSH1 0x60 DUP2 LT ISZERO PUSH2 0x5E5 JUMPI PUSH1 0x0 DUP1 REVERT JUMPDEST POP DUP1 CALLDATALOAD SWAP1 PUSH1 0x20 DUP2 ADD CALLDATALOAD SWAP1 PUSH1 0x40 ADD CALLDATALOAD PUSH2 0x11E2 JUMP JUMPDEST PUSH1 0x40 DUP1 MLOAD SWAP3 DUP4 MSTORE PUSH1 0x20 DUP4 ADD SWAP2 SWAP1 SWAP2 MSTORE DUP1 MLOAD SWAP2 DUP3 SWAP1 SUB ADD SWAP1 RETURN JUMPDEST DUP2 DUP1 ISZERO PUSH2 0x61D JUMPI PUSH1 0x0 DUP1 REVERT JUMPDEST POP PUSH2 0x318 PUSH1 0x4 DUP1 CALLDATASIZE SUB PUSH2 0x120 DUP2 LT ISZERO PUSH2 0x635 JUMPI PUSH1 0x0 DUP1 REVERT JUMPDEST POP DUP1 CALLDATALOAD SWAP1 PUSH1 0x20 DUP2 ADD CALLDATALOAD SWAP1 PUSH1 0x40 DUP2 ADD CALLDATALOAD SWAP1 PUSH1 0x60 DUP2 ADD CALLDATALOAD SWAP1 PUSH1 0x80 DUP2 ADD CALLDATALOAD SWAP1 PUSH1 0xA0 DUP2 ADD CALLDATALOAD SWAP1 PUSH1 0xC0 DUP2 ADD CALLDATALOAD SWAP1 PUSH1 0xE0 DUP2 ADD CALLDATALOAD SWAP1 PUSH2 0x100 ADD CALLDATALOAD PUSH2 0x12A3 JUMP JUMPDEST PUSH2 0x26C PUSH1 0x4 DUP1 CALLDATASIZE SUB PUSH1 0x20 DUP2 LT ISZERO PUSH2 0x683 JUMPI PUSH1 0x0 DUP1 REVERT JUMPDEST POP CALLDATALOAD PUSH2 0x1594 JUMP JUMPDEST PUSH2 0x26C PUSH1 0x4 DUP1 CALLDATASIZE SUB PUSH2 0x120 DUP2 LT ISZERO PUSH2 0x6A1 JUMPI PUSH1 0x0 DUP1 REVERT JUMPDEST POP DUP1 CALLDATALOAD SWAP1 PUSH1 0x20 DUP2 ADD CALLDATALOAD SWAP1 PUSH1 0x40 DUP2 ADD CALLDATALOAD SWAP1 PUSH1 0x60 DUP2 ADD CALLDATALOAD SWAP1 PUSH1 0x80 DUP2 ADD CALLDATALOAD SWAP1 PUSH1 0xA0 DUP2 ADD CALLDATALOAD SWAP1 PUSH1 0xC0 DUP2 ADD CALLDATALOAD SWAP1 PUSH1 0xE0 DUP2 ADD CALLDATALOAD SWAP1 PUSH2 0x100 ADD CALLDATALOAD PUSH1 0x1 PUSH1 0x1 PUSH1 0xA0 SHL SUB AND PUSH2 0x15DC JUMP JUMPDEST PUSH2 0x6FF PUSH1 0x4 DUP1 CALLDATASIZE SUB PUSH1 0x20 DUP2 LT ISZERO PUSH2 0x6F8 JUMPI PUSH1 0x0 DUP1 REVERT JUMPDEST POP CALLDATALOAD PUSH2 0x1919 JUMP JUMPDEST PUSH1 0x40 DUP1 MLOAD PUSH1 0x20 DUP1 DUP3 MSTORE DUP4 MLOAD DUP2 DUP4 ADD MSTORE DUP4 MLOAD SWAP2 SWAP3 DUP4 SWAP3 SWAP1 DUP4 ADD SWAP2 DUP6 ADD SWAP1 DUP1 DUP4 DUP4 PUSH1 0x0 JUMPDEST DUP4 DUP2 LT ISZERO PUSH2 0x739 JUMPI DUP2 DUP2 ADD MLOAD DUP4 DUP3 ADD MSTORE PUSH1 0x20 ADD PUSH2 0x721 JUMP JUMPDEST POP POP POP POP SWAP1 POP SWAP1 DUP2 ADD SWAP1 PUSH1 0x1F AND DUP1 ISZERO PUSH2 0x766 JUMPI DUP1 DUP3 SUB DUP1 MLOAD PUSH1 0x1 DUP4 PUSH1 0x20 SUB PUSH2 0x100 EXP SUB NOT AND DUP2 MSTORE PUSH1 0x20 ADD SWAP2 POP JUMPDEST POP SWAP3 POP POP POP PUSH1 0x40 MLOAD DUP1 SWAP2 SUB SWAP1 RETURN JUMPDEST DUP2 DUP1 ISZERO PUSH2 0x780 JUMPI PUSH1 0x0 DUP1 REVERT JUMPDEST POP PUSH2 0x318 PUSH1 0x4 DUP1 CALLDATASIZE SUB PUSH1 0xC0 DUP2 LT ISZERO PUSH2 0x797 JUMPI PUSH1 0x0 DUP1 REVERT JUMPDEST POP DUP1 CALLDATALOAD SWAP1 PUSH1 0x20 DUP2 ADD CALLDATALOAD SWAP1 PUSH1 0x40 DUP2 ADD CALLDATALOAD SWAP1 PUSH1 0x60 DUP2 ADD CALLDATALOAD SWAP1 PUSH1 0x80 DUP2 ADD CALLDATALOAD SWAP1 PUSH1 0xA0 ADD CALLDATALOAD PUSH2 0x1A1E JUMP JUMPDEST DUP2 DUP1 ISZERO PUSH2 0x7C8 JUMPI PUSH1 0x0 DUP1 REVERT JUMPDEST POP PUSH2 0x26C PUSH1 0x4 DUP1 CALLDATASIZE SUB PUSH2 0x160 DUP2 LT ISZERO PUSH2 0x7E0 JUMPI PUSH1 0x0 DUP1 REVERT JUMPDEST POP DUP1 CALLDATALOAD SWAP1 PUSH1 0x20 DUP2 ADD CALLDATALOAD SWAP1 PUSH1 0x40 DUP2 ADD CALLDATALOAD SWAP1 PUSH1 0x60 DUP2 ADD CALLDATALOAD SWAP1 PUSH1 0x80 DUP2 ADD CALLDATALOAD SWAP1 PUSH1 0xA0 DUP2 ADD CALLDATALOAD SWAP1 PUSH1 0xC0 DUP2 ADD CALLDATALOAD SWAP1 PUSH1 0xE0 DUP2 ADD CALLDATALOAD SWAP1 PUSH2 0x100 DUP2 ADD CALLDATALOAD SWAP1 PUSH2 0x120 DUP2 ADD CALLDATALOAD SWAP1 PUSH2 0x140 ADD CALLDATALOAD PUSH2 0x1C5A JUMP JUMPDEST DUP2 DUP1 ISZERO PUSH2 0x832 JUMPI PUSH1 0x0 DUP1 REVERT JUMPDEST POP PUSH2 0x26C PUSH1 0x4 DUP1 CALLDATASIZE SUB PUSH1 0xC0 DUP2 LT ISZERO PUSH2 0x849 JUMPI PUSH1 0x0 DUP1 REVERT JUMPDEST POP DUP1 CALLDATALOAD SWAP1 PUSH1 0x20 DUP2 ADD CALLDATALOAD SWAP1 PUSH1 0x40 DUP2 ADD CALLDATALOAD SWAP1 PUSH1 0x60 DUP2 ADD CALLDATALOAD SWAP1 PUSH1 0x80 DUP2 ADD CALLDATALOAD SWAP1 PUSH1 0xA0 ADD CALLDATALOAD PUSH2 0x1E58 JUMP JUMPDEST PUSH2 0x26C PUSH1 0x4 DUP1 CALLDATASIZE SUB PUSH1 0x40 DUP2 LT ISZERO PUSH2 0x884 JUMPI PUSH1 0x0 DUP1 REVERT JUMPDEST POP DUP1 CALLDATALOAD SWAP1 PUSH1 0x20 ADD CALLDATALOAD PUSH2 0x1E66 JUMP JUMPDEST PUSH2 0x26C PUSH1 0x4 DUP1 CALLDATASIZE SUB PUSH1 0x20 DUP2 LT ISZERO PUSH2 0x8A7 JUMPI PUSH1 0x0 DUP1 REVERT JUMPDEST POP CALLDATALOAD PUSH2 0x1EC2 JUMP JUMPDEST DUP2 DUP1 ISZERO PUSH2 0x8BA JUMPI PUSH1 0x0 DUP1 REVERT JUMPDEST POP PUSH2 0x318 PUSH1 0x4 DUP1 CALLDATASIZE SUB PUSH1 0xC0 DUP2 LT ISZERO PUSH2 0x8D1 JUMPI PUSH1 0x0 DUP1 REVERT JUMPDEST POP DUP1 CALLDATALOAD SWAP1 PUSH1 0x20 DUP2 ADD CALLDATALOAD SWAP1 PUSH1 0x40 DUP2 ADD CALLDATALOAD SWAP1 PUSH1 0x60 DUP2 ADD CALLDATALOAD SWAP1 PUSH1 0x80 DUP2 ADD CALLDATALOAD SWAP1 PUSH1 0xA0 ADD CALLDATALOAD PUSH2 0x1F0B JUMP JUMPDEST DUP2 DUP1 ISZERO PUSH2 0x902 JUMPI PUSH1 0x0 DUP1 REVERT JUMPDEST POP PUSH2 0x26C PUSH1 0x4 DUP1 CALLDATASIZE SUB PUSH1 0x80 DUP2 LT ISZERO PUSH2 0x919 JUMPI PUSH1 0x0 DUP1 REVERT JUMPDEST DUP2 CALLDATALOAD SWAP2 SWAP1 DUP2 ADD SWAP1 PUSH1 0x40 DUP2 ADD PUSH1 0x20 DUP3 ADD CALLDATALOAD PUSH1 0x1 PUSH1 0x20 SHL DUP2 GT ISZERO PUSH2 0x93A JUMPI PUSH1 0x0 DUP1 REVERT JUMPDEST DUP3 ADD DUP4 PUSH1 0x20 DUP3 ADD GT ISZERO PUSH2 0x94C JUMPI PUSH1 0x0 DUP1 REVERT JUMPDEST DUP1 CALLDATALOAD SWAP1 PUSH1 0x20 ADD SWAP2 DUP5 PUSH1 0x1 DUP4 MUL DUP5 ADD GT PUSH1 0x1 PUSH1 0x20 SHL DUP4 GT OR ISZERO PUSH2 0x96D JUMPI PUSH1 0x0 DUP1 REVERT JUMPDEST SWAP2 SWAP4 POP SWAP2 POP DUP1 CALLDATALOAD SWAP1 PUSH1 0x20 ADD CALLDATALOAD PUSH2 0x2285 JUMP JUMPDEST DUP2 DUP1 ISZERO PUSH2 0x98A JUMPI PUSH1 0x0 DUP1 REVERT JUMPDEST POP PUSH2 0x26C PUSH1 0x4 DUP1 CALLDATASIZE SUB PUSH1 0xE0 DUP2 LT ISZERO PUSH2 0x9A1 JUMPI PUSH1 0x0 DUP1 REVERT JUMPDEST POP DUP1 CALLDATALOAD SWAP1 PUSH1 0x20 DUP2 ADD CALLDATALOAD SWAP1 PUSH1 0x40 DUP2 ADD CALLDATALOAD SWAP1 PUSH1 0x60 DUP2 ADD CALLDATALOAD SWAP1 PUSH1 0x80 DUP2 ADD CALLDATALOAD SWAP1 PUSH1 0xA0 DUP2 ADD CALLDATALOAD SWAP1 PUSH1 0xC0 ADD CALLDATALOAD PUSH2 0x22A9 JUMP JUMPDEST PUSH2 0x9E9 PUSH1 0x4 DUP1 CALLDATASIZE SUB PUSH1 0x20 DUP2 LT ISZERO PUSH2 0x9E2 JUMPI PUSH1 0x0 DUP1 REVERT JUMPDEST POP CALLDATALOAD PUSH2 0x22C1 JUMP JUMPDEST PUSH1 0x40 DUP1 MLOAD PUSH4 0xFFFFFFFF SWAP1 SWAP5 AND DUP5 MSTORE PUSH1 0x20 DUP5 ADD SWAP3 SWAP1 SWAP3 MSTORE DUP3 DUP3 ADD MSTORE MLOAD SWAP1 DUP2 SWAP1 SUB PUSH1 0x60 ADD SWAP1 RETURN JUMPDEST PUSH2 0xA2B PUSH1 0x4 DUP1 CALLDATASIZE SUB PUSH1 0x20 DUP2 LT ISZERO PUSH2 0xA24 JUMPI PUSH1 0x0 DUP1 REVERT JUMPDEST POP CALLDATALOAD PUSH2 0x22E2 JUMP JUMPDEST PUSH1 0x40 DUP1 MLOAD SWAP5 DUP6 MSTORE PUSH1 0x20 DUP6 ADD SWAP4 SWAP1 SWAP4 MSTORE DUP4 DUP4 ADD SWAP2 SWAP1 SWAP2 MSTORE ISZERO ISZERO PUSH1 0x60 DUP4 ADD MSTORE MLOAD SWAP1 DUP2 SWAP1 SUB PUSH1 0x80 ADD SWAP1 RETURN JUMPDEST PUSH2 0x26C PUSH1 0x4 DUP1 CALLDATASIZE SUB PUSH1 0x20 DUP2 LT ISZERO PUSH2 0xA69 JUMPI PUSH1 0x0 DUP1 REVERT JUMPDEST POP CALLDATALOAD PUSH2 0x230B JUMP JUMPDEST PUSH2 0x318 PUSH1 0x4 DUP1 CALLDATASIZE SUB PUSH1 0x20 DUP2 LT ISZERO PUSH2 0xA86 JUMPI PUSH1 0x0 DUP1 REVERT JUMPDEST DUP2 ADD SWAP1 PUSH1 0x20 DUP2 ADD DUP2 CALLDATALOAD PUSH1 0x1 PUSH1 0x20 SHL DUP2 GT ISZERO PUSH2 0xAA0 JUMPI PUSH1 0x0 DUP1 REVERT JUMPDEST DUP3 ADD DUP4 PUSH1 0x20 DUP3 ADD GT ISZERO PUSH2 0xAB2 JUMPI PUSH1 0x0 DUP1 REVERT JUMPDEST DUP1 CALLDATALOAD SWAP1 PUSH1 0x20 ADD SWAP2 DUP5 PUSH1 0x1 DUP4 MUL DUP5 ADD GT PUSH1 0x1 PUSH1 0x20 SHL DUP4 GT OR ISZERO PUSH2 0xAD3 JUMPI PUSH1 0x0 DUP1 REVERT JUMPDEST SWAP2 SWAP1 DUP1 DUP1 PUSH1 0x1F ADD PUSH1 0x20 DUP1 SWAP2 DIV MUL PUSH1 0x20 ADD PUSH1 0x40 MLOAD SWAP1 DUP2 ADD PUSH1 0x40 MSTORE DUP1 SWAP4 SWAP3 SWAP2 SWAP1 DUP2 DUP2 MSTORE PUSH1 0x20 ADD DUP4 DUP4 DUP1 DUP3 DUP5 CALLDATACOPY PUSH1 0x0 SWAP3 ADD SWAP2 SWAP1 SWAP2 MSTORE POP SWAP3 SWAP6 POP PUSH2 0x236C SWAP5 POP POP POP POP POP JUMP JUMPDEST PUSH2 0x318 PUSH1 0x4 DUP1 CALLDATASIZE SUB PUSH1 0x40 DUP2 LT ISZERO PUSH2 0xB2A JUMPI PUSH1 0x0 DUP1 REVERT JUMPDEST POP DUP1 CALLDATALOAD SWAP1 PUSH1 0x20 ADD CALLDATALOAD PUSH2 0x2392 JUMP JUMPDEST DUP2 DUP1 ISZERO PUSH2 0xB43 JUMPI PUSH1 0x0 DUP1 REVERT JUMPDEST POP PUSH2 0xBD7 PUSH1 0x4 DUP1 CALLDATASIZE SUB PUSH2 0x100 DUP2 LT ISZERO PUSH2 0xB5B JUMPI PUSH1 0x0 DUP1 REVERT JUMPDEST DUP2 CALLDATALOAD SWAP2 PUSH1 0x20 DUP2 ADD CALLDATALOAD SWAP2 DUP2 ADD SWAP1 PUSH1 0x60 DUP2 ADD PUSH1 0x40 DUP3 ADD CALLDATALOAD PUSH1 0x1 PUSH1 0x20 SHL DUP2 GT ISZERO PUSH2 0xB81 JUMPI PUSH1 0x0 DUP1 REVERT JUMPDEST DUP3 ADD DUP4 PUSH1 0x20 DUP3 ADD GT ISZERO PUSH2 0xB93 JUMPI PUSH1 0x0 DUP1 REVERT JUMPDEST DUP1 CALLDATALOAD SWAP1 PUSH1 0x20 ADD SWAP2 DUP5 PUSH1 0x1 DUP4 MUL DUP5 ADD GT PUSH1 0x1 PUSH1 0x20 SHL DUP4 GT OR ISZERO PUSH2 0xBB4 JUMPI PUSH1 0x0 DUP1 REVERT JUMPDEST SWAP2 SWAP4 POP SWAP2 POP DUP1 CALLDATALOAD SWAP1 PUSH1 0x20 DUP2 ADD CALLDATALOAD SWAP1 PUSH1 0x40 DUP2 ADD CALLDATALOAD SWAP1 PUSH1 0x60 DUP2 ADD CALLDATALOAD SWAP1 PUSH1 0x80 ADD CALLDATALOAD PUSH2 0x23A7 JUMP JUMPDEST PUSH1 0x40 DUP1 MLOAD SWAP4 DUP5 MSTORE PUSH1 0x20 DUP5 ADD SWAP3 SWAP1 SWAP3 MSTORE DUP3 DUP3 ADD MSTORE MLOAD SWAP1 DUP2 SWAP1 SUB PUSH1 0x60 ADD SWAP1 RETURN JUMPDEST DUP2 DUP1 ISZERO PUSH2 0xC01 JUMPI PUSH1 0x0 DUP1 REVERT JUMPDEST POP PUSH2 0x26C PUSH1 0x4 DUP1 CALLDATASIZE SUB PUSH2 0x100 DUP2 LT ISZERO PUSH2 0xC19 JUMPI PUSH1 0x0 DUP1 REVERT JUMPDEST POP DUP1 CALLDATALOAD SWAP1 PUSH1 0x20 DUP2 ADD CALLDATALOAD SWAP1 PUSH1 0x40 DUP2 ADD CALLDATALOAD SWAP1 PUSH1 0x60 DUP2 ADD CALLDATALOAD SWAP1 PUSH1 0x80 DUP2 ADD CALLDATALOAD SWAP1 PUSH1 0xA0 DUP2 ADD CALLDATALOAD SWAP1 PUSH1 0xC0 DUP2 ADD CALLDATALOAD SWAP1 PUSH1 0xE0 ADD CALLDATALOAD PUSH2 0x2409 JUMP JUMPDEST DUP2 DUP1 ISZERO PUSH2 0xC56 JUMPI PUSH1 0x0 DUP1 REVERT JUMPDEST POP PUSH2 0x26C PUSH1 0x4 DUP1 CALLDATASIZE SUB PUSH1 0x80 DUP2 LT ISZERO PUSH2 0xC6D JUMPI PUSH1 0x0 DUP1 REVERT JUMPDEST POP DUP1 CALLDATALOAD SWAP1 PUSH1 0x20 DUP2 ADD CALLDATALOAD SWAP1 PUSH1 0x40 DUP2 ADD CALLDATALOAD SWAP1 PUSH1 0x60 ADD CALLDATALOAD PUSH2 0x24E9 JUMP JUMPDEST DUP2 DUP1 ISZERO PUSH2 0xC92 JUMPI PUSH1 0x0 DUP1 REVERT JUMPDEST POP PUSH2 0x26C PUSH1 0x4 DUP1 CALLDATASIZE SUB PUSH1 0x40 DUP2 LT ISZERO PUSH2 0xCA9 JUMPI PUSH1 0x0 DUP1 REVERT JUMPDEST POP DUP1 CALLDATALOAD SWAP1 PUSH1 0x20 ADD CALLDATALOAD PUSH2 0x2530 JUMP JUMPDEST PUSH2 0xCBF DUP5 PUSH2 0x1594 JUMP JUMPDEST PUSH1 0x40 DUP1 MLOAD PUSH4 0x3B228BCF PUSH1 0xE0 SHL DUP2 MSTORE PUSH1 0x4 DUP2 ADD DUP7 SWAP1 MSTORE PUSH1 0x24 DUP2 ADD DUP6 SWAP1 MSTORE SWAP1 MLOAD PUSH20 0x0 SWAP2 PUSH4 0x3B228BCF SWAP2 PUSH1 0x44 DUP1 DUP4 ADD SWAP3 PUSH1 0x0 SWAP3 SWAP2 SWAP1 DUP3 SWAP1 SUB ADD DUP2 DUP7 DUP1 EXTCODESIZE ISZERO DUP1 ISZERO PUSH2 0xD18 JUMPI PUSH1 0x0 DUP1 REVERT JUMPDEST POP GAS DELEGATECALL ISZERO DUP1 ISZERO PUSH2 0xD2C JUMPI RETURNDATASIZE PUSH1 0x0 DUP1 RETURNDATACOPY RETURNDATASIZE PUSH1 0x0 REVERT JUMPDEST POP PUSH2 0xD3F SWAP3 POP POP POP PUSH1 0x2 DUP7 ADD DUP4 DUP4 PUSH2 0x310A JUMP JUMPDEST POP POP POP POP POP POP JUMP JUMPDEST PUSH1 0x0 DUP8 DUP2 MSTORE PUSH1 0x20 DUP10 DUP2 MSTORE PUSH1 0x40 DUP1 DUP4 KECCAK256 DUP9 DUP5 MSTORE SWAP1 SWAP2 MSTORE SWAP1 KECCAK256 PUSH2 0xD68 SWAP1 DUP8 PUSH2 0x1E66 JUMP JUMPDEST PUSH2 0xD78 DUP9 DUP9 DUP9 DUP9 DUP9 DUP9 DUP9 DUP9 PUSH2 0x25ED JUMP JUMPDEST POP POP POP POP POP POP POP POP JUMP JUMPDEST PUSH1 0x0 PUSH2 0xD8F DUP9 DUP9 DUP7 PUSH2 0x11E2 JUMP JUMPDEST PUSH1 0x8 DUP12 ADD SSTORE PUSH1 0x7 DUP11 ADD SSTORE CALLER PUSH1 0x0 SWAP1 DUP2 MSTORE PUSH1 0x6 DUP11 ADD PUSH1 0x20 SWAP1 DUP2 MSTORE PUSH1 0x40 DUP1 DUP4 KECCAK256 DUP6 SWAP1 SSTORE DUP3 DUP1 MSTORE PUSH1 0xB DUP13 ADD DUP3 MSTORE DUP1 DUP4 KECCAK256 DUP7 SWAP1 SSTORE DUP9 DUP3 MSTORE DUP1 DUP4 KECCAK256 PUSH1 0x1 ADD SLOAD DUP2 MLOAD PUSH4 0x9DA9D57 PUSH1 0xE0 SHL DUP2 MSTORE PUSH1 0x4 DUP2 ADD DUP12 SWAP1 MSTORE PUSH1 0x24 DUP2 ADD SWAP2 SWAP1 SWAP2 MSTORE PUSH1 0x44 DUP2 ADD DUP10 SWAP1 MSTORE PUSH1 0x64 DUP2 ADD SWAP4 SWAP1 SWAP4 MSTORE MLOAD PUSH20 0x0 SWAP3 PUSH4 0x9DA9D57 SWAP3 PUSH1 0x84 DUP1 DUP4 ADD SWAP4 SWAP2 SWAP3 DUP3 SWAP1 SUB ADD DUP2 DUP7 DUP1 EXTCODESIZE ISZERO DUP1 ISZERO PUSH2 0xE2C JUMPI PUSH1 0x0 DUP1 REVERT JUMPDEST POP GAS DELEGATECALL ISZERO DUP1 ISZERO PUSH2 0xE40 JUMPI RETURNDATASIZE PUSH1 0x0 DUP1 RETURNDATACOPY RETURNDATASIZE PUSH1 0x0 REVERT JUMPDEST POP POP POP POP PUSH1 0x40 MLOAD RETURNDATASIZE PUSH1 0x20 DUP2 LT ISZERO PUSH2 0xE56 JUMPI PUSH1 0x0 DUP1 REVERT JUMPDEST POP MLOAD SWAP10 SWAP9 POP POP POP POP POP POP POP POP POP JUMP JUMPDEST PUSH1 0x40 DUP1 MLOAD PUSH2 0x140 DUP2 ADD DUP3 MSTORE DUP8 DUP2 MSTORE PUSH1 0x20 DUP2 ADD DUP8 SWAP1 MSTORE PUSH10 0xFFFFFFFFFFFFFFFFFFFF NOT DUP7 AND SWAP2 DUP2 ADD SWAP2 SWAP1 SWAP2 MSTORE SWAP1 ISZERO ISZERO PUSH1 0x60 DUP3 ADD DUP2 SWAP1 MSTORE PUSH1 0x0 PUSH1 0x80 DUP4 ADD MSTORE PUSH1 0xFF SWAP8 DUP9 AND PUSH1 0xA0 DUP4 ADD DUP2 SWAP1 MSTORE PUSH1 0x1 PUSH1 0xC0 DUP5 ADD MSTORE SWAP4 DUP9 AND PUSH1 0xE0 DUP4 ADD DUP2 SWAP1 MSTORE SWAP3 SWAP1 SWAP8 AND PUSH2 0x100 DUP3 ADD DUP2 SWAP1 MSTORE TIMESTAMP PUSH4 0xFFFFFFFF AND PUSH2 0x120 SWAP1 SWAP3 ADD DUP3 SWAP1 MSTORE PUSH1 0x3 DUP10 ADD SWAP7 SWAP1 SWAP7 SSTORE PUSH1 0x4 DUP9 ADD SWAP5 SWAP1 SWAP5 SSTORE PUSH1 0x5 SWAP1 SWAP7 ADD DUP1 SLOAD PUSH1 0x1 PUSH1 0xC8 SHL PUSH1 0x1 PUSH1 0x1 PUSH1 0xB0 SHL SUB NOT SWAP1 SWAP2 AND PUSH1 0x50 SWAP5 SWAP1 SWAP5 SHR SWAP4 SWAP1 SWAP4 OR PUSH1 0xFF PUSH1 0xB0 SHL NOT AND PUSH1 0x1 PUSH1 0xB0 SHL SWAP1 SWAP7 MUL SWAP6 SWAP1 SWAP6 OR PUSH2 0xFFFF PUSH1 0xB8 SHL NOT AND PUSH1 0x1 PUSH1 0xC0 SHL SWAP1 SWAP2 MUL OR PUSH1 0xFF PUSH1 0xC8 SHL NOT AND OR PUSH1 0xFF PUSH1 0xD0 SHL NOT AND PUSH1 0x1 PUSH1 0xD0 SHL SWAP1 SWAP5 MUL SWAP4 SWAP1 SWAP4 OR PUSH1 0xFF PUSH1 0xD8 SHL NOT AND PUSH1 0x1 PUSH1 0xD8 SHL SWAP1 SWAP2 MUL OR PUSH1 0x1 PUSH1 0x1 PUSH1 0xE0 SHL SUB AND PUSH1 0x1 PUSH1 0xE0 SHL SWAP1 SWAP3 MUL SWAP2 SWAP1 SWAP2 OR SWAP1 SSTORE JUMP JUMPDEST PUSH1 0x5 DUP2 ADD SLOAD PUSH1 0x2 DUP1 DUP4 ADD DUP1 SLOAD PUSH1 0x40 DUP1 MLOAD PUSH1 0x20 PUSH2 0x100 PUSH1 0x1 DUP6 AND ISZERO MUL PUSH1 0x0 NOT ADD SWAP1 SWAP4 AND SWAP5 SWAP1 SWAP5 DIV PUSH1 0x1F DUP2 ADD DUP4 SWAP1 DIV DUP4 MUL DUP6 ADD DUP4 ADD SWAP1 SWAP2 MSTORE DUP1 DUP5 MSTORE PUSH1 0x1 PUSH1 0xC0 SHL SWAP1 SWAP5 DIV PUSH1 0xFF AND SWAP4 PUSH1 0x60 SWAP4 DUP5 SWAP4 PUSH1 0x0 SWAP4 DUP5 SWAP4 DUP5 SWAP4 DUP5 SWAP4 DUP5 SWAP4 SWAP2 SWAP3 SWAP1 SWAP2 DUP4 ADD DUP3 DUP3 DUP1 ISZERO PUSH2 0x101D JUMPI DUP1 PUSH1 0x1F LT PUSH2 0xFF2 JUMPI PUSH2 0x100 DUP1 DUP4 SLOAD DIV MUL DUP4 MSTORE SWAP2 PUSH1 0x20 ADD SWAP2 PUSH2 0x101D JUMP JUMPDEST DUP3 ADD SWAP2 SWAP1 PUSH1 0x0 MSTORE PUSH1 0x20 PUSH1 0x0 KECCAK256 SWAP1 JUMPDEST DUP2 SLOAD DUP2 MSTORE SWAP1 PUSH1 0x1 ADD SWAP1 PUSH1 0x20 ADD DUP1 DUP4 GT PUSH2 0x1000 JUMPI DUP3 SWAP1 SUB PUSH1 0x1F AND DUP3 ADD SWAP2 JUMPDEST POP POP POP POP POP SWAP7 POP PUSH2 0x1034 DUP10 PUSH1 0x3 ADD PUSH1 0x0 ADD SLOAD PUSH2 0x1919 JUMP JUMPDEST PUSH1 0x4 DUP11 ADD SLOAD PUSH1 0x5 SWAP1 SWAP11 ADD SLOAD SWAP9 SWAP11 SWAP8 SWAP10 SWAP1 SWAP9 SWAP1 SWAP8 PUSH1 0x50 DUP3 SWAP1 SHL SWAP8 POP PUSH1 0xFF PUSH1 0x1 PUSH1 0xD0 SHL DUP4 DIV DUP2 AND SWAP8 POP PUSH1 0x1 PUSH1 0xD8 SHL DUP4 DIV DUP2 AND SWAP7 POP PUSH1 0x1 PUSH1 0xB0 SHL SWAP1 SWAP3 DIV SWAP1 SWAP2 AND SWAP4 POP SWAP2 POP POP JUMP JUMPDEST PUSH1 0x0 PUSH1 0x60 DUP4 PUSH20 0x0 PUSH4 0x3B228BCF SWAP1 SWAP2 DUP6 PUSH1 0x40 MLOAD DUP4 PUSH4 0xFFFFFFFF AND PUSH1 0xE0 SHL DUP2 MSTORE PUSH1 0x4 ADD DUP1 DUP4 DUP2 MSTORE PUSH1 0x20 ADD DUP3 DUP2 MSTORE PUSH1 0x20 ADD SWAP3 POP POP POP PUSH1 0x0 PUSH1 0x40 MLOAD DUP1 DUP4 SUB DUP2 DUP7 DUP1 EXTCODESIZE ISZERO DUP1 ISZERO PUSH2 0x10D5 JUMPI PUSH1 0x0 DUP1 REVERT JUMPDEST POP GAS DELEGATECALL ISZERO DUP1 ISZERO PUSH2 0x10E9 JUMPI RETURNDATASIZE PUSH1 0x0 DUP1 RETURNDATACOPY RETURNDATASIZE PUSH1 0x0 REVERT JUMPDEST POP POP POP POP DUP4 SWAP2 POP DUP4 PUSH1 0x0 EQ ISZERO PUSH2 0x111A JUMPI POP PUSH1 0x40 DUP1 MLOAD DUP1 DUP3 ADD SWAP1 SWAP2 MSTORE PUSH1 0x4 DUP2 MSTORE PUSH4 0x149BDBDD PUSH1 0xE2 SHL PUSH1 0x20 DUP3 ADD MSTORE PUSH2 0x11A8 JUMP JUMPDEST PUSH1 0x2 DUP6 DUP2 ADD DUP1 SLOAD PUSH1 0x40 DUP1 MLOAD PUSH1 0x20 PUSH1 0x1 DUP5 AND ISZERO PUSH2 0x100 MUL PUSH1 0x0 NOT ADD SWAP1 SWAP4 AND SWAP5 SWAP1 SWAP5 DIV PUSH1 0x1F DUP2 ADD DUP4 SWAP1 DIV DUP4 MUL DUP6 ADD DUP4 ADD SWAP1 SWAP2 MSTORE DUP1 DUP5 MSTORE SWAP1 DUP4 ADD DUP3 DUP3 DUP1 ISZERO PUSH2 0x11A0 JUMPI DUP1 PUSH1 0x1F LT PUSH2 0x1175 JUMPI PUSH2 0x100 DUP1 DUP4 SLOAD DIV MUL DUP4 MSTORE SWAP2 PUSH1 0x20 ADD SWAP2 PUSH2 0x11A0 JUMP JUMPDEST DUP3 ADD SWAP2 SWAP1 PUSH1 0x0 MSTORE PUSH1 0x20 PUSH1 0x0 KECCAK256 SWAP1 JUMPDEST DUP2 SLOAD DUP2 MSTORE SWAP1 PUSH1 0x1 ADD SWAP1 PUSH1 0x20 ADD DUP1 DUP4 GT PUSH2 0x1183 JUMPI DUP3 SWAP1 SUB PUSH1 0x1F AND DUP3 ADD SWAP2 JUMPDEST POP POP POP POP POP SWAP1 POP JUMPDEST SWAP4 POP SWAP4 SWAP2 POP POP JUMP JUMPDEST PUSH1 0x0 PUSH2 0x11C0 DUP5 DUP8 PUSH1 0x8 ADD SLOAD PUSH2 0x2530 JUMP JUMPDEST PUSH2 0x11CB DUP4 DUP4 DUP8 PUSH2 0x11E2 JUMP JUMPDEST PUSH1 0x8 DUP9 ADD DUP2 SWAP1 SSTORE PUSH1 0x7 SWAP1 SWAP8 ADD SSTORE POP SWAP4 SWAP5 SWAP4 POP POP POP POP JUMP JUMPDEST PUSH1 0x4 DUP1 DUP5 ADD SLOAD PUSH1 0x0 DUP1 DUP1 MSTORE PUSH1 0x3 DUP7 ADD PUSH1 0x20 DUP2 DUP2 MSTORE PUSH1 0x40 DUP1 DUP5 KECCAK256 PUSH1 0x1 ADD SLOAD DUP2 MLOAD PUSH4 0x9DA9D57 PUSH1 0xE0 SHL DUP2 MSTORE SWAP7 DUP8 ADD SWAP4 SWAP1 SWAP4 MSTORE PUSH1 0x24 DUP7 ADD SWAP3 SWAP1 SWAP3 MSTORE PUSH1 0x44 DUP6 ADD DUP5 SWAP1 MSTORE PUSH1 0x64 DUP6 ADD DUP7 SWAP1 MSTORE SWAP1 MLOAD SWAP2 SWAP4 DUP5 SWAP4 SWAP3 PUSH20 0x0 SWAP3 PUSH4 0x9DA9D57 SWAP3 PUSH1 0x84 DUP1 DUP3 ADD SWAP4 SWAP2 DUP3 SWAP1 SUB ADD DUP2 DUP7 DUP1 EXTCODESIZE ISZERO DUP1 ISZERO PUSH2 0x1266 JUMPI PUSH1 0x0 DUP1 REVERT JUMPDEST POP GAS DELEGATECALL ISZERO DUP1 ISZERO PUSH2 0x127A JUMPI RETURNDATASIZE PUSH1 0x0 DUP1 RETURNDATACOPY RETURNDATASIZE PUSH1 0x0 REVERT JUMPDEST POP POP POP POP PUSH1 0x40 MLOAD RETURNDATASIZE PUSH1 0x20 DUP2 LT ISZERO PUSH2 0x1290 JUMPI PUSH1 0x0 DUP1 REVERT JUMPDEST POP MLOAD PUSH1 0x4 SWAP1 SWAP7 ADD DUP7 SWAP1 SSTORE POP SWAP3 SWAP5 SWAP3 POP POP POP JUMP JUMPDEST PUSH1 0x0 DUP8 DUP2 MSTORE PUSH1 0x20 DUP11 SWAP1 MSTORE PUSH1 0x40 DUP2 KECCAK256 PUSH2 0x12BA SWAP1 PUSH2 0x1EC2 JUMP JUMPDEST PUSH2 0x12C3 DUP9 PUSH2 0x1594 JUMP JUMPDEST PUSH1 0x0 DUP10 DUP2 MSTORE PUSH1 0x20 DUP8 SWAP1 MSTORE PUSH1 0x40 DUP1 DUP3 KECCAK256 SLOAD DUP2 MLOAD PUSH4 0x3B228BCF PUSH1 0xE0 SHL DUP2 MSTORE PUSH1 0x4 DUP2 ADD DUP13 SWAP1 MSTORE PUSH1 0x24 DUP2 ADD SWAP2 SWAP1 SWAP2 MSTORE SWAP1 MLOAD PUSH20 0x0 SWAP3 PUSH4 0x3B228BCF SWAP3 PUSH1 0x44 DUP1 DUP3 ADD SWAP4 SWAP2 DUP3 SWAP1 SUB ADD DUP2 DUP7 DUP1 EXTCODESIZE ISZERO DUP1 ISZERO PUSH2 0x1327 JUMPI PUSH1 0x0 DUP1 REVERT JUMPDEST POP GAS DELEGATECALL ISZERO DUP1 ISZERO PUSH2 0x133B JUMPI RETURNDATASIZE PUSH1 0x0 DUP1 RETURNDATACOPY RETURNDATASIZE PUSH1 0x0 REVERT JUMPDEST POP POP POP PUSH1 0x0 DUP11 DUP2 MSTORE PUSH1 0x20 DUP9 DUP2 MSTORE PUSH1 0x40 DUP1 DUP4 KECCAK256 SLOAD DUP13 DUP5 MSTORE SWAP2 DUP15 SWAP1 MSTORE DUP3 KECCAK256 SWAP1 SWAP4 POP SWAP1 SWAP2 POP PUSH2 0x136D SWAP1 DUP5 PUSH4 0xFFFFFFFF PUSH2 0x2631 AND JUMP JUMPDEST PUSH1 0x40 DUP1 MLOAD PUSH4 0x9D3527C7 PUSH1 0xE0 SHL DUP2 MSTORE PUSH1 0x4 DUP2 ADD DUP10 SWAP1 MSTORE PUSH1 0x24 DUP2 ADD DUP14 SWAP1 MSTORE PUSH1 0x44 DUP2 ADD DUP4 SWAP1 MSTORE PUSH1 0x64 DUP2 ADD DUP9 SWAP1 MSTORE PUSH1 0x84 DUP2 ADD DUP8 SWAP1 MSTORE SWAP1 MLOAD SWAP2 SWAP3 POP PUSH20 0x0 SWAP2 PUSH4 0x9D3527C7 SWAP2 PUSH1 0xA4 DUP1 DUP3 ADD SWAP3 PUSH1 0x0 SWAP3 SWAP1 SWAP2 SWAP1 DUP3 SWAP1 SUB ADD DUP2 DUP7 DUP1 EXTCODESIZE ISZERO DUP1 ISZERO PUSH2 0x13DF JUMPI PUSH1 0x0 DUP1 REVERT JUMPDEST POP GAS DELEGATECALL ISZERO DUP1 ISZERO PUSH2 0x13F3 JUMPI RETURNDATASIZE PUSH1 0x0 DUP1 RETURNDATACOPY RETURNDATASIZE PUSH1 0x0 REVERT JUMPDEST POP POP POP POP DUP1 PUSH20 0x0 PUSH4 0xB9FF4F84 SWAP1 SWAP2 PUSH1 0x40 MLOAD DUP3 PUSH4 0xFFFFFFFF AND PUSH1 0xE0 SHL DUP2 MSTORE PUSH1 0x4 ADD DUP1 DUP3 DUP2 MSTORE PUSH1 0x20 ADD SWAP2 POP POP PUSH1 0x0 PUSH1 0x40 MLOAD DUP1 DUP4 SUB DUP2 DUP7 DUP1 EXTCODESIZE ISZERO DUP1 ISZERO PUSH2 0x1448 JUMPI PUSH1 0x0 DUP1 REVERT JUMPDEST POP GAS DELEGATECALL ISZERO DUP1 ISZERO PUSH2 0x145C JUMPI RETURNDATASIZE PUSH1 0x0 DUP1 RETURNDATACOPY RETURNDATASIZE PUSH1 0x0 REVERT JUMPDEST POP POP POP PUSH1 0x0 DUP4 DUP2 MSTORE PUSH1 0x20 DUP14 SWAP1 MSTORE PUSH1 0x40 DUP1 DUP3 KECCAK256 DUP13 DUP4 MSTORE SWAP2 KECCAK256 DUP2 SLOAD DUP2 SSTORE PUSH1 0x1 DUP1 DUP4 ADD SLOAD DUP2 DUP4 ADD SSTORE PUSH1 0x2 DUP1 DUP5 ADD DUP1 SLOAD SWAP5 SWAP6 POP SWAP3 SWAP4 PUSH2 0x14AC SWAP4 DUP3 DUP7 ADD SWAP4 SWAP1 SWAP3 SWAP1 DUP3 AND ISZERO PUSH2 0x100 MUL PUSH1 0x0 NOT ADD SWAP1 SWAP2 AND DIV PUSH2 0x3188 JUMP JUMPDEST POP PUSH1 0x4 SWAP2 DUP3 ADD SLOAD SWAP1 DUP3 ADD SSTORE PUSH1 0x40 DUP1 MLOAD PUSH4 0x24F62119 PUSH1 0xE1 SHL DUP2 MSTORE SWAP2 DUP3 ADD DUP11 SWAP1 MSTORE PUSH1 0x24 DUP3 ADD DUP12 SWAP1 MSTORE PUSH1 0x44 DUP3 ADD DUP5 SWAP1 MSTORE PUSH1 0x0 PUSH1 0x64 DUP4 ADD MSTORE MLOAD PUSH20 0x0 SWAP2 PUSH4 0x49EC4232 SWAP2 PUSH1 0x84 DUP1 DUP4 ADD SWAP3 PUSH1 0x20 SWAP3 SWAP2 SWAP1 DUP3 SWAP1 SUB ADD DUP2 DUP7 DUP1 EXTCODESIZE ISZERO DUP1 ISZERO PUSH2 0x151C JUMPI PUSH1 0x0 DUP1 REVERT JUMPDEST POP GAS DELEGATECALL ISZERO DUP1 ISZERO PUSH2 0x1530 JUMPI RETURNDATASIZE PUSH1 0x0 DUP1 RETURNDATACOPY RETURNDATASIZE PUSH1 0x0 REVERT JUMPDEST POP POP POP POP PUSH1 0x40 MLOAD RETURNDATASIZE PUSH1 0x20 DUP2 LT ISZERO PUSH2 0x1546 JUMPI PUSH1 0x0 DUP1 REVERT JUMPDEST POP MLOAD PUSH1 0x0 DUP12 DUP2 MSTORE PUSH1 0x20 DUP10 DUP2 MSTORE PUSH1 0x40 DUP1 DUP4 KECCAK256 SWAP4 SWAP1 SWAP4 SSTORE DUP5 DUP3 MSTORE DUP14 SWAP1 MSTORE SWAP1 DUP2 KECCAK256 DUP2 DUP2 SSTORE PUSH1 0x1 DUP2 ADD DUP3 SWAP1 SSTORE SWAP1 PUSH2 0x157C PUSH1 0x2 DUP4 ADD DUP3 PUSH2 0x31FD JUMP JUMPDEST PUSH1 0x4 DUP3 ADD PUSH1 0x0 SWAP1 SSTORE POP POP POP SWAP10 SWAP9 POP POP POP POP POP POP POP POP POP JUMP JUMPDEST PUSH1 0x0 DUP2 GT PUSH2 0x15D9 JUMPI PUSH1 0x40 DUP1 MLOAD PUSH3 0x461BCD PUSH1 0xE5 SHL DUP2 MSTORE PUSH1 0x20 PUSH1 0x4 DUP3 ADD MSTORE PUSH1 0xD PUSH1 0x24 DUP3 ADD MSTORE PUSH13 0x5265736572766564204974656D PUSH1 0x98 SHL PUSH1 0x44 DUP3 ADD MSTORE SWAP1 MLOAD SWAP1 DUP2 SWAP1 SUB PUSH1 0x64 ADD SWAP1 REVERT JUMPDEST POP JUMP JUMPDEST PUSH1 0x40 DUP1 MLOAD PUSH4 0xD0959375 PUSH1 0xE0 SHL DUP2 MSTORE PUSH1 0x4 DUP2 ADD DUP10 SWAP1 MSTORE PUSH1 0x1 PUSH1 0x1 PUSH1 0xA0 SHL SUB DUP4 AND PUSH1 0x24 DUP3 ADD MSTORE SWAP1 MLOAD PUSH20 0x0 SWAP2 PUSH4 0xD0959375 SWAP2 PUSH1 0x44 DUP1 DUP4 ADD SWAP3 PUSH1 0x0 SWAP3 SWAP2 SWAP1 DUP3 SWAP1 SUB ADD DUP2 DUP7 DUP1 EXTCODESIZE ISZERO DUP1 ISZERO PUSH2 0x163D JUMPI PUSH1 0x0 DUP1 REVERT JUMPDEST POP GAS DELEGATECALL ISZERO DUP1 ISZERO PUSH2 0x1651 JUMPI RETURNDATASIZE PUSH1 0x0 DUP1 RETURNDATACOPY RETURNDATASIZE PUSH1 0x0 REVERT JUMPDEST POP POP POP POP PUSH20 0x0 PUSH4 0xF32FDA4C DUP10 DUP10 PUSH1 0x40 MLOAD DUP4 PUSH4 0xFFFFFFFF AND PUSH1 0xE0 SHL DUP2 MSTORE PUSH1 0x4 ADD DUP1 DUP4 DUP2 MSTORE PUSH1 0x20 ADD DUP3 DUP2 MSTORE PUSH1 0x20 ADD SWAP3 POP POP POP PUSH1 0x0 PUSH1 0x40 MLOAD DUP1 DUP4 SUB DUP2 DUP7 DUP1 EXTCODESIZE ISZERO DUP1 ISZERO PUSH2 0x16AC JUMPI PUSH1 0x0 DUP1 REVERT JUMPDEST POP GAS DELEGATECALL ISZERO DUP1 ISZERO PUSH2 0x16C0 JUMPI RETURNDATASIZE PUSH1 0x0 DUP1 RETURNDATACOPY RETURNDATASIZE PUSH1 0x0 REVERT JUMPDEST POP POP POP PUSH1 0x0 DUP10 DUP2 MSTORE PUSH1 0x20 DUP8 SWAP1 MSTORE PUSH1 0x40 DUP1 DUP3 KECCAK256 SLOAD DUP2 MLOAD PUSH4 0x3B228BCF PUSH1 0xE0 SHL DUP2 MSTORE PUSH1 0x4 DUP2 ADD DUP12 SWAP1 MSTORE PUSH1 0x24 DUP2 ADD SWAP2 SWAP1 SWAP2 MSTORE SWAP1 MLOAD PUSH20 0x0 SWAP4 POP PUSH4 0x3B228BCF SWAP3 PUSH1 0x44 DUP1 DUP5 ADD SWAP4 SWAP2 SWAP3 SWAP2 DUP3 SWAP1 SUB ADD DUP2 DUP7 DUP1 EXTCODESIZE ISZERO DUP1 ISZERO PUSH2 0x172A JUMPI PUSH1 0x0 DUP1 REVERT JUMPDEST POP GAS DELEGATECALL ISZERO DUP1 ISZERO PUSH2 0x173E JUMPI RETURNDATASIZE PUSH1 0x0 DUP1 RETURNDATACOPY RETURNDATASIZE PUSH1 0x0 REVERT JUMPDEST POP POP POP PUSH1 0x0 DUP10 DUP2 MSTORE PUSH1 0x20 DUP12 DUP2 MSTORE PUSH1 0x40 DUP1 DUP4 KECCAK256 DUP11 DUP5 MSTORE SWAP1 SWAP2 MSTORE SWAP1 KECCAK256 PUSH2 0x1769 SWAP2 POP DUP4 PUSH4 0xFFFFFFFF PUSH2 0x2631 AND JUMP JUMPDEST PUSH20 0x0 PUSH4 0xEC05C53A SWAP1 SWAP2 PUSH1 0x40 MLOAD DUP3 PUSH4 0xFFFFFFFF AND PUSH1 0xE0 SHL DUP2 MSTORE PUSH1 0x4 ADD DUP1 DUP3 DUP2 MSTORE PUSH1 0x20 ADD SWAP2 POP POP PUSH1 0x0 PUSH1 0x40 MLOAD DUP1 DUP4 SUB DUP2 DUP7 DUP1 EXTCODESIZE ISZERO DUP1 ISZERO PUSH2 0x17B9 JUMPI PUSH1 0x0 DUP1 REVERT JUMPDEST POP GAS DELEGATECALL ISZERO DUP1 ISZERO PUSH2 0x17CD JUMPI RETURNDATASIZE PUSH1 0x0 DUP1 RETURNDATACOPY RETURNDATASIZE PUSH1 0x0 REVERT JUMPDEST POP POP POP PUSH1 0x0 DUP10 DUP2 MSTORE PUSH1 0x20 DUP12 DUP2 MSTORE PUSH1 0x40 DUP1 DUP4 KECCAK256 DUP11 DUP5 MSTORE SWAP1 SWAP2 MSTORE SWAP1 KECCAK256 PUSH2 0x17F1 SWAP2 POP PUSH2 0x230B JUMP JUMPDEST PUSH1 0x0 DUP9 DUP2 MSTORE PUSH1 0x20 DUP6 DUP2 MSTORE PUSH1 0x40 DUP1 DUP4 KECCAK256 DUP13 DUP4 MSTORE DUP2 DUP5 KECCAK256 DUP11 DUP6 MSTORE DUP4 MSTORE DUP2 DUP5 KECCAK256 PUSH1 0x7 ADD SLOAD DUP5 MSTORE SWAP1 SWAP2 MSTORE SWAP1 KECCAK256 PUSH2 0x1829 SWAP1 DUP4 PUSH4 0xFFFFFFFF PUSH2 0x2631 AND JUMP JUMPDEST PUSH20 0x0 PUSH4 0xEC05C53A SWAP1 SWAP2 PUSH1 0x40 MLOAD DUP3 PUSH4 0xFFFFFFFF AND PUSH1 0xE0 SHL DUP2 MSTORE PUSH1 0x4 ADD DUP1 DUP3 DUP2 MSTORE PUSH1 0x20 ADD SWAP2 POP POP PUSH1 0x0 PUSH1 0x40 MLOAD DUP1 DUP4 SUB DUP2 DUP7 DUP1 EXTCODESIZE ISZERO DUP1 ISZERO PUSH2 0x1879 JUMPI PUSH1 0x0 DUP1 REVERT JUMPDEST POP GAS DELEGATECALL ISZERO DUP1 ISZERO PUSH2 0x188D JUMPI RETURNDATASIZE PUSH1 0x0 DUP1 RETURNDATACOPY RETURNDATASIZE PUSH1 0x0 REVERT JUMPDEST POP POP POP PUSH1 0x0 DUP9 DUP2 MSTORE PUSH1 0x20 DUP6 SWAP1 MSTORE PUSH1 0x40 DUP1 DUP3 KECCAK256 DUP2 MLOAD PUSH4 0x272EA421 PUSH1 0xE1 SHL DUP2 MSTORE PUSH1 0x4 DUP2 ADD SWAP2 SWAP1 SWAP2 MSTORE PUSH1 0x24 DUP2 ADD DUP13 SWAP1 MSTORE SWAP1 MLOAD PUSH20 0x0 SWAP4 POP PUSH4 0x4E5D4842 SWAP3 PUSH1 0x44 DUP1 DUP5 ADD SWAP4 SWAP2 SWAP3 SWAP2 DUP3 SWAP1 SUB ADD DUP2 DUP7 DUP1 EXTCODESIZE ISZERO DUP1 ISZERO PUSH2 0x18F6 JUMPI PUSH1 0x0 DUP1 REVERT JUMPDEST POP GAS DELEGATECALL ISZERO DUP1 ISZERO PUSH2 0x190A JUMPI RETURNDATASIZE PUSH1 0x0 DUP1 RETURNDATACOPY RETURNDATASIZE PUSH1 0x0 REVERT JUMPDEST POP POP POP POP POP POP POP POP POP POP POP POP POP JUMP JUMPDEST PUSH1 0x40 DUP1 MLOAD PUSH1 0x20 DUP1 DUP3 MSTORE DUP2 DUP4 ADD SWAP1 SWAP3 MSTORE PUSH1 0x60 SWAP2 DUP3 SWAP2 SWAP1 PUSH1 0x20 DUP3 ADD DUP2 DUP1 CODESIZE DUP4 CODECOPY ADD SWAP1 POP POP SWAP1 POP PUSH1 0x0 DUP1 JUMPDEST PUSH1 0x20 DUP2 LT ISZERO PUSH2 0x1997 JUMPI PUSH1 0x8 DUP2 MUL PUSH1 0x2 EXP DUP6 MUL PUSH1 0x1 PUSH1 0x1 PUSH1 0xF8 SHL SUB NOT DUP2 AND ISZERO PUSH2 0x198E JUMPI DUP1 DUP5 DUP5 DUP2 MLOAD DUP2 LT PUSH2 0x1970 JUMPI INVALID JUMPDEST PUSH1 0x20 ADD ADD SWAP1 PUSH1 0x1 PUSH1 0x1 PUSH1 0xF8 SHL SUB NOT AND SWAP1 DUP2 PUSH1 0x0 BYTE SWAP1 MSTORE8 POP PUSH1 0x1 SWAP1 SWAP3 ADD SWAP2 JUMPDEST POP PUSH1 0x1 ADD PUSH2 0x1941 JUMP JUMPDEST POP PUSH1 0x60 DUP2 PUSH1 0x40 MLOAD SWAP1 DUP1 DUP3 MSTORE DUP1 PUSH1 0x1F ADD PUSH1 0x1F NOT AND PUSH1 0x20 ADD DUP3 ADD PUSH1 0x40 MSTORE DUP1 ISZERO PUSH2 0x19C5 JUMPI PUSH1 0x20 DUP3 ADD DUP2 DUP1 CODESIZE DUP4 CODECOPY ADD SWAP1 POP JUMPDEST POP SWAP1 POP PUSH1 0x0 JUMPDEST DUP3 DUP2 LT ISZERO PUSH2 0x1A15 JUMPI DUP4 DUP2 DUP2 MLOAD DUP2 LT PUSH2 0x19DF JUMPI INVALID JUMPDEST PUSH1 0x20 ADD ADD MLOAD PUSH1 0xF8 SHR PUSH1 0xF8 SHL DUP3 DUP3 DUP2 MLOAD DUP2 LT PUSH2 0x19F6 JUMPI INVALID JUMPDEST PUSH1 0x20 ADD ADD SWAP1 PUSH1 0x1 PUSH1 0x1 PUSH1 0xF8 SHL SUB NOT AND SWAP1 DUP2 PUSH1 0x0 BYTE SWAP1 MSTORE8 POP PUSH1 0x1 ADD PUSH2 0x19CB JUMP JUMPDEST POP SWAP5 SWAP4 POP POP POP POP JUMP JUMPDEST PUSH1 0x0 DUP3 DUP2 MSTORE PUSH1 0x20 DUP5 SWAP1 MSTORE PUSH1 0x40 DUP1 DUP3 KECCAK256 DUP2 MLOAD PUSH4 0x4DCC1CEB PUSH1 0xE1 SHL DUP2 MSTORE PUSH1 0x4 DUP2 ADD SWAP2 SWAP1 SWAP2 MSTORE PUSH1 0x24 DUP2 ADD DUP6 SWAP1 MSTORE SWAP1 MLOAD PUSH20 0x0 SWAP2 PUSH4 0x9B9839D6 SWAP2 PUSH1 0x44 DUP1 DUP4 ADD SWAP3 DUP7 SWAP3 SWAP2 SWAP1 DUP3 SWAP1 SUB ADD DUP2 DUP7 DUP1 EXTCODESIZE ISZERO DUP1 ISZERO PUSH2 0x1A84 JUMPI PUSH1 0x0 DUP1 REVERT JUMPDEST POP GAS DELEGATECALL ISZERO DUP1 ISZERO PUSH2 0x1A98 JUMPI RETURNDATASIZE PUSH1 0x0 DUP1 RETURNDATACOPY RETURNDATASIZE PUSH1 0x0 REVERT JUMPDEST POP PUSH2 0x1AAF SWAP3 POP DUP10 SWAP2 POP DUP5 SWAP1 POP PUSH4 0xFFFFFFFF PUSH2 0x2631 AND JUMP JUMPDEST PUSH20 0x0 PUSH4 0xEC05C53A SWAP1 SWAP2 PUSH1 0x40 MLOAD DUP3 PUSH4 0xFFFFFFFF AND PUSH1 0xE0 SHL DUP2 MSTORE PUSH1 0x4 ADD DUP1 DUP3 DUP2 MSTORE PUSH1 0x20 ADD SWAP2 POP POP PUSH1 0x0 PUSH1 0x40 MLOAD DUP1 DUP4 SUB DUP2 DUP7 DUP1 EXTCODESIZE ISZERO DUP1 ISZERO PUSH2 0x1AFF JUMPI PUSH1 0x0 DUP1 REVERT JUMPDEST POP GAS DELEGATECALL ISZERO DUP1 ISZERO PUSH2 0x1B13 JUMPI RETURNDATASIZE PUSH1 0x0 DUP1 RETURNDATACOPY RETURNDATASIZE PUSH1 0x0 REVERT JUMPDEST POP POP POP PUSH1 0x7 DUP9 ADD SLOAD PUSH1 0x0 SWAP1 DUP2 MSTORE PUSH1 0x20 DUP8 SWAP1 MSTORE PUSH1 0x40 SWAP1 KECCAK256 PUSH2 0x1B3A SWAP2 POP DUP4 PUSH4 0xFFFFFFFF PUSH2 0x2631 AND JUMP JUMPDEST PUSH20 0x0 PUSH4 0xEC05C53A SWAP1 SWAP2 PUSH1 0x40 MLOAD DUP3 PUSH4 0xFFFFFFFF AND PUSH1 0xE0 SHL DUP2 MSTORE PUSH1 0x4 ADD DUP1 DUP3 DUP2 MSTORE PUSH1 0x20 ADD SWAP2 POP POP PUSH1 0x0 PUSH1 0x40 MLOAD DUP1 DUP4 SUB DUP2 DUP7 DUP1 EXTCODESIZE ISZERO DUP1 ISZERO PUSH2 0x1B8A JUMPI PUSH1 0x0 DUP1 REVERT JUMPDEST POP GAS DELEGATECALL ISZERO DUP1 ISZERO PUSH2 0x1B9E JUMPI RETURNDATASIZE PUSH1 0x0 DUP1 RETURNDATACOPY RETURNDATASIZE PUSH1 0x0 REVERT JUMPDEST POP POP POP PUSH1 0x0 DUP5 DUP2 MSTORE PUSH1 0x20 DUP8 SWAP1 MSTORE PUSH1 0x40 SWAP1 KECCAK256 PUSH2 0x1BC0 SWAP2 POP DUP4 PUSH4 0xFFFFFFFF PUSH2 0x2631 AND JUMP JUMPDEST PUSH20 0x0 PUSH4 0xEC05C53A SWAP1 SWAP2 PUSH1 0x40 MLOAD DUP3 PUSH4 0xFFFFFFFF AND PUSH1 0xE0 SHL DUP2 MSTORE PUSH1 0x4 ADD DUP1 DUP3 DUP2 MSTORE PUSH1 0x20 ADD SWAP2 POP POP PUSH1 0x0 PUSH1 0x40 MLOAD DUP1 DUP4 SUB DUP2 DUP7 DUP1 EXTCODESIZE ISZERO DUP1 ISZERO PUSH2 0x1C10 JUMPI PUSH1 0x0 DUP1 REVERT JUMPDEST POP GAS DELEGATECALL ISZERO DUP1 ISZERO PUSH2 0x1C24 JUMPI RETURNDATASIZE PUSH1 0x0 DUP1 RETURNDATACOPY RETURNDATASIZE PUSH1 0x0 REVERT JUMPDEST POP POP POP PUSH1 0x7 DUP9 ADD SLOAD PUSH1 0x0 SWAP1 DUP2 MSTORE PUSH1 0x20 DUP8 SWAP1 MSTORE PUSH1 0x40 DUP1 DUP3 KECCAK256 DUP7 DUP4 MSTORE SWAP2 KECCAK256 PUSH2 0x1C4F SWAP3 POP DUP10 SWAP2 DUP10 SWAP2 DUP8 PUSH2 0x11B0 JUMP JUMPDEST SWAP8 SWAP7 POP POP POP POP POP POP POP JUMP JUMPDEST PUSH1 0x0 DUP11 DUP2 MSTORE PUSH1 0x20 DUP8 SWAP1 MSTORE PUSH1 0x40 DUP1 DUP3 KECCAK256 SLOAD DUP2 MLOAD PUSH4 0x3B228BCF PUSH1 0xE0 SHL DUP2 MSTORE PUSH1 0x4 DUP2 ADD DUP14 SWAP1 MSTORE PUSH1 0x24 DUP2 ADD SWAP2 SWAP1 SWAP2 MSTORE SWAP1 MLOAD PUSH20 0x0 SWAP3 PUSH4 0x3B228BCF SWAP3 PUSH1 0x44 DUP1 DUP3 ADD SWAP4 SWAP2 DUP3 SWAP1 SUB ADD DUP2 DUP7 DUP1 EXTCODESIZE ISZERO DUP1 ISZERO PUSH2 0x1CBE JUMPI PUSH1 0x0 DUP1 REVERT JUMPDEST POP GAS DELEGATECALL ISZERO DUP1 ISZERO PUSH2 0x1CD2 JUMPI RETURNDATASIZE PUSH1 0x0 DUP1 RETURNDATACOPY RETURNDATASIZE PUSH1 0x0 REVERT JUMPDEST POP POP POP POP DUP8 PUSH20 0x0 PUSH4 0xEC05C53A SWAP1 SWAP2 PUSH1 0x40 MLOAD DUP3 PUSH4 0xFFFFFFFF AND PUSH1 0xE0 SHL DUP2 MSTORE PUSH1 0x4 ADD DUP1 DUP3 DUP2 MSTORE PUSH1 0x20 ADD SWAP2 POP POP PUSH1 0x0 PUSH1 0x40 MLOAD DUP1 DUP4 SUB DUP2 DUP7 DUP1 EXTCODESIZE ISZERO DUP1 ISZERO PUSH2 0x1D27 JUMPI PUSH1 0x0 DUP1 REVERT JUMPDEST POP GAS DELEGATECALL ISZERO DUP1 ISZERO PUSH2 0x1D3B JUMPI RETURNDATASIZE PUSH1 0x0 DUP1 RETURNDATACOPY RETURNDATASIZE PUSH1 0x0 REVERT JUMPDEST POP POP POP PUSH1 0x0 DUP11 DUP2 MSTORE PUSH1 0x20 DUP14 SWAP1 MSTORE PUSH1 0x40 DUP1 DUP3 KECCAK256 PUSH1 0x8 ADD SLOAD DUP2 MLOAD PUSH4 0x4DCC1CEB PUSH1 0xE1 SHL DUP2 MSTORE PUSH1 0x4 DUP2 ADD DUP10 SWAP1 MSTORE PUSH1 0x24 DUP2 ADD SWAP2 SWAP1 SWAP2 MSTORE SWAP1 MLOAD PUSH20 0x0 SWAP4 POP PUSH4 0x9B9839D6 SWAP3 PUSH1 0x44 DUP1 DUP5 ADD SWAP4 SWAP2 SWAP3 SWAP2 DUP3 SWAP1 SUB ADD DUP2 DUP7 DUP1 EXTCODESIZE ISZERO DUP1 ISZERO PUSH2 0x1DA8 JUMPI PUSH1 0x0 DUP1 REVERT JUMPDEST POP GAS DELEGATECALL ISZERO DUP1 ISZERO PUSH2 0x1DBC JUMPI RETURNDATASIZE PUSH1 0x0 DUP1 RETURNDATACOPY RETURNDATASIZE PUSH1 0x0 REVERT JUMPDEST POP POP POP PUSH1 0x0 DUP11 DUP2 MSTORE PUSH1 0x20 DUP14 SWAP1 MSTORE PUSH1 0x40 SWAP1 KECCAK256 PUSH2 0x1DD7 SWAP2 POP PUSH2 0x230B JUMP JUMPDEST PUSH2 0x1DE4 DUP11 DUP10 DUP6 DUP6 DUP6 PUSH2 0x2652 JUMP JUMPDEST PUSH1 0x0 DUP10 DUP2 MSTORE PUSH1 0x20 DUP13 SWAP1 MSTORE PUSH1 0x40 DUP2 KECCAK256 DUP2 DUP2 SSTORE PUSH1 0x1 DUP2 ADD DUP3 SWAP1 SSTORE SWAP1 PUSH2 0x1E0A PUSH1 0x2 DUP4 ADD DUP3 PUSH2 0x31FD JUMP JUMPDEST POP PUSH1 0x0 PUSH1 0x3 DUP3 ADD DUP2 SWAP1 SSTORE PUSH1 0x4 DUP3 ADD DUP2 SWAP1 SSTORE PUSH1 0x5 DUP3 ADD DUP2 SWAP1 SSTORE PUSH1 0x7 DUP3 ADD DUP2 SWAP1 SSTORE PUSH1 0x8 DUP3 ADD DUP2 SWAP1 SSTORE PUSH1 0x9 DUP3 ADD DUP2 SWAP1 SSTORE PUSH1 0xA SWAP1 SWAP2 ADD SSTORE PUSH2 0x1E4B DUP12 DUP12 DUP12 DUP11 DUP11 DUP11 PUSH2 0x273D JUMP JUMPDEST POP POP POP POP POP POP POP POP POP POP POP JUMP JUMPDEST PUSH2 0xD3F DUP7 DUP7 DUP7 DUP7 DUP7 DUP7 PUSH2 0x299B JUMP JUMPDEST DUP1 DUP3 PUSH1 0x9 ADD SLOAD EQ PUSH2 0x1EBE JUMPI PUSH1 0x40 DUP1 MLOAD PUSH3 0x461BCD PUSH1 0xE5 SHL DUP2 MSTORE PUSH1 0x20 PUSH1 0x4 DUP3 ADD MSTORE PUSH1 0x1D PUSH1 0x24 DUP3 ADD MSTORE PUSH32 0x46696C65206E6F74206D61726B656420666F72205472616E7366657273000000 PUSH1 0x44 DUP3 ADD MSTORE SWAP1 MLOAD SWAP1 DUP2 SWAP1 SUB PUSH1 0x64 ADD SWAP1 REVERT JUMPDEST POP POP JUMP JUMPDEST PUSH1 0x4 DUP2 ADD SLOAD ISZERO PUSH2 0x15D9 JUMPI PUSH1 0x40 DUP1 MLOAD PUSH3 0x461BCD PUSH1 0xE5 SHL DUP2 MSTORE PUSH1 0x20 PUSH1 0x4 DUP3 ADD MSTORE PUSH1 0xF PUSH1 0x24 DUP3 ADD MSTORE PUSH15 0x47726F7570206861732046696C6573 PUSH1 0x88 SHL PUSH1 0x44 DUP3 ADD MSTORE SWAP1 MLOAD SWAP1 DUP2 SWAP1 SUB PUSH1 0x64 ADD SWAP1 REVERT JUMPDEST PUSH1 0x0 PUSH20 0x0 PUSH4 0xA97FFBE2 DUP4 PUSH1 0x0 DUP10 DUP2 MSTORE PUSH1 0x20 ADD SWAP1 DUP2 MSTORE PUSH1 0x20 ADD PUSH1 0x0 KECCAK256 SLOAD PUSH1 0x40 MLOAD DUP3 PUSH4 0xFFFFFFFF AND PUSH1 0xE0 SHL DUP2 MSTORE PUSH1 0x4 ADD DUP1 DUP3 DUP2 MSTORE PUSH1 0x20 ADD SWAP2 POP POP PUSH1 0x0 PUSH1 0x40 MLOAD DUP1 DUP4 SUB DUP2 DUP7 DUP1 EXTCODESIZE ISZERO DUP1 ISZERO PUSH2 0x1F6E JUMPI PUSH1 0x0 DUP1 REVERT JUMPDEST POP GAS DELEGATECALL ISZERO DUP1 ISZERO PUSH2 0x1F82 JUMPI RETURNDATASIZE PUSH1 0x0 DUP1 RETURNDATACOPY RETURNDATASIZE PUSH1 0x0 REVERT JUMPDEST POP POP POP PUSH1 0x0 DUP7 DUP2 MSTORE PUSH1 0x20 DUP5 SWAP1 MSTORE PUSH1 0x40 SWAP1 KECCAK256 SLOAD SWAP1 POP PUSH2 0x1FA7 DUP2 PUSH1 0x1 PUSH4 0xFFFFFFFF PUSH2 0x2B9B AND JUMP JUMPDEST PUSH1 0x0 DUP9 DUP2 MSTORE PUSH1 0x20 DUP11 DUP2 MSTORE PUSH1 0x40 DUP1 DUP4 KECCAK256 DUP10 DUP5 MSTORE DUP3 MSTORE DUP1 DUP4 KECCAK256 DUP11 DUP5 MSTORE DUP13 DUP4 MSTORE DUP2 DUP5 KECCAK256 DUP6 DUP6 MSTORE SWAP1 SWAP3 MSTORE SWAP1 SWAP2 KECCAK256 DUP2 SLOAD DUP2 SSTORE PUSH1 0x1 DUP1 DUP4 ADD SLOAD DUP2 DUP4 ADD SSTORE PUSH1 0x2 DUP1 DUP5 ADD DUP1 SLOAD SWAP6 SWAP8 POP SWAP4 SWAP5 SWAP3 SWAP4 PUSH2 0x2009 SWAP4 DUP3 DUP7 ADD SWAP4 SWAP2 SWAP3 SWAP2 DUP2 AND ISZERO PUSH2 0x100 MUL PUSH1 0x0 NOT ADD AND DIV PUSH2 0x3188 JUMP JUMPDEST POP PUSH1 0x3 DUP3 DUP2 ADD SLOAD SWAP1 DUP3 ADD SSTORE PUSH1 0x4 DUP1 DUP4 ADD SLOAD SWAP1 DUP3 ADD SSTORE PUSH1 0x5 DUP1 DUP4 ADD DUP1 SLOAD DUP3 DUP5 ADD DUP1 SLOAD PUSH1 0x1 PUSH1 0x1 PUSH1 0xB0 SHL SUB NOT AND PUSH1 0x1 PUSH1 0x1 PUSH1 0xB0 SHL SUB SWAP1 SWAP3 AND SWAP2 SWAP1 SWAP2 OR DUP1 DUP3 SSTORE DUP3 SLOAD PUSH1 0xFF PUSH1 0xB0 SHL NOT SWAP1 SWAP2 AND PUSH1 0x1 PUSH1 0xB0 SHL SWAP2 DUP3 SWAP1 DIV PUSH1 0xFF SWAP1 DUP2 AND ISZERO ISZERO SWAP1 SWAP3 MUL OR DUP1 DUP4 SSTORE DUP4 SLOAD PUSH1 0xFF PUSH1 0xB8 SHL NOT SWAP1 SWAP2 AND PUSH1 0x1 PUSH1 0xB8 SHL SWAP2 DUP3 SWAP1 DIV DUP4 AND ISZERO ISZERO SWAP1 SWAP2 MUL OR DUP1 DUP4 SSTORE DUP4 SLOAD PUSH1 0xFF PUSH1 0xC0 SHL NOT SWAP1 SWAP2 AND PUSH1 0x1 PUSH1 0xC0 SHL SWAP2 DUP3 SWAP1 DIV DUP4 AND SWAP1 SWAP2 MUL OR DUP1 DUP4 SSTORE DUP4 SLOAD PUSH1 0xFF PUSH1 0xC8 SHL NOT SWAP1 SWAP2 AND PUSH1 0x1 PUSH1 0xC8 SHL SWAP2 DUP3 SWAP1 DIV DUP4 AND DUP3 MUL OR DUP1 DUP5 SSTORE DUP5 SLOAD PUSH1 0xFF PUSH1 0xD0 SHL NOT SWAP1 SWAP2 AND PUSH1 0x1 PUSH1 0xD0 SHL SWAP2 DUP3 SWAP1 DIV DUP5 AND SWAP1 SWAP2 MUL OR DUP1 DUP5 SSTORE DUP5 SLOAD PUSH1 0xFF PUSH1 0xD8 SHL NOT SWAP1 SWAP2 AND PUSH1 0x1 PUSH1 0xD8 SHL SWAP2 DUP3 SWAP1 DIV DUP5 AND SWAP1 SWAP2 MUL OR DUP1 DUP5 SSTORE SWAP4 SLOAD PUSH1 0x1 PUSH1 0x1 PUSH1 0xE0 SHL SUB SWAP1 SWAP5 AND PUSH1 0x1 PUSH1 0xE0 SHL SWAP5 DUP6 SWAP1 DIV PUSH4 0xFFFFFFFF SWAP1 DUP2 AND SWAP1 SWAP6 MUL OR SWAP1 SWAP3 SSTORE PUSH1 0x7 DUP1 DUP8 ADD SLOAD SWAP1 DUP7 ADD SSTORE PUSH1 0x8 DUP1 DUP8 ADD SLOAD SWAP1 DUP7 ADD SSTORE PUSH1 0x9 DUP1 DUP8 ADD SLOAD SWAP1 DUP7 ADD SSTORE PUSH1 0xA SWAP6 DUP7 ADD SLOAD SWAP6 SWAP1 SWAP5 ADD SWAP5 SWAP1 SWAP5 SSTORE PUSH1 0x0 DUP11 DUP2 MSTORE PUSH1 0x20 DUP14 DUP2 MSTORE PUSH1 0x40 DUP1 DUP4 KECCAK256 DUP10 DUP5 MSTORE SWAP1 SWAP2 MSTORE DUP2 KECCAK256 SWAP1 SWAP3 ADD SLOAD SWAP2 SWAP4 PUSH2 0x217B SWAP4 SWAP3 DIV SWAP1 SWAP2 AND SWAP1 PUSH1 0x1 SWAP1 PUSH2 0x2BB4 AND JUMP JUMPDEST PUSH1 0x0 DUP9 DUP2 MSTORE PUSH1 0x20 DUP12 DUP2 MSTORE PUSH1 0x40 DUP1 DUP4 KECCAK256 DUP8 DUP5 MSTORE DUP3 MSTORE DUP1 DUP4 KECCAK256 PUSH1 0xFF DUP6 AND DUP1 DUP6 MSTORE PUSH1 0xB DUP3 ADD DUP5 MSTORE DUP3 DUP6 KECCAK256 DUP14 SWAP1 SSTORE PUSH1 0x5 SWAP1 SWAP2 ADD DUP1 SLOAD PUSH3 0xFF00FF PUSH1 0xB8 SHL NOT AND PUSH1 0x1 PUSH1 0xC8 SHL SWAP1 SWAP3 MUL SWAP2 SWAP1 SWAP2 OR SWAP1 SSTORE DUP11 DUP4 MSTORE DUP9 DUP3 MSTORE DUP1 DUP4 KECCAK256 DUP4 DUP1 MSTORE DUP1 DUP4 MSTORE DUP2 DUP5 KECCAK256 PUSH1 0x1 ADD SLOAD DUP3 MLOAD PUSH4 0x9DA9D57 PUSH1 0xE0 SHL DUP2 MSTORE PUSH1 0x4 DUP2 ADD SWAP3 SWAP1 SWAP3 MSTORE PUSH1 0x24 DUP3 ADD MSTORE PUSH1 0x44 DUP2 ADD DUP8 SWAP1 MSTORE PUSH1 0x64 DUP2 ADD SWAP4 SWAP1 SWAP4 MSTORE MLOAD SWAP3 SWAP4 POP PUSH20 0x0 SWAP3 PUSH4 0x9DA9D57 SWAP3 PUSH1 0x84 DUP1 DUP3 ADD SWAP4 SWAP3 SWAP2 DUP3 SWAP1 SUB ADD DUP2 DUP7 DUP1 EXTCODESIZE ISZERO DUP1 ISZERO PUSH2 0x223D JUMPI PUSH1 0x0 DUP1 REVERT JUMPDEST POP GAS DELEGATECALL ISZERO DUP1 ISZERO PUSH2 0x2251 JUMPI RETURNDATASIZE PUSH1 0x0 DUP1 RETURNDATACOPY RETURNDATASIZE PUSH1 0x0 REVERT JUMPDEST POP POP POP POP PUSH1 0x40 MLOAD RETURNDATASIZE PUSH1 0x20 DUP2 LT ISZERO PUSH2 0x2267 JUMPI PUSH1 0x0 DUP1 REVERT JUMPDEST POP MLOAD PUSH1 0x0 SWAP8 DUP9 MSTORE PUSH1 0x20 SWAP5 SWAP1 SWAP5 MSTORE POP POP PUSH1 0x40 SWAP1 SWAP5 KECCAK256 SSTORE POP SWAP1 SWAP4 SWAP3 POP POP POP JUMP JUMPDEST PUSH2 0x2293 PUSH1 0x2 DUP7 ADD DUP6 DUP6 PUSH2 0x310A JUMP JUMPDEST POP PUSH1 0x7 DUP6 ADD SWAP2 SWAP1 SWAP2 SSTORE PUSH1 0x8 SWAP1 SWAP4 ADD SWAP3 SWAP1 SWAP3 SSTORE POP POP JUMP JUMPDEST PUSH2 0x22B8 DUP8 DUP8 DUP8 DUP8 DUP8 DUP8 DUP8 PUSH2 0x2BCC JUMP JUMPDEST POP POP POP POP POP POP POP JUMP JUMPDEST PUSH1 0x5 DUP2 ADD SLOAD PUSH1 0x7 DUP3 ADD SLOAD PUSH1 0x8 SWAP1 SWAP3 ADD SLOAD PUSH1 0x1 PUSH1 0xE0 SHL SWAP1 SWAP2 DIV PUSH4 0xFFFFFFFF AND SWAP3 JUMP JUMPDEST PUSH1 0x5 DUP2 ADD SLOAD PUSH1 0x9 DUP3 ADD SLOAD PUSH1 0xA SWAP1 SWAP3 ADD SLOAD PUSH1 0xFF PUSH1 0x1 PUSH1 0xC8 SHL DUP4 DIV DUP2 AND SWAP5 SWAP2 SWAP3 PUSH1 0x1 PUSH1 0xB8 SHL SWAP1 DIV AND SWAP1 JUMP JUMPDEST PUSH1 0x5 DUP2 ADD SLOAD PUSH1 0x1 PUSH1 0xB8 SHL SWAP1 DIV PUSH1 0xFF AND ISZERO PUSH2 0x15D9 JUMPI PUSH1 0x40 DUP1 MLOAD PUSH3 0x461BCD PUSH1 0xE5 SHL DUP2 MSTORE PUSH1 0x20 PUSH1 0x4 DUP3 ADD DUP2 SWAP1 MSTORE PUSH1 0x24 DUP3 ADD MSTORE PUSH32 0x46696C6520616C7265616479206D61726B656420666F72205472616E73666572 PUSH1 0x44 DUP3 ADD MSTORE SWAP1 MLOAD SWAP1 DUP2 SWAP1 SUB PUSH1 0x64 ADD SWAP1 REVERT JUMPDEST DUP1 MLOAD PUSH1 0x0 SWAP1 DUP3 SWAP1 DUP2 SWAP1 PUSH2 0x2385 JUMPI POP PUSH1 0x0 SWAP2 POP PUSH2 0x238D SWAP1 POP JUMP JUMPDEST PUSH1 0x20 ADD MLOAD SWAP2 POP POP JUMPDEST SWAP2 SWAP1 POP JUMP JUMPDEST PUSH1 0x0 SWAP1 DUP2 MSTORE PUSH1 0xB SWAP1 SWAP2 ADD PUSH1 0x20 MSTORE PUSH1 0x40 SWAP1 KECCAK256 SLOAD SWAP1 JUMP JUMPDEST PUSH1 0x0 DUP1 PUSH1 0x0 PUSH2 0x23F4 DUP13 DUP13 DUP13 DUP13 DUP1 DUP1 PUSH1 0x1F ADD PUSH1 0x20 DUP1 SWAP2 DIV MUL PUSH1 0x20 ADD PUSH1 0x40 MLOAD SWAP1 DUP2 ADD PUSH1 0x40 MSTORE DUP1 SWAP4 SWAP3 SWAP2 SWAP1 DUP2 DUP2 MSTORE PUSH1 0x20 ADD DUP4 DUP4 DUP1 DUP3 DUP5 CALLDATACOPY PUSH1 0x0 SWAP3 ADD SWAP2 SWAP1 SWAP2 MSTORE POP DUP15 SWAP3 POP DUP14 SWAP2 POP DUP13 SWAP1 POP DUP12 DUP12 PUSH2 0x2E65 JUMP JUMPDEST SWAP2 SWAP15 SWAP1 SWAP14 POP SWAP1 SWAP12 POP SWAP10 POP POP POP POP POP POP POP POP POP POP JUMP JUMPDEST PUSH1 0x40 DUP1 MLOAD PUSH4 0x3B228BCF PUSH1 0xE0 SHL DUP2 MSTORE PUSH1 0x4 DUP2 ADD DUP8 SWAP1 MSTORE PUSH1 0x24 DUP2 ADD DUP7 SWAP1 MSTORE SWAP1 MLOAD PUSH20 0x0 SWAP2 PUSH4 0x3B228BCF SWAP2 PUSH1 0x44 DUP1 DUP4 ADD SWAP3 PUSH1 0x0 SWAP3 SWAP2 SWAP1 DUP3 SWAP1 SUB ADD DUP2 DUP7 DUP1 EXTCODESIZE ISZERO DUP1 ISZERO PUSH2 0x2462 JUMPI PUSH1 0x0 DUP1 REVERT JUMPDEST POP GAS DELEGATECALL ISZERO DUP1 ISZERO PUSH2 0x2476 JUMPI RETURNDATASIZE PUSH1 0x0 DUP1 RETURNDATACOPY RETURNDATASIZE PUSH1 0x0 REVERT JUMPDEST POP POP POP PUSH1 0x0 DUP9 DUP2 MSTORE PUSH1 0x20 DUP5 DUP2 MSTORE PUSH1 0x40 DUP1 DUP4 KECCAK256 DUP10 DUP5 MSTORE SWAP1 SWAP2 MSTORE SWAP1 KECCAK256 PUSH2 0x249C SWAP2 POP DUP7 DUP6 PUSH2 0x11E2 JUMP JUMPDEST PUSH1 0x0 DUP10 DUP2 MSTORE PUSH1 0x20 DUP12 DUP2 MSTORE PUSH1 0x40 DUP1 DUP4 KECCAK256 DUP9 DUP5 MSTORE SWAP1 SWAP2 MSTORE DUP1 DUP3 KECCAK256 PUSH1 0x8 DUP2 ADD SWAP4 SWAP1 SWAP4 SSTORE PUSH1 0x7 SWAP1 SWAP3 ADD SWAP3 SWAP1 SWAP3 SSTORE DUP8 DUP3 MSTORE DUP2 KECCAK256 PUSH2 0x24D4 SWAP1 DUP4 PUSH2 0x2631 JUMP JUMPDEST SWAP8 DUP9 SSTORE POP POP POP PUSH1 0x1 SWAP1 SWAP5 ADD SWAP4 SWAP1 SWAP4 SSTORE POP POP POP POP JUMP JUMPDEST PUSH1 0x0 DUP4 DUP2 MSTORE PUSH1 0x20 DUP6 DUP2 MSTORE PUSH1 0x40 DUP1 DUP4 KECCAK256 DUP5 DUP5 MSTORE SWAP1 SWAP2 MSTORE SWAP1 KECCAK256 PUSH2 0x250A SWAP1 DUP4 PUSH2 0x1E66 JUMP JUMPDEST PUSH1 0x0 SWAP3 DUP4 MSTORE PUSH1 0x20 SWAP4 DUP5 MSTORE PUSH1 0x40 DUP1 DUP5 KECCAK256 SWAP2 DUP5 MSTORE SWAP4 MSTORE POP KECCAK256 PUSH1 0x5 ADD DUP1 SLOAD PUSH1 0xFF PUSH1 0xB8 SHL NOT AND SWAP1 SSTORE JUMP JUMPDEST PUSH1 0x4 DUP1 DUP4 ADD SLOAD PUSH1 0x0 DUP2 DUP2 MSTORE PUSH1 0x3 DUP6 ADD PUSH1 0x20 DUP2 DUP2 MSTORE PUSH1 0x40 SWAP3 DUP4 SWAP1 KECCAK256 PUSH1 0x2 ADD SLOAD DUP4 MLOAD PUSH4 0x24F62119 PUSH1 0xE1 SHL DUP2 MSTORE SWAP6 DUP7 ADD SWAP3 SWAP1 SWAP3 MSTORE PUSH1 0x24 DUP6 ADD DUP7 SWAP1 MSTORE PUSH1 0x44 DUP6 ADD DUP5 SWAP1 MSTORE PUSH1 0x64 DUP6 ADD DUP3 SWAP1 MSTORE SWAP2 MLOAD SWAP3 SWAP4 SWAP1 SWAP3 PUSH20 0x0 SWAP3 PUSH4 0x49EC4232 SWAP3 PUSH1 0x84 DUP1 DUP3 ADD SWAP4 SWAP2 DUP3 SWAP1 SUB ADD DUP2 DUP7 DUP1 EXTCODESIZE ISZERO DUP1 ISZERO PUSH2 0x25B3 JUMPI PUSH1 0x0 DUP1 REVERT JUMPDEST POP GAS DELEGATECALL ISZERO DUP1 ISZERO PUSH2 0x25C7 JUMPI RETURNDATASIZE PUSH1 0x0 DUP1 RETURNDATACOPY RETURNDATASIZE PUSH1 0x0 REVERT JUMPDEST POP POP POP POP PUSH1 0x40 MLOAD RETURNDATASIZE PUSH1 0x20 DUP2 LT ISZERO PUSH2 0x25DD JUMPI PUSH1 0x0 DUP1 REVERT JUMPDEST POP MLOAD PUSH1 0x4 SWAP1 SWAP5 ADD SWAP4 SWAP1 SWAP4 SSTORE POP POP POP JUMP JUMPDEST PUSH1 0x0 DUP8 DUP2 MSTORE PUSH1 0x20 DUP10 DUP2 MSTORE PUSH1 0x40 DUP1 DUP4 KECCAK256 DUP9 DUP5 MSTORE SWAP1 SWAP2 MSTORE SWAP1 KECCAK256 PUSH1 0x5 DUP2 ADD DUP1 SLOAD PUSH1 0xFF PUSH1 0xB8 SHL NOT AND SWAP1 SSTORE PUSH1 0xA ADD SLOAD PUSH2 0x2626 DUP10 DUP9 DUP4 DUP9 DUP9 DUP9 DUP9 PUSH2 0x2BCC JUMP JUMPDEST POP POP POP POP POP POP POP POP POP JUMP JUMPDEST DUP2 SLOAD PUSH1 0x0 SWAP1 DUP2 MSTORE PUSH1 0x20 SWAP2 DUP3 MSTORE PUSH1 0x40 DUP1 DUP3 KECCAK256 PUSH1 0x1 SWAP1 SWAP5 ADD SLOAD DUP3 MSTORE SWAP3 SWAP1 SWAP2 MSTORE KECCAK256 SWAP1 JUMP JUMPDEST PUSH1 0x40 DUP1 MLOAD PUSH4 0x9D3527C7 PUSH1 0xE0 SHL DUP2 MSTORE PUSH1 0x4 DUP2 ADD DUP6 SWAP1 MSTORE PUSH1 0x24 DUP2 ADD DUP8 SWAP1 MSTORE PUSH1 0x44 DUP2 ADD DUP7 SWAP1 MSTORE PUSH1 0x64 DUP2 ADD DUP5 SWAP1 MSTORE PUSH1 0x84 DUP2 ADD DUP4 SWAP1 MSTORE SWAP1 MLOAD PUSH20 0x0 SWAP2 PUSH4 0x9D3527C7 SWAP2 PUSH1 0xA4 DUP1 DUP4 ADD SWAP3 PUSH1 0x0 SWAP3 SWAP2 SWAP1 DUP3 SWAP1 SUB ADD DUP2 DUP7 DUP1 EXTCODESIZE ISZERO DUP1 ISZERO PUSH2 0x26C0 JUMPI PUSH1 0x0 DUP1 REVERT JUMPDEST POP GAS DELEGATECALL ISZERO DUP1 ISZERO PUSH2 0x26D4 JUMPI RETURNDATASIZE PUSH1 0x0 DUP1 RETURNDATACOPY RETURNDATASIZE PUSH1 0x0 REVERT JUMPDEST POP POP POP POP DUP4 PUSH20 0x0 PUSH4 0xB9FF4F84 SWAP1 SWAP2 PUSH1 0x40 MLOAD DUP3 PUSH4 0xFFFFFFFF AND PUSH1 0xE0 SHL DUP2 MSTORE PUSH1 0x4 ADD DUP1 DUP3 DUP2 MSTORE PUSH1 0x20 ADD SWAP2 POP POP PUSH1 0x0 PUSH1 0x40 MLOAD DUP1 DUP4 SUB DUP2 DUP7 DUP1 EXTCODESIZE ISZERO DUP1 ISZERO PUSH2 0x2729 JUMPI PUSH1 0x0 DUP1 REVERT JUMPDEST POP GAS DELEGATECALL ISZERO DUP1 ISZERO PUSH2 0x2626 JUMPI RETURNDATASIZE PUSH1 0x0 DUP1 RETURNDATACOPY RETURNDATASIZE PUSH1 0x0 REVERT JUMPDEST PUSH1 0x0 DUP5 DUP2 MSTORE PUSH1 0x20 DUP8 SWAP1 MSTORE PUSH1 0x40 SWAP1 KECCAK256 PUSH1 0x8 ADD SLOAD PUSH2 0x275A SWAP1 DUP3 SWAP1 PUSH2 0x2530 JUMP JUMPDEST PUSH1 0x0 DUP6 DUP2 MSTORE PUSH1 0x20 DUP4 DUP2 MSTORE PUSH1 0x40 DUP1 DUP4 KECCAK256 SLOAD DUP4 MSTORE SWAP1 DUP9 SWAP1 MSTORE DUP1 DUP3 KECCAK256 DUP7 DUP4 MSTORE SWAP2 KECCAK256 DUP2 SLOAD DUP2 SSTORE PUSH1 0x1 DUP1 DUP4 ADD SLOAD DUP2 DUP4 ADD SSTORE PUSH1 0x2 DUP1 DUP5 ADD DUP1 SLOAD PUSH2 0x27AA SWAP4 DUP4 DUP7 ADD SWAP4 SWAP1 DUP3 AND ISZERO PUSH2 0x100 MUL PUSH1 0x0 NOT ADD SWAP1 SWAP2 AND DIV PUSH2 0x3188 JUMP JUMPDEST POP PUSH1 0x3 DUP3 DUP2 ADD SLOAD SWAP1 DUP3 ADD SSTORE PUSH1 0x4 DUP1 DUP4 ADD SLOAD DUP2 DUP4 ADD SSTORE PUSH1 0x5 DUP1 DUP5 ADD DUP1 SLOAD SWAP2 DUP5 ADD DUP1 SLOAD PUSH1 0x1 PUSH1 0x1 PUSH1 0xB0 SHL SUB SWAP1 SWAP4 AND PUSH1 0x1 PUSH1 0x1 PUSH1 0xB0 SHL SUB NOT SWAP1 SWAP4 AND SWAP3 SWAP1 SWAP3 OR DUP1 DUP4 SSTORE DUP2 SLOAD PUSH1 0xFF PUSH1 0x1 PUSH1 0xB0 SHL SWAP2 DUP3 SWAP1 DIV DUP2 AND ISZERO ISZERO SWAP1 SWAP2 MUL PUSH1 0xFF PUSH1 0xB0 SHL NOT SWAP1 SWAP3 AND SWAP2 SWAP1 SWAP2 OR DUP1 DUP5 SSTORE DUP3 SLOAD PUSH1 0x1 PUSH1 0xB8 SHL SWAP1 DUP2 SWAP1 DIV DUP4 AND ISZERO ISZERO MUL PUSH1 0xFF PUSH1 0xB8 SHL NOT SWAP1 SWAP2 AND OR DUP1 DUP5 SSTORE DUP3 SLOAD PUSH1 0x1 PUSH1 0xC0 SHL SWAP1 DUP2 SWAP1 DIV DUP4 AND MUL PUSH1 0xFF PUSH1 0xC0 SHL NOT SWAP1 SWAP2 AND OR DUP1 DUP5 SSTORE DUP3 SLOAD PUSH1 0x1 PUSH1 0xC8 SHL SWAP1 DUP2 SWAP1 DIV DUP4 AND MUL PUSH1 0xFF PUSH1 0xC8 SHL NOT SWAP1 SWAP2 AND OR DUP1 DUP5 SSTORE DUP3 SLOAD PUSH1 0x1 PUSH1 0xD0 SHL SWAP1 DUP2 SWAP1 DIV DUP4 AND MUL PUSH1 0xFF PUSH1 0xD0 SHL NOT SWAP1 SWAP2 AND OR DUP1 DUP5 SSTORE DUP3 SLOAD PUSH1 0x1 PUSH1 0xD8 SHL SWAP1 DUP2 SWAP1 DIV SWAP1 SWAP3 AND SWAP1 SWAP2 MUL PUSH1 0xFF PUSH1 0xD8 SHL NOT SWAP1 SWAP2 AND OR DUP1 DUP4 SSTORE SWAP1 SLOAD PUSH4 0xFFFFFFFF PUSH1 0x1 PUSH1 0xE0 SHL SWAP2 DUP3 SWAP1 DIV AND MUL PUSH1 0x1 PUSH1 0x1 PUSH1 0xE0 SHL SUB SWAP1 SWAP2 AND OR SWAP1 SSTORE PUSH1 0x7 DUP1 DUP5 ADD SLOAD SWAP1 DUP4 ADD SSTORE PUSH1 0x8 DUP1 DUP5 ADD SLOAD SWAP1 DUP4 ADD SSTORE PUSH1 0x9 DUP1 DUP5 ADD SLOAD SWAP1 DUP4 ADD SSTORE PUSH1 0xA SWAP3 DUP4 ADD SLOAD SWAP3 SWAP1 SWAP2 ADD SWAP2 SWAP1 SWAP2 SSTORE PUSH1 0x0 DUP7 DUP2 MSTORE PUSH1 0x20 DUP5 DUP2 MSTORE PUSH1 0x40 DUP1 DUP4 KECCAK256 SLOAD DUP2 MLOAD PUSH4 0x24F62119 PUSH1 0xE1 SHL DUP2 MSTORE SWAP5 DUP6 ADD DUP9 SWAP1 MSTORE PUSH1 0x24 DUP6 ADD DUP10 SWAP1 MSTORE PUSH1 0x44 DUP6 ADD MSTORE PUSH1 0x64 DUP5 ADD SWAP3 SWAP1 SWAP3 MSTORE SWAP1 MLOAD PUSH20 0x0 SWAP3 PUSH4 0x49EC4232 SWAP3 PUSH1 0x84 DUP1 DUP4 ADD SWAP4 SWAP2 SWAP3 DUP3 SWAP1 SUB ADD DUP2 DUP7 DUP1 EXTCODESIZE ISZERO DUP1 ISZERO PUSH2 0x2955 JUMPI PUSH1 0x0 DUP1 REVERT JUMPDEST POP GAS DELEGATECALL ISZERO DUP1 ISZERO PUSH2 0x2969 JUMPI RETURNDATASIZE PUSH1 0x0 DUP1 RETURNDATACOPY RETURNDATASIZE PUSH1 0x0 REVERT JUMPDEST POP POP POP POP PUSH1 0x40 MLOAD RETURNDATASIZE PUSH1 0x20 DUP2 LT ISZERO PUSH2 0x297F JUMPI PUSH1 0x0 DUP1 REVERT JUMPDEST POP MLOAD PUSH1 0x0 SWAP6 DUP7 MSTORE PUSH1 0x20 SWAP3 SWAP1 SWAP3 MSTORE POP PUSH1 0x40 SWAP1 SWAP4 KECCAK256 SWAP3 SWAP1 SWAP3 SSTORE POP POP POP JUMP JUMPDEST PUSH2 0x29AB DUP7 DUP3 PUSH4 0xFFFFFFFF PUSH2 0x2631 AND JUMP JUMPDEST PUSH20 0x0 PUSH4 0xEC05C53A SWAP1 SWAP2 PUSH1 0x40 MLOAD DUP3 PUSH4 0xFFFFFFFF AND PUSH1 0xE0 SHL DUP2 MSTORE PUSH1 0x4 ADD DUP1 DUP3 DUP2 MSTORE PUSH1 0x20 ADD SWAP2 POP POP PUSH1 0x0 PUSH1 0x40 MLOAD DUP1 DUP4 SUB DUP2 DUP7 DUP1 EXTCODESIZE ISZERO DUP1 ISZERO PUSH2 0x29FB JUMPI PUSH1 0x0 DUP1 REVERT JUMPDEST POP GAS DELEGATECALL ISZERO DUP1 ISZERO PUSH2 0x2A0F JUMPI RETURNDATASIZE PUSH1 0x0 DUP1 RETURNDATACOPY RETURNDATASIZE PUSH1 0x0 REVERT JUMPDEST POP POP POP POP PUSH20 0x0 PUSH4 0x553BF35 DUP4 PUSH1 0x0 DUP9 DUP2 MSTORE PUSH1 0x20 ADD SWAP1 DUP2 MSTORE PUSH1 0x20 ADD PUSH1 0x0 KECCAK256 SLOAD PUSH1 0x40 MLOAD DUP3 PUSH4 0xFFFFFFFF AND PUSH1 0xE0 SHL DUP2 MSTORE PUSH1 0x4 ADD DUP1 DUP3 DUP2 MSTORE PUSH1 0x20 ADD SWAP2 POP POP PUSH1 0x0 PUSH1 0x40 MLOAD DUP1 DUP4 SUB DUP2 DUP7 DUP1 EXTCODESIZE ISZERO DUP1 ISZERO PUSH2 0x2A74 JUMPI PUSH1 0x0 DUP1 REVERT JUMPDEST POP GAS DELEGATECALL ISZERO DUP1 ISZERO PUSH2 0x2A88 JUMPI RETURNDATASIZE PUSH1 0x0 DUP1 RETURNDATACOPY RETURNDATASIZE PUSH1 0x0 REVERT JUMPDEST POP POP POP PUSH1 0x0 DUP7 DUP2 MSTORE PUSH1 0x20 DUP5 DUP2 MSTORE PUSH1 0x40 DUP1 DUP4 KECCAK256 DUP1 SLOAD PUSH1 0x5 DUP13 ADD DUP1 SLOAD PUSH1 0xFF PUSH1 0xB8 SHL NOT AND PUSH1 0x1 PUSH1 0xB8 SHL OR SWAP1 SSTORE PUSH1 0x9 DUP13 ADD DUP12 SWAP1 SSTORE PUSH1 0x1 SWAP1 DUP2 ADD PUSH1 0xA DUP14 ADD DUP2 SWAP1 SSTORE DUP1 DUP7 MSTORE DUP11 DUP6 MSTORE DUP4 DUP7 KECCAK256 DUP14 SLOAD DUP2 SSTORE DUP14 DUP4 ADD SLOAD SWAP1 DUP4 ADD SSTORE DUP6 DUP1 MSTORE DUP10 DUP6 MSTORE DUP4 DUP7 KECCAK256 SWAP1 SWAP2 ADD SLOAD DUP12 DUP7 MSTORE DUP9 DUP6 MSTORE SWAP2 SLOAD DUP4 MLOAD PUSH4 0x9DA9D57 PUSH1 0xE0 SHL DUP2 MSTORE PUSH1 0x4 DUP2 ADD DUP12 SWAP1 MSTORE PUSH1 0x24 DUP2 ADD SWAP4 SWAP1 SWAP4 MSTORE PUSH1 0x44 DUP4 ADD MSTORE PUSH1 0x64 DUP3 ADD SWAP5 SWAP1 SWAP5 MSTORE SWAP1 MLOAD SWAP3 SWAP4 POP PUSH20 0x0 SWAP3 PUSH4 0x9DA9D57 SWAP3 PUSH1 0x84 DUP1 DUP5 ADD SWAP4 SWAP2 SWAP3 SWAP2 DUP3 SWAP1 SUB ADD DUP2 DUP7 DUP1 EXTCODESIZE ISZERO DUP1 ISZERO PUSH2 0x2B54 JUMPI PUSH1 0x0 DUP1 REVERT JUMPDEST POP GAS DELEGATECALL ISZERO DUP1 ISZERO PUSH2 0x2B68 JUMPI RETURNDATASIZE PUSH1 0x0 DUP1 RETURNDATACOPY RETURNDATASIZE PUSH1 0x0 REVERT JUMPDEST POP POP POP POP PUSH1 0x40 MLOAD RETURNDATASIZE PUSH1 0x20 DUP2 LT ISZERO PUSH2 0x2B7E JUMPI PUSH1 0x0 DUP1 REVERT JUMPDEST POP MLOAD PUSH1 0x0 SWAP7 DUP8 MSTORE PUSH1 0x20 SWAP4 SWAP1 SWAP4 MSTORE POP POP PUSH1 0x40 SWAP1 SWAP4 KECCAK256 SWAP3 SWAP1 SWAP3 SSTORE POP POP POP JUMP JUMPDEST PUSH1 0x0 DUP3 DUP3 ADD DUP4 DUP2 LT ISZERO PUSH2 0x2BAD JUMPI PUSH1 0x0 DUP1 REVERT JUMPDEST SWAP4 SWAP3 POP POP POP JUMP JUMPDEST PUSH1 0x0 DUP3 DUP3 ADD PUSH1 0xFF DUP1 DUP6 AND SWAP1 DUP3 AND LT ISZERO PUSH2 0x2BAD JUMPI PUSH1 0x0 DUP1 REVERT JUMPDEST PUSH1 0x0 DUP6 DUP2 MSTORE PUSH1 0x20 DUP6 SWAP1 MSTORE PUSH1 0x40 SWAP1 KECCAK256 PUSH2 0x2BEA SWAP1 DUP3 PUSH4 0xFFFFFFFF PUSH2 0x2631 AND JUMP JUMPDEST PUSH20 0x0 PUSH4 0x8268C4EC SWAP1 SWAP2 PUSH1 0x40 MLOAD DUP3 PUSH4 0xFFFFFFFF AND PUSH1 0xE0 SHL DUP2 MSTORE PUSH1 0x4 ADD DUP1 DUP3 DUP2 MSTORE PUSH1 0x20 ADD SWAP2 POP POP PUSH1 0x0 PUSH1 0x40 MLOAD DUP1 DUP4 SUB DUP2 DUP7 DUP1 EXTCODESIZE ISZERO DUP1 ISZERO PUSH2 0x2C3A JUMPI PUSH1 0x0 DUP1 REVERT JUMPDEST POP GAS DELEGATECALL ISZERO DUP1 ISZERO PUSH2 0x2C4E JUMPI RETURNDATASIZE PUSH1 0x0 DUP1 RETURNDATACOPY RETURNDATASIZE PUSH1 0x0 REVERT JUMPDEST POP POP POP POP PUSH2 0x2C5A PUSH2 0x3241 JUMP JUMPDEST PUSH1 0x0 DUP7 DUP2 MSTORE PUSH1 0x20 DUP7 SWAP1 MSTORE PUSH1 0x40 SWAP1 KECCAK256 PUSH2 0x2C78 SWAP1 DUP4 PUSH4 0xFFFFFFFF PUSH2 0x2631 AND JUMP JUMPDEST PUSH1 0x40 DUP1 MLOAD PUSH2 0x160 DUP2 ADD DUP3 MSTORE DUP3 SLOAD PUSH2 0x120 DUP3 ADD SWAP1 DUP2 MSTORE PUSH1 0x1 DUP5 ADD SLOAD PUSH2 0x140 DUP4 ADD MSTORE DUP2 MSTORE DUP2 MLOAD DUP1 DUP4 ADD DUP4 MSTORE PUSH1 0x2 DUP5 ADD SLOAD DUP2 MSTORE PUSH1 0x3 DUP5 ADD SLOAD PUSH1 0x20 DUP3 DUP2 ADD SWAP2 SWAP1 SWAP2 MSTORE DUP1 DUP4 ADD SWAP2 SWAP1 SWAP2 MSTORE PUSH1 0x4 SWAP1 SWAP4 ADD SLOAD PUSH1 0xFF DUP1 DUP3 AND ISZERO ISZERO DUP4 DUP6 ADD MSTORE PUSH2 0x100 DUP1 DUP4 DIV DUP3 AND ISZERO ISZERO PUSH1 0x60 DUP6 ADD MSTORE PUSH3 0x10000 DUP4 DIV DUP3 AND ISZERO ISZERO PUSH1 0x80 DUP6 ADD MSTORE PUSH4 0xFFFFFFFF PUSH4 0x1000000 DUP5 DIV DUP2 AND PUSH1 0xA0 DUP7 ADD MSTORE PUSH8 0x100000000000000 DUP5 DIV AND PUSH1 0xC0 DUP6 ADD MSTORE PUSH1 0x1 PUSH1 0x58 SHL DUP4 DIV DUP3 AND ISZERO ISZERO PUSH1 0xE0 DUP6 ADD MSTORE PUSH1 0x1 PUSH1 0x60 SHL SWAP1 SWAP3 DIV AND SWAP1 DUP3 ADD MSTORE PUSH1 0x0 DUP11 DUP2 MSTORE SWAP3 DUP7 SWAP1 MSTORE SWAP2 KECCAK256 SLOAD SWAP1 SWAP2 POP DUP1 PUSH2 0x2D80 JUMPI PUSH1 0x40 DUP1 MLOAD PUSH3 0x461BCD PUSH1 0xE5 SHL DUP2 MSTORE PUSH1 0x20 PUSH1 0x4 DUP3 ADD MSTORE PUSH1 0xF PUSH1 0x24 DUP3 ADD MSTORE PUSH15 0x125B99195E08139BDD08119BDD5B99 PUSH1 0x8A SHL PUSH1 0x44 DUP3 ADD MSTORE SWAP1 MLOAD SWAP1 DUP2 SWAP1 SUB PUSH1 0x64 ADD SWAP1 REVERT JUMPDEST PUSH1 0x0 DUP2 DUP2 MSTORE PUSH1 0x20 DUP8 DUP2 MSTORE PUSH1 0x40 DUP1 DUP4 KECCAK256 DUP11 DUP5 MSTORE DUP2 DUP5 KECCAK256 DUP2 SLOAD DUP2 SSTORE PUSH1 0x1 SWAP2 DUP3 ADD SLOAD SWAP2 ADD SSTORE DUP1 MLOAD PUSH4 0x24F62119 PUSH1 0xE1 SHL DUP2 MSTORE PUSH1 0x4 DUP2 ADD DUP10 SWAP1 MSTORE PUSH1 0x24 DUP2 ADD DUP12 SWAP1 MSTORE PUSH1 0x44 DUP2 ADD DUP6 SWAP1 MSTORE PUSH1 0x64 DUP2 ADD SWAP4 SWAP1 SWAP4 MSTORE MLOAD PUSH20 0x0 SWAP3 PUSH4 0x49EC4232 SWAP3 PUSH1 0x84 DUP1 DUP4 ADD SWAP4 SWAP2 SWAP3 DUP3 SWAP1 SUB ADD DUP2 DUP7 DUP1 EXTCODESIZE ISZERO DUP1 ISZERO PUSH2 0x2E04 JUMPI PUSH1 0x0 DUP1 REVERT JUMPDEST POP GAS DELEGATECALL ISZERO DUP1 ISZERO PUSH2 0x2E18 JUMPI RETURNDATASIZE PUSH1 0x0 DUP1 RETURNDATACOPY RETURNDATASIZE PUSH1 0x0 REVERT JUMPDEST POP POP POP POP PUSH1 0x40 MLOAD RETURNDATASIZE PUSH1 0x20 DUP2 LT ISZERO PUSH2 0x2E2E JUMPI PUSH1 0x0 DUP1 REVERT JUMPDEST POP MLOAD PUSH1 0x0 SWAP9 DUP10 MSTORE PUSH1 0x20 SWAP5 DUP6 MSTORE PUSH1 0x40 DUP1 DUP11 KECCAK256 SWAP2 SWAP1 SWAP2 SSTORE DUP3 MLOAD MLOAD DUP10 MSTORE SWAP9 DUP5 MSTORE POP DUP8 DUP8 KECCAK256 SWAP1 MLOAD DUP4 ADD MLOAD DUP8 MSTORE SWAP1 SWAP2 MSTORE POP POP POP SWAP2 SWAP1 KECCAK256 PUSH1 0xA ADD SSTORE JUMP JUMPDEST PUSH1 0x0 DUP1 PUSH1 0x0 PUSH20 0x0 PUSH4 0x846D4C8C DUP7 DUP7 PUSH1 0x40 MLOAD DUP4 PUSH4 0xFFFFFFFF AND PUSH1 0xE0 SHL DUP2 MSTORE PUSH1 0x4 ADD DUP1 DUP4 DUP2 MSTORE PUSH1 0x20 ADD DUP3 DUP2 MSTORE PUSH1 0x20 ADD SWAP3 POP POP POP PUSH1 0x40 DUP1 MLOAD DUP1 DUP4 SUB DUP2 DUP7 DUP1 EXTCODESIZE ISZERO DUP1 ISZERO PUSH2 0x2EC0 JUMPI PUSH1 0x0 DUP1 REVERT JUMPDEST POP GAS DELEGATECALL ISZERO DUP1 ISZERO PUSH2 0x2ED4 JUMPI RETURNDATASIZE PUSH1 0x0 DUP1 RETURNDATACOPY RETURNDATASIZE PUSH1 0x0 REVERT JUMPDEST POP POP POP POP PUSH1 0x40 MLOAD RETURNDATASIZE PUSH1 0x40 DUP2 LT ISZERO PUSH2 0x2EEA JUMPI PUSH1 0x0 DUP1 REVERT JUMPDEST POP DUP1 MLOAD PUSH1 0x20 SWAP2 DUP3 ADD MLOAD PUSH1 0x0 DUP14 DUP2 MSTORE SWAP3 DUP11 SWAP1 MSTORE PUSH1 0x40 SWAP1 SWAP3 KECCAK256 SLOAD SWAP1 SWAP5 POP SWAP1 SWAP3 POP PUSH2 0x2F19 SWAP1 PUSH1 0x1 PUSH4 0xFFFFFFFF PUSH2 0x2B9B AND JUMP JUMPDEST PUSH1 0x40 DUP1 MLOAD PUSH4 0x61DCE165 PUSH1 0xE1 SHL DUP2 MSTORE PUSH1 0x4 DUP2 ADD DUP10 SWAP1 MSTORE PUSH1 0x24 DUP2 ADD DUP7 SWAP1 MSTORE PUSH1 0x44 DUP2 ADD DUP6 SWAP1 MSTORE PUSH1 0x64 DUP2 ADD DUP14 SWAP1 MSTORE PUSH1 0x84 DUP2 ADD DUP4 SWAP1 MSTORE PUSH1 0x0 PUSH1 0xA4 DUP3 ADD DUP2 SWAP1 MSTORE PUSH1 0xC4 DUP3 ADD DUP2 SWAP1 MSTORE PUSH1 0xE4 DUP3 ADD DUP2 SWAP1 MSTORE SWAP2 MLOAD SWAP3 SWAP4 POP PUSH20 0x0 SWAP3 PUSH4 0xC3B9C2CA SWAP3 PUSH2 0x104 DUP1 DUP5 ADD SWAP4 SWAP2 SWAP3 SWAP2 DUP3 SWAP1 SUB ADD DUP2 DUP7 DUP1 EXTCODESIZE ISZERO DUP1 ISZERO PUSH2 0x2FA0 JUMPI PUSH1 0x0 DUP1 REVERT JUMPDEST POP GAS DELEGATECALL ISZERO DUP1 ISZERO PUSH2 0x2FB4 JUMPI RETURNDATASIZE PUSH1 0x0 DUP1 RETURNDATACOPY RETURNDATASIZE PUSH1 0x0 REVERT JUMPDEST POP POP POP POP PUSH1 0x40 MLOAD DUP1 PUSH1 0x60 ADD PUSH1 0x40 MSTORE DUP1 PUSH1 0x40 MLOAD DUP1 PUSH1 0x40 ADD PUSH1 0x40 MSTORE DUP1 DUP7 DUP2 MSTORE PUSH1 0x20 ADD DUP6 DUP2 MSTORE POP DUP2 MSTORE PUSH1 0x20 ADD DUP11 DUP2 MSTORE PUSH1 0x20 ADD PUSH1 0x0 DUP2 MSTORE POP DUP12 PUSH1 0x0 DUP4 DUP2 MSTORE PUSH1 0x20 ADD SWAP1 DUP2 MSTORE PUSH1 0x20 ADD PUSH1 0x0 KECCAK256 PUSH1 0x0 DUP3 ADD MLOAD DUP2 PUSH1 0x0 ADD PUSH1 0x0 DUP3 ADD MLOAD DUP2 PUSH1 0x0 ADD SSTORE PUSH1 0x20 DUP3 ADD MLOAD DUP2 PUSH1 0x1 ADD SSTORE POP POP PUSH1 0x20 DUP3 ADD MLOAD DUP2 PUSH1 0x2 ADD SWAP1 DUP1 MLOAD SWAP1 PUSH1 0x20 ADD SWAP1 PUSH2 0x3035 SWAP3 SWAP2 SWAP1 PUSH2 0x3299 JUMP JUMPDEST POP PUSH1 0x40 SWAP2 DUP3 ADD MLOAD PUSH1 0x4 SWAP2 DUP3 ADD SSTORE PUSH1 0x0 DUP1 DUP1 MSTORE PUSH1 0x20 DUP12 DUP2 MSTORE DUP4 DUP3 KECCAK256 PUSH1 0x1 ADD SLOAD DUP15 DUP4 MSTORE DUP12 DUP3 MSTORE DUP5 DUP4 KECCAK256 SLOAD DUP6 MLOAD PUSH4 0x9DA9D57 PUSH1 0xE0 SHL DUP2 MSTORE SWAP5 DUP6 ADD DUP15 SWAP1 MSTORE PUSH1 0x24 DUP6 ADD SWAP2 SWAP1 SWAP2 MSTORE PUSH1 0x44 DUP5 ADD MSTORE PUSH1 0x64 DUP4 ADD SWAP2 SWAP1 SWAP2 MSTORE SWAP2 MLOAD PUSH20 0x0 SWAP3 PUSH4 0x9DA9D57 SWAP3 PUSH1 0x84 DUP1 DUP3 ADD SWAP4 SWAP2 DUP3 SWAP1 SUB ADD DUP2 DUP7 DUP1 EXTCODESIZE ISZERO DUP1 ISZERO PUSH2 0x30BD JUMPI PUSH1 0x0 DUP1 REVERT JUMPDEST POP GAS DELEGATECALL ISZERO DUP1 ISZERO PUSH2 0x30D1 JUMPI RETURNDATASIZE PUSH1 0x0 DUP1 RETURNDATACOPY RETURNDATASIZE PUSH1 0x0 REVERT JUMPDEST POP POP POP POP PUSH1 0x40 MLOAD RETURNDATASIZE PUSH1 0x20 DUP2 LT ISZERO PUSH2 0x30E7 JUMPI PUSH1 0x0 DUP1 REVERT JUMPDEST POP MLOAD PUSH1 0x0 SWAP11 DUP12 MSTORE PUSH1 0x20 SWAP8 SWAP1 SWAP8 MSTORE PUSH1 0x40 SWAP1 SWAP10 KECCAK256 SWAP6 SWAP1 SWAP6 SSTORE SWAP9 SWAP4 SWAP8 POP SWAP3 SWAP5 POP POP POP POP POP JUMP JUMPDEST DUP3 DUP1 SLOAD PUSH1 0x1 DUP2 PUSH1 0x1 AND ISZERO PUSH2 0x100 MUL SUB AND PUSH1 0x2 SWAP1 DIV SWAP1 PUSH1 0x0 MSTORE PUSH1 0x20 PUSH1 0x0 KECCAK256 SWAP1 PUSH1 0x1F ADD PUSH1 0x20 SWAP1 DIV DUP2 ADD SWAP3 DUP3 PUSH1 0x1F LT PUSH2 0x314B JUMPI DUP3 DUP1 ADD PUSH1 0xFF NOT DUP3 CALLDATALOAD AND OR DUP6 SSTORE PUSH2 0x3178 JUMP JUMPDEST DUP3 DUP1 ADD PUSH1 0x1 ADD DUP6 SSTORE DUP3 ISZERO PUSH2 0x3178 JUMPI SWAP2 DUP3 ADD JUMPDEST DUP3 DUP2 GT ISZERO PUSH2 0x3178 JUMPI DUP3 CALLDATALOAD DUP3 SSTORE SWAP2 PUSH1 0x20 ADD SWAP2 SWAP1 PUSH1 0x1 ADD SWAP1 PUSH2 0x315D JUMP JUMPDEST POP PUSH2 0x3184 SWAP3 SWAP2 POP PUSH2 0x3307 JUMP JUMPDEST POP SWAP1 JUMP JUMPDEST DUP3 DUP1 SLOAD PUSH1 0x1 DUP2 PUSH1 0x1 AND ISZERO PUSH2 0x100 MUL SUB AND PUSH1 0x2 SWAP1 DIV SWAP1 PUSH1 0x0 MSTORE PUSH1 0x20 PUSH1 0x0 KECCAK256 SWAP1 PUSH1 0x1F ADD PUSH1 0x20 SWAP1 DIV DUP2 ADD SWAP3 DUP3 PUSH1 0x1F LT PUSH2 0x31C1 JUMPI DUP1 SLOAD DUP6 SSTORE PUSH2 0x3178 JUMP JUMPDEST DUP3 DUP1 ADD PUSH1 0x1 ADD DUP6 SSTORE DUP3 ISZERO PUSH2 0x3178 JUMPI PUSH1 0x0 MSTORE PUSH1 0x20 PUSH1 0x0 KECCAK256 SWAP2 PUSH1 0x1F ADD PUSH1 0x20 SWAP1 DIV DUP3 ADD JUMPDEST DUP3 DUP2 GT ISZERO PUSH2 0x3178 JUMPI DUP3 SLOAD DUP3 SSTORE SWAP2 PUSH1 0x1 ADD SWAP2 SWAP1 PUSH1 0x1 ADD SWAP1 PUSH2 0x31E2 JUMP JUMPDEST POP DUP1 SLOAD PUSH1 0x1 DUP2 PUSH1 0x1 AND ISZERO PUSH2 0x100 MUL SUB AND PUSH1 0x2 SWAP1 DIV PUSH1 0x0 DUP3 SSTORE DUP1 PUSH1 0x1F LT PUSH2 0x3223 JUMPI POP PUSH2 0x15D9 JUMP JUMPDEST PUSH1 0x1F ADD PUSH1 0x20 SWAP1 DIV SWAP1 PUSH1 0x0 MSTORE PUSH1 0x20 PUSH1 0x0 KECCAK256 SWAP1 DUP2 ADD SWAP1 PUSH2 0x15D9 SWAP2 SWAP1 PUSH2 0x3307 JUMP JUMPDEST PUSH1 0x40 MLOAD DUP1 PUSH2 0x120 ADD PUSH1 0x40 MSTORE DUP1 PUSH2 0x3255 PUSH2 0x3324 JUMP JUMPDEST DUP2 MSTORE PUSH1 0x20 ADD PUSH2 0x3262 PUSH2 0x3324 JUMP JUMPDEST DUP2 MSTORE PUSH1 0x0 PUSH1 0x20 DUP3 ADD DUP2 SWAP1 MSTORE PUSH1 0x40 DUP3 ADD DUP2 SWAP1 MSTORE PUSH1 0x60 DUP3 ADD DUP2 SWAP1 MSTORE PUSH1 0x80 DUP3 ADD DUP2 SWAP1 MSTORE PUSH1 0xA0 DUP3 ADD DUP2 SWAP1 MSTORE PUSH1 0xC0 DUP3 ADD DUP2 SWAP1 MSTORE PUSH1 0xE0 SWAP1 SWAP2 ADD MSTORE SWAP1 JUMP JUMPDEST DUP3 DUP1 SLOAD PUSH1 0x1 DUP2 PUSH1 0x1 AND ISZERO PUSH2 0x100 MUL SUB AND PUSH1 0x2 SWAP1 DIV SWAP1 PUSH1 0x0 MSTORE PUSH1 0x20 PUSH1 0x0 KECCAK256 SWAP1 PUSH1 0x1F ADD PUSH1 0x20 SWAP1 DIV DUP2 ADD SWAP3 DUP3 PUSH1 0x1F LT PUSH2 0x32DA JUMPI DUP1 MLOAD PUSH1 0xFF NOT AND DUP4 DUP1 ADD OR DUP6 SSTORE PUSH2 0x3178 JUMP JUMPDEST DUP3 DUP1 ADD PUSH1 0x1 ADD DUP6 SSTORE DUP3 ISZERO PUSH2 0x3178 JUMPI SWAP2 DUP3 ADD JUMPDEST DUP3 DUP2 GT ISZERO PUSH2 0x3178 JUMPI DUP3 MLOAD DUP3 SSTORE SWAP2 PUSH1 0x20 ADD SWAP2 SWAP1 PUSH1 0x1 ADD SWAP1 PUSH2 0x32EC JUMP JUMPDEST PUSH2 0x3321 SWAP2 SWAP1 JUMPDEST DUP1 DUP3 GT ISZERO PUSH2 0x3184 JUMPI PUSH1 0x0 DUP2 SSTORE PUSH1 0x1 ADD PUSH2 0x330D JUMP JUMPDEST SWAP1 JUMP JUMPDEST PUSH1 0x40 MLOAD DUP1 PUSH1 0x40 ADD PUSH1 0x40 MSTORE DUP1 PUSH1 0x0 DUP2 MSTORE PUSH1 0x20 ADD PUSH1 0x0 DUP2 MSTORE POP SWAP1 JUMP INVALID LOG2 PUSH6 0x627A7A723158 KECCAK256 0xDC 0x4B SDIV 0xCF SWAP15 AND PUSH14 0xF523FAA4E331656AE7B9F9B22DF9 PUSH6 0xBFB3DE0E6020 MSIZE 0xD7 SWAP16 0x28 PUSH5 0x736F6C6343 STOP SDIV GT STOP ORIGIN "
		},
		"gasEstimates": {
			"creation": {
				"codeDepositCost": "2634200",
				"executionCost": "2879",
				"totalCost": "2637079"
			},
			"external": {
				"acceptFileTransferPart1(mapping(uint256 => mapping(uint256 => IceFMS.File)) storage,uint256,uint256,uint256)": "22290",
				"acceptFileTransferPart2(mapping(uint256 => mapping(uint256 => IceFMS.File)) storage,uint256,uint256,mapping(uint256 => IceGlobal.GlobalRecord) storage,mapping(uint256 => IceSort.SortOrder) storage,mapping(uint256 => uint256) storage,mapping(uint256 => mapping(uint256 => IceGlobal.Association)) storage)": "infinite",
				"addFileToGroup(IceFMS.Group storage,uint256,uint256)": "infinite",
				"bytes32ToString(bytes32)": "infinite",
				"cancelFileTransfer(mapping(uint256 => mapping(uint256 => IceFMS.File)) storage,uint256,uint256,uint256,mapping(uint256 => IceGlobal.GlobalRecord) storage,mapping(uint256 => IceSort.SortOrder) storage,mapping(uint256 => uint256) storage,mapping(uint256 => mapping(uint256 => IceGlobal.Association)) storage)": "infinite",
				"condGroupEmpty(IceFMS.Group storage)": "1193",
				"condItemMarkedForTransfer(IceFMS.File storage)": "1190",
				"condMarkedForTransferee(IceFMS.File storage,uint256)": "1183",
				"condNonReservedItem(uint256)": "390",
				"createFileMetaObject(IceFMS.File storage,uint8,bytes32,bytes32,bytes22,uint8,uint8,bool)": "61830",
				"createFileObject(IceFMS.File storage,bytes,uint256,uint256)": "infinite",
				"createGroup(mapping(uint256 => IceFMS.Group) storage,uint256,string,mapping(uint256 => IceSort.SortOrder) storage,mapping(uint256 => uint256) storage,mapping(uint256 => mapping(uint256 => IceGlobal.Association)) storage,uint256,uint256)": "infinite",
				"deleteFile(mapping(uint256 => IceFMS.File) storage,uint256,uint256,IceGlobal.Association storage,mapping(uint256 => IceSort.SortOrder) storage,mapping(uint256 => uint256) storage,IceFMS.Group storage,IceSort.SortOrder storage,mapping(uint256 => mapping(uint256 => IceGlobal.GlobalRecord)) storage,mapping(uint256 => mapping(uint256 => IceSort.SortOrder)) storage,mapping(uint256 => uint256) storage)": "infinite",
				"deleteGroup(mapping(uint256 => IceFMS.Group) storage,uint256,uint256,mapping(uint256 => IceSort.SortOrder) storage,mapping(uint256 => uint256) storage,mapping(uint256 => mapping(uint256 => IceGlobal.GlobalRecord)) storage,mapping(uint256 => mapping(uint256 => IceSort.SortOrder)) storage,mapping(uint256 => uint256) storage,mapping(uint256 => mapping(uint256 => IceGlobal.Association)) storage)": "infinite",
				"doFileTransferPart1(mapping(uint256 => mapping(uint256 => IceFMS.File)) storage,uint256,uint256,uint256,mapping(uint256 => mapping(uint256 => IceSort.SortOrder)) storage,mapping(uint256 => uint256) storage)": "infinite",
				"doFileTransferPart2(mapping(uint256 => mapping(uint256 => IceFMS.File)) storage,uint256,uint256,uint256,uint256,uint256,mapping(uint256 => mapping(uint256 => IceFMS.Group)) storage,mapping(uint256 => mapping(uint256 => IceGlobal.Association)) storage)": "infinite",
				"doInitiateFileTransferChecks(mapping(uint256 => mapping(uint256 => IceFMS.File)) storage,uint256,uint256,uint256,mapping(uint256 => uint256) storage,mapping(uint256 => mapping(uint256 => IceFMS.Group)) storage,mapping(uint256 => mapping(uint256 => bool)) storage,mapping(uint256 => mapping(uint256 => IceGlobal.Association)) storage,IdentityRegistryInterface)": "infinite",
				"doPermissionedFileTransfer(IceFMS.File storage,uint256,mapping(uint256 => IceGlobal.GlobalRecord) storage,mapping(uint256 => IceSort.SortOrder) storage,mapping(uint256 => uint256) storage,mapping(uint256 => mapping(uint256 => IceGlobal.Association)) storage)": "infinite",
				"getFileInfo(IceFMS.File storage)": "infinite",
				"getFileOtherInfo(IceFMS.File storage)": "2836",
				"getFileTransferInfo(IceFMS.File storage)": "2820",
				"getFileTransferOwners(IceFMS.File storage,uint256)": "1225",
				"getGroup(IceFMS.Group storage,uint256,uint256)": "infinite",
				"moveFileToGroup(IceFMS.File storage,uint256,mapping(uint256 => IceFMS.Group) storage,mapping(uint256 => IceSort.SortOrder) storage,uint256,mapping(uint256 => mapping(uint256 => IceGlobal.Association)) storage)": "infinite",
				"remapFileToGroup(IceFMS.File storage,uint256,IceFMS.Group storage,IceFMS.Group storage,uint256)": "infinite",
				"removeFileFromGroup(IceFMS.Group storage,uint256)": "infinite",
				"renameGroup(IceFMS.Group storage,uint256,uint256,string)": "infinite",
				"stringToBytes32(string)": "infinite",
				"writeFile(IceFMS.File storage,IceFMS.Group storage,uint256,mapping(uint256 => IceSort.SortOrder) storage,uint256,uint256,uint256,bytes32)": "infinite"
			},
			"internal": {
				"_cancelFileTransfer(mapping(uint256 => mapping(uint256 => struct IceFMS.File storage ref)),uint256,uint256,uint256,mapping(uint256 => struct IceGlobal.GlobalRecord storage ref),mapping(uint256 => struct IceSort.SortOrder storage ref),mapping(uint256 => uint256),mapping(uint256 => mapping(uint256 => struct IceGlobal.Association storage ref)))": "infinite",
				"_createGroupInner(mapping(uint256 => struct IceFMS.Group storage ref),uint256,string memory,mapping(uint256 => struct IceSort.SortOrder storage ref),mapping(uint256 => uint256),mapping(uint256 => mapping(uint256 => struct IceGlobal.Association storage ref)),uint256,uint256)": "infinite",
				"_deleteFileMappings(uint256,struct IceGlobal.Association storage pointer,mapping(uint256 => mapping(uint256 => struct IceGlobal.GlobalRecord storage ref)),mapping(uint256 => mapping(uint256 => struct IceSort.SortOrder storage ref)),mapping(uint256 => uint256))": "infinite",
				"_deleteFileObject(mapping(uint256 => struct IceFMS.File storage ref),uint256,uint256,mapping(uint256 => struct IceSort.SortOrder storage ref),mapping(uint256 => uint256),struct IceFMS.Group storage pointer)": "infinite",
				"_initiatePermissionedFileTransfer(struct IceFMS.File storage pointer,uint256,mapping(uint256 => struct IceGlobal.GlobalRecord storage ref),mapping(uint256 => struct IceSort.SortOrder storage ref),mapping(uint256 => uint256),mapping(uint256 => mapping(uint256 => struct IceGlobal.Association storage ref)))": "infinite",
				"condNonReservedGroup(uint256)": "infinite",
				"removeFileFromTransfereeMapping(mapping(uint256 => mapping(uint256 => struct IceFMS.File storage ref)),uint256,uint256,mapping(uint256 => struct IceGlobal.GlobalRecord storage ref),mapping(uint256 => struct IceSort.SortOrder storage ref),mapping(uint256 => uint256),mapping(uint256 => mapping(uint256 => struct IceGlobal.Association storage ref)))": "infinite"
			}
		},
		"methodIdentifiers": {
			"acceptFileTransferPart1(mapping(uint256 => mapping(uint256 => IceFMS.File)) storage,uint256,uint256,uint256)": "f74506d3",
			"acceptFileTransferPart2(mapping(uint256 => mapping(uint256 => IceFMS.File)) storage,uint256,uint256,mapping(uint256 => IceGlobal.GlobalRecord) storage,mapping(uint256 => IceSort.SortOrder) storage,mapping(uint256 => uint256) storage,mapping(uint256 => mapping(uint256 => IceGlobal.Association)) storage)": "be6d9f13",
			"addFileToGroup(IceFMS.Group storage,uint256,uint256)": "6557ed99",
			"bytes32ToString(bytes32)": "9201de55",
			"cancelFileTransfer(mapping(uint256 => mapping(uint256 => IceFMS.File)) storage,uint256,uint256,uint256,mapping(uint256 => IceGlobal.GlobalRecord) storage,mapping(uint256 => IceSort.SortOrder) storage,mapping(uint256 => uint256) storage,mapping(uint256 => mapping(uint256 => IceGlobal.Association)) storage)": "2118d33b",
			"condGroupEmpty(IceFMS.Group storage)": "a31b1e2a",
			"condItemMarkedForTransfer(IceFMS.File storage)": "cbe6daf4",
			"condMarkedForTransferee(IceFMS.File storage,uint256)": "a28f7d3c",
			"condNonReservedItem(uint256)": "7670e3ea",
			"createFileMetaObject(IceFMS.File storage,uint8,bytes32,bytes32,bytes22,uint8,uint8,bool)": "3b8b92bf",
			"createFileObject(IceFMS.File storage,bytes,uint256,uint256)": "bc5103a2",
			"createGroup(mapping(uint256 => IceFMS.Group) storage,uint256,string,mapping(uint256 => IceSort.SortOrder) storage,mapping(uint256 => uint256) storage,mapping(uint256 => mapping(uint256 => IceGlobal.Association)) storage,uint256,uint256)": "de6bf695",
			"deleteFile(mapping(uint256 => IceFMS.File) storage,uint256,uint256,IceGlobal.Association storage,mapping(uint256 => IceSort.SortOrder) storage,mapping(uint256 => uint256) storage,IceFMS.Group storage,IceSort.SortOrder storage,mapping(uint256 => mapping(uint256 => IceGlobal.GlobalRecord)) storage,mapping(uint256 => mapping(uint256 => IceSort.SortOrder)) storage,mapping(uint256 => uint256) storage)": "a162dd3d",
			"deleteGroup(mapping(uint256 => IceFMS.Group) storage,uint256,uint256,mapping(uint256 => IceSort.SortOrder) storage,mapping(uint256 => uint256) storage,mapping(uint256 => mapping(uint256 => IceGlobal.GlobalRecord)) storage,mapping(uint256 => mapping(uint256 => IceSort.SortOrder)) storage,mapping(uint256 => uint256) storage,mapping(uint256 => mapping(uint256 => IceGlobal.Association)) storage)": "69e39b90",
			"doFileTransferPart1(mapping(uint256 => mapping(uint256 => IceFMS.File)) storage,uint256,uint256,uint256,mapping(uint256 => mapping(uint256 => IceSort.SortOrder)) storage,mapping(uint256 => uint256) storage)": "bac97b40",
			"doFileTransferPart2(mapping(uint256 => mapping(uint256 => IceFMS.File)) storage,uint256,uint256,uint256,uint256,uint256,mapping(uint256 => mapping(uint256 => IceFMS.Group)) storage,mapping(uint256 => mapping(uint256 => IceGlobal.Association)) storage)": "e730a131",
			"doInitiateFileTransferChecks(mapping(uint256 => mapping(uint256 => IceFMS.File)) storage,uint256,uint256,uint256,mapping(uint256 => uint256) storage,mapping(uint256 => mapping(uint256 => IceFMS.Group)) storage,mapping(uint256 => mapping(uint256 => bool)) storage,mapping(uint256 => mapping(uint256 => IceGlobal.Association)) storage,IdentityRegistryInterface)": "8289d66c",
			"doPermissionedFileTransfer(IceFMS.File storage,uint256,mapping(uint256 => IceGlobal.GlobalRecord) storage,mapping(uint256 => IceSort.SortOrder) storage,mapping(uint256 => uint256) storage,mapping(uint256 => mapping(uint256 => IceGlobal.Association)) storage)": "a1b8ebb9",
			"getFileInfo(IceFMS.File storage)": "3edbc2cd",
			"getFileOtherInfo(IceFMS.File storage)": "c693ba1e",
			"getFileTransferInfo(IceFMS.File storage)": "c7bf45e6",
			"getFileTransferOwners(IceFMS.File storage,uint256)": "d3587cba",
			"getGroup(IceFMS.Group storage,uint256,uint256)": "40cea0c2",
			"moveFileToGroup(IceFMS.File storage,uint256,mapping(uint256 => IceFMS.Group) storage,mapping(uint256 => IceSort.SortOrder) storage,uint256,mapping(uint256 => mapping(uint256 => IceGlobal.Association)) storage)": "9e521be4",
			"remapFileToGroup(IceFMS.File storage,uint256,IceFMS.Group storage,IceFMS.Group storage,uint256)": "4519a00c",
			"removeFileFromGroup(IceFMS.Group storage,uint256)": "fcdf96a6",
			"renameGroup(IceFMS.Group storage,uint256,uint256,string)": "05bd3922",
			"stringToBytes32(string)": "cfb51928",
			"writeFile(IceFMS.File storage,IceFMS.Group storage,uint256,mapping(uint256 => IceSort.SortOrder) storage,uint256,uint256,uint256,bytes32)": "331d6ab9"
		}
	},
	"abi": [
		{
			"constant": true,
			"inputs": [
				{
					"internalType": "bytes32",
					"name": "_x",
					"type": "bytes32"
				}
			],
			"name": "bytes32ToString",
			"outputs": [
				{
					"internalType": "string",
					"name": "result",
					"type": "string"
				}
			],
			"payable": false,
			"stateMutability": "view",
			"type": "function"
		},
		{
			"constant": true,
			"inputs": [
				{
					"internalType": "uint256",
					"name": "_index",
					"type": "uint256"
				}
			],
			"name": "condNonReservedItem",
			"outputs": [],
			"payable": false,
			"stateMutability": "view",
			"type": "function"
		},
		{
			"constant": true,
			"inputs": [
				{
					"internalType": "string",
					"name": "_source",
					"type": "string"
				}
			],
			"name": "stringToBytes32",
			"outputs": [
				{
					"internalType": "bytes32",
					"name": "result",
					"type": "bytes32"
				}
			],
			"payable": false,
			"stateMutability": "view",
			"type": "function"
		}
	]
}